{
  "contractName": "BondHolder",
  "abi": [
    {
      "constant": false,
      "inputs": [
        {
          "name": "_amount",
          "type": "uint256"
        }
      ],
      "name": "withdraw",
      "outputs": [],
      "payable": false,
      "stateMutability": "nonpayable",
      "type": "function"
    },
    {
      "constant": false,
      "inputs": [
        {
          "name": "_amount",
          "type": "uint256"
        }
      ],
      "name": "releaseBond",
      "outputs": [],
      "payable": false,
      "stateMutability": "nonpayable",
      "type": "function"
    },
    {
      "constant": true,
      "inputs": [],
      "name": "beneficiary",
      "outputs": [
        {
          "name": "",
          "type": "address"
        }
      ],
      "payable": false,
      "stateMutability": "view",
      "type": "function"
    },
    {
      "constant": false,
      "inputs": [],
      "name": "dissolve",
      "outputs": [],
      "payable": false,
      "stateMutability": "nonpayable",
      "type": "function"
    },
    {
      "constant": true,
      "inputs": [
        {
          "name": "_bonded",
          "type": "address"
        }
      ],
      "name": "availableBond",
      "outputs": [
        {
          "name": "",
          "type": "uint256"
        }
      ],
      "payable": false,
      "stateMutability": "view",
      "type": "function"
    },
    {
      "constant": true,
      "inputs": [
        {
          "name": "_bonded",
          "type": "address"
        }
      ],
      "name": "isBonded",
      "outputs": [
        {
          "name": "",
          "type": "bool"
        }
      ],
      "payable": false,
      "stateMutability": "view",
      "type": "function"
    },
    {
      "constant": false,
      "inputs": [
        {
          "name": "_bonded",
          "type": "address"
        },
        {
          "name": "_amount",
          "type": "uint256"
        }
      ],
      "name": "unlockBond",
      "outputs": [],
      "payable": false,
      "stateMutability": "nonpayable",
      "type": "function"
    },
    {
      "constant": false,
      "inputs": [],
      "name": "depositBond",
      "outputs": [],
      "payable": true,
      "stateMutability": "payable",
      "type": "function"
    },
    {
      "constant": false,
      "inputs": [
        {
          "name": "_from",
          "type": "address"
        },
        {
          "name": "_amount",
          "type": "uint256"
        },
        {
          "name": "_recipient1",
          "type": "address"
        },
        {
          "name": "_recipient2",
          "type": "address"
        }
      ],
      "name": "distributeBond",
      "outputs": [],
      "payable": false,
      "stateMutability": "nonpayable",
      "type": "function"
    },
    {
      "constant": true,
      "inputs": [
        {
          "name": "",
          "type": "address"
        }
      ],
      "name": "withdrawals",
      "outputs": [
        {
          "name": "",
          "type": "uint256"
        }
      ],
      "payable": false,
      "stateMutability": "view",
      "type": "function"
    },
    {
      "constant": true,
      "inputs": [],
      "name": "registry",
      "outputs": [
        {
          "name": "",
          "type": "address"
        }
      ],
      "payable": false,
      "stateMutability": "view",
      "type": "function"
    },
    {
      "constant": true,
      "inputs": [],
      "name": "owner",
      "outputs": [
        {
          "name": "",
          "type": "address"
        }
      ],
      "payable": false,
      "stateMutability": "view",
      "type": "function"
    },
    {
      "constant": true,
      "inputs": [],
      "name": "bondCount",
      "outputs": [
        {
          "name": "",
          "type": "uint256"
        }
      ],
      "payable": false,
      "stateMutability": "view",
      "type": "function"
    },
    {
      "constant": false,
      "inputs": [
        {
          "name": "_bonded",
          "type": "address"
        },
        {
          "name": "_amount",
          "type": "uint256"
        }
      ],
      "name": "lockBond",
      "outputs": [],
      "payable": false,
      "stateMutability": "nonpayable",
      "type": "function"
    },
    {
      "constant": false,
      "inputs": [
        {
          "name": "newOwner",
          "type": "address"
        }
      ],
      "name": "transferOwnership",
      "outputs": [],
      "payable": false,
      "stateMutability": "nonpayable",
      "type": "function"
    },
    {
      "constant": true,
      "inputs": [
        {
          "name": "",
          "type": "address"
        }
      ],
      "name": "bonds",
      "outputs": [
        {
          "name": "balance",
          "type": "uint256"
        },
        {
          "name": "lockedAmount",
          "type": "uint256"
        }
      ],
      "payable": false,
      "stateMutability": "view",
      "type": "function"
    },
    {
      "inputs": [
        {
          "name": "_registry",
          "type": "address"
        },
        {
          "name": "_beneficiary",
          "type": "address"
        }
      ],
      "payable": false,
      "stateMutability": "nonpayable",
      "type": "constructor"
    },
    {
      "anonymous": false,
      "inputs": [
        {
          "indexed": false,
          "name": "bonded",
          "type": "address"
        },
        {
          "indexed": false,
          "name": "amount",
          "type": "uint256"
        }
      ],
      "name": "BondDeposited",
      "type": "event"
    },
    {
      "anonymous": false,
      "inputs": [
        {
          "indexed": false,
          "name": "bonded",
          "type": "address"
        },
        {
          "indexed": false,
          "name": "amount",
          "type": "uint256"
        }
      ],
      "name": "BondReleased",
      "type": "event"
    },
    {
      "anonymous": false,
      "inputs": [
        {
          "indexed": false,
          "name": "bonded",
          "type": "address"
        },
        {
          "indexed": false,
          "name": "amount",
          "type": "uint256"
        }
      ],
      "name": "BondWithdrawn",
      "type": "event"
    },
    {
      "anonymous": false,
      "inputs": [
        {
          "indexed": false,
          "name": "bonded",
          "type": "address"
        },
        {
          "indexed": false,
          "name": "amount",
          "type": "uint256"
        }
      ],
      "name": "BondLocked",
      "type": "event"
    },
    {
      "anonymous": false,
      "inputs": [
        {
          "indexed": false,
          "name": "bonded",
          "type": "address"
        },
        {
          "indexed": false,
          "name": "amount",
          "type": "uint256"
        }
      ],
      "name": "BondUnlocked",
      "type": "event"
    },
    {
      "anonymous": false,
      "inputs": [
        {
          "indexed": false,
          "name": "bonded",
          "type": "address"
        },
        {
          "indexed": false,
          "name": "amount",
          "type": "uint256"
        },
        {
          "indexed": false,
          "name": "recipient1",
          "type": "address"
        },
        {
          "indexed": false,
          "name": "recipient2",
          "type": "address"
        }
      ],
      "name": "BondDistributed",
      "type": "event"
    },
    {
      "anonymous": false,
      "inputs": [
        {
          "indexed": true,
          "name": "previousOwner",
          "type": "address"
        },
        {
          "indexed": true,
          "name": "newOwner",
          "type": "address"
        }
      ],
      "name": "OwnershipTransferred",
      "type": "event"
    }
  ],
  "bytecode": "0x6060604052341561000f57600080fd5b6040516040806115b683398101604052808051906020019091908051906020019091905050336000806101000a81548173ffffffffffffffffffffffffffffffffffffffff021916908373ffffffffffffffffffffffffffffffffffffffff16021790555081600160006101000a81548173ffffffffffffffffffffffffffffffffffffffff021916908373ffffffffffffffffffffffffffffffffffffffff16021790555080600260006101000a81548173ffffffffffffffffffffffffffffffffffffffff021916908373ffffffffffffffffffffffffffffffffffffffff16021790555050506114af806101076000396000f3006060604052600436106100e6576000357c0100000000000000000000000000000000000000000000000000000000900463ffffffff1680632e1a7d4d146100eb57806334706ecf1461010e57806338af3eed146101315780633bef8a3a146101865780633cfe6cd21461019b5780634aa5e885146101e8578063595d335014610239578063741b3c391461027b57806378d7f904146102855780637a9262a2146103055780637b103999146103525780638da5cb5b146103a75780638edd4d24146103fc578063ca7a285f14610425578063f2fde38b14610467578063fe10d774146104a0575b600080fd5b34156100f657600080fd5b61010c60048080359060200190919050506104f4565b005b341561011957600080fd5b61012f60048080359060200190919050506106c6565b005b341561013c57600080fd5b610144610947565b604051808273ffffffffffffffffffffffffffffffffffffffff1673ffffffffffffffffffffffffffffffffffffffff16815260200191505060405180910390f35b341561019157600080fd5b61019961096d565b005b34156101a657600080fd5b6101d2600480803573ffffffffffffffffffffffffffffffffffffffff16906020019091905050610a13565b6040518082815260200191505060405180910390f35b34156101f357600080fd5b61021f600480803573ffffffffffffffffffffffffffffffffffffffff16906020019091905050610aa3565b604051808215151515815260200191505060405180910390f35b341561024457600080fd5b610279600480803573ffffffffffffffffffffffffffffffffffffffff16906020019091908035906020019091905050610af2565b005b610283610ca5565b005b341561029057600080fd5b610303600480803573ffffffffffffffffffffffffffffffffffffffff1690602001909190803590602001909190803573ffffffffffffffffffffffffffffffffffffffff1690602001909190803573ffffffffffffffffffffffffffffffffffffffff16906020019091905050610dce565b005b341561031057600080fd5b61033c600480803573ffffffffffffffffffffffffffffffffffffffff169060200190919050506110f1565b6040518082815260200191505060405180910390f35b341561035d57600080fd5b610365611109565b604051808273ffffffffffffffffffffffffffffffffffffffff1673ffffffffffffffffffffffffffffffffffffffff16815260200191505060405180910390f35b34156103b257600080fd5b6103ba61112f565b604051808273ffffffffffffffffffffffffffffffffffffffff1673ffffffffffffffffffffffffffffffffffffffff16815260200191505060405180910390f35b341561040757600080fd5b61040f611154565b6040518082815260200191505060405180910390f35b341561043057600080fd5b610465600480803573ffffffffffffffffffffffffffffffffffffffff1690602001909190803590602001909190505061115a565b005b341561047257600080fd5b61049e600480803573ffffffffffffffffffffffffffffffffffffffff1690602001909190505061130a565b005b34156104ab57600080fd5b6104d7600480803573ffffffffffffffffffffffffffffffffffffffff1690602001909190505061145f565b604051808381526020018281526020019250505060405180910390f35b80600560003373ffffffffffffffffffffffffffffffffffffffff1673ffffffffffffffffffffffffffffffffffffffff168152602001908152602001600020541015151561054257600080fd5b80600560003373ffffffffffffffffffffffffffffffffffffffff1673ffffffffffffffffffffffffffffffffffffffff168152602001908152602001600020600082825403925050819055503373ffffffffffffffffffffffffffffffffffffffff166108fc829081150290604051600060405180830381858888f1935050505015156105cc57fe5b7f0d41118e36df44efb77a471fc49fb9c0be0406d802ef95520e9fbf606e65b4553382604051808373ffffffffffffffffffffffffffffffffffffffff1673ffffffffffffffffffffffffffffffffffffffff1681526020018281526020019250505060405180910390a16000600560003373ffffffffffffffffffffffffffffffffffffffff1673ffffffffffffffffffffffffffffffffffffffff1681526020019081526020016000205414156106c357600560003373ffffffffffffffffffffffffffffffffffffffff1673ffffffffffffffffffffffffffffffffffffffff168152602001908152602001600020600090555b50565b60008060006106d433610aa3565b15156106df57600080fd5b600360003373ffffffffffffffffffffffffffffffffffffffff1673ffffffffffffffffffffffffffffffffffffffff168152602001908152602001600020600101549250600360003373ffffffffffffffffffffffffffffffffffffffff1673ffffffffffffffffffffffffffffffffffffffff168152602001908152602001600020600001549150600090508183101561077b5782820390505b80841115151561078a57600080fd5b83600360003373ffffffffffffffffffffffffffffffffffffffff1673ffffffffffffffffffffffffffffffffffffffff1681526020019081526020016000206000016000828254039250508190555083600560003373ffffffffffffffffffffffffffffffffffffffff1673ffffffffffffffffffffffffffffffffffffffff168152602001908152602001600020600082825401925050819055507f60b8ef4216791426b3d7acfb0b6d11a400872350afd70a3ce5ebf62bea7cb0d43385604051808373ffffffffffffffffffffffffffffffffffffffff1673ffffffffffffffffffffffffffffffffffffffff1681526020018281526020019250505060405180910390a16000600360003373ffffffffffffffffffffffffffffffffffffffff1673ffffffffffffffffffffffffffffffffffffffff16815260200190815260200160002060000154141561094157600360003373ffffffffffffffffffffffffffffffffffffffff1673ffffffffffffffffffffffffffffffffffffffff1681526020019081526020016000206000808201600090556001820160009055505060016004600082825403925050819055505b50505050565b600260009054906101000a900473ffffffffffffffffffffffffffffffffffffffff1681565b6000809054906101000a900473ffffffffffffffffffffffffffffffffffffffff1673ffffffffffffffffffffffffffffffffffffffff163373ffffffffffffffffffffffffffffffffffffffff161415156109c857600080fd5b60006004541415156109d957600080fd5b6000809054906101000a900473ffffffffffffffffffffffffffffffffffffffff1673ffffffffffffffffffffffffffffffffffffffff16ff5b6000600360008373ffffffffffffffffffffffffffffffffffffffff1673ffffffffffffffffffffffffffffffffffffffff16815260200190815260200160002060010154600360008473ffffffffffffffffffffffffffffffffffffffff1673ffffffffffffffffffffffffffffffffffffffff16815260200190815260200160002060000154039050919050565b600080600360008473ffffffffffffffffffffffffffffffffffffffff1673ffffffffffffffffffffffffffffffffffffffff1681526020019081526020016000206000015414159050919050565b600260009054906101000a900473ffffffffffffffffffffffffffffffffffffffff1673ffffffffffffffffffffffffffffffffffffffff163373ffffffffffffffffffffffffffffffffffffffff16141515610b4e57600080fd5b600360008373ffffffffffffffffffffffffffffffffffffffff1673ffffffffffffffffffffffffffffffffffffffff16815260200190815260200160002060010154811115610be5576000600360008473ffffffffffffffffffffffffffffffffffffffff1673ffffffffffffffffffffffffffffffffffffffff16815260200190815260200160002060010181905550610c36565b80600360008473ffffffffffffffffffffffffffffffffffffffff1673ffffffffffffffffffffffffffffffffffffffff168152602001908152602001600020600101600082825403925050819055505b7f1ceab64053cad6d92ea3504e273effdf7a1b1006f7e8506741551d4f05bc74a68282604051808373ffffffffffffffffffffffffffffffffffffffff1673ffffffffffffffffffffffffffffffffffffffff1681526020018281526020019250505060405180910390a15050565b600034111515610cb457600080fd5b6000600360003373ffffffffffffffffffffffffffffffffffffffff1673ffffffffffffffffffffffffffffffffffffffff168152602001908152602001600020600001541415610d115760016004600082825401925050819055505b34600360003373ffffffffffffffffffffffffffffffffffffffff1673ffffffffffffffffffffffffffffffffffffffff168152602001908152602001600020600001600082825401925050819055507f8ed8c6869618197b68315ade66e75ed3906c97b111fa3ab81e5760046825c7db3334604051808373ffffffffffffffffffffffffffffffffffffffff1673ffffffffffffffffffffffffffffffffffffffff1681526020018281526020019250505060405180910390a1565b6000600260009054906101000a900473ffffffffffffffffffffffffffffffffffffffff1673ffffffffffffffffffffffffffffffffffffffff163373ffffffffffffffffffffffffffffffffffffffff16141515610e2c57600080fd5b600360008673ffffffffffffffffffffffffffffffffffffffff1673ffffffffffffffffffffffffffffffffffffffff168152602001908152602001600020600001548411151515610e7d57600080fd5b600360008673ffffffffffffffffffffffffffffffffffffffff1673ffffffffffffffffffffffffffffffffffffffff168152602001908152602001600020600101548411151515610ece57600080fd5b83600360008773ffffffffffffffffffffffffffffffffffffffff1673ffffffffffffffffffffffffffffffffffffffff1681526020019081526020016000206000016000828254039250508190555083600360008773ffffffffffffffffffffffffffffffffffffffff1673ffffffffffffffffffffffffffffffffffffffff16815260200190815260200160002060010160008282540392505081905550600284811515610f7a57fe5b04905080600560008573ffffffffffffffffffffffffffffffffffffffff1673ffffffffffffffffffffffffffffffffffffffff1681526020019081526020016000206000828254019250508190555080600560008473ffffffffffffffffffffffffffffffffffffffff1673ffffffffffffffffffffffffffffffffffffffff168152602001908152602001600020600082825401925050819055507fb625c6109939a200d5381286f44a715c4e45a5adfdefe33b0339780069ea3b1c85858585604051808573ffffffffffffffffffffffffffffffffffffffff1673ffffffffffffffffffffffffffffffffffffffff1681526020018481526020018373ffffffffffffffffffffffffffffffffffffffff1673ffffffffffffffffffffffffffffffffffffffff1681526020018273ffffffffffffffffffffffffffffffffffffffff1673ffffffffffffffffffffffffffffffffffffffff16815260200194505050505060405180910390a15050505050565b60056020528060005260406000206000915090505481565b600160009054906101000a900473ffffffffffffffffffffffffffffffffffffffff1681565b6000809054906101000a900473ffffffffffffffffffffffffffffffffffffffff1681565b60045481565b600260009054906101000a900473ffffffffffffffffffffffffffffffffffffffff1673ffffffffffffffffffffffffffffffffffffffff163373ffffffffffffffffffffffffffffffffffffffff161415156111b657600080fd5b600360008373ffffffffffffffffffffffffffffffffffffffff1673ffffffffffffffffffffffffffffffffffffffff1681526020019081526020016000206000015481600360008573ffffffffffffffffffffffffffffffffffffffff1673ffffffffffffffffffffffffffffffffffffffff16815260200190815260200160002060010154011115151561124b57600080fd5b80600360008473ffffffffffffffffffffffffffffffffffffffff1673ffffffffffffffffffffffffffffffffffffffff168152602001908152602001600020600101600082825401925050819055507ff6a4fac3c715c43d37e594d3f60bb5e3782af5a2aac2783711964a70277b60588282604051808373ffffffffffffffffffffffffffffffffffffffff1673ffffffffffffffffffffffffffffffffffffffff1681526020018281526020019250505060405180910390a15050565b6000809054906101000a900473ffffffffffffffffffffffffffffffffffffffff1673ffffffffffffffffffffffffffffffffffffffff163373ffffffffffffffffffffffffffffffffffffffff1614151561136557600080fd5b600073ffffffffffffffffffffffffffffffffffffffff168173ffffffffffffffffffffffffffffffffffffffff16141515156113a157600080fd5b8073ffffffffffffffffffffffffffffffffffffffff166000809054906101000a900473ffffffffffffffffffffffffffffffffffffffff1673ffffffffffffffffffffffffffffffffffffffff167f8be0079c531659141344cd1fd0a4f28419497f9722a3daafe3b4186f6b6457e060405160405180910390a3806000806101000a81548173ffffffffffffffffffffffffffffffffffffffff021916908373ffffffffffffffffffffffffffffffffffffffff16021790555050565b600360205280600052604060002060009150905080600001549080600101549050825600a165627a7a723058200f40df91a72ad3971d50c2b463c5a60b2b1e33ae0868329f448ffc471d115b150029",
  "source": "// Part of the Proven suite of software\n// Copyright © 2017 \"The Partnership\" (Ethereum 0x12B0621D90c69867957A836d677C64c46EC4291D)\n\npragma solidity ^0.4.18;\n\nimport \"zeppelin-solidity/contracts/ownership/Ownable.sol\";\nimport \"./BondHolderRegistry.sol\";\n\n\ncontract BondHolder is Ownable {\n\n  BondHolderRegistry public registry;\n\n  /// The address for whom we are holding bonds\n  address public beneficiary;\n\n  mapping(address => Bond) public bonds;\n  uint public bondCount;\n\n  mapping(address => uint) public withdrawals;\n\n  struct Bond {\n    uint balance;\n    uint lockedAmount;\n  }\n\n  event BondDeposited(address bonded, uint amount);\n  event BondReleased(address bonded, uint amount);\n  event BondWithdrawn(address bonded, uint amount);\n  event BondLocked(address bonded, uint amount);\n  event BondUnlocked(address bonded, uint amount);\n  event BondDistributed(address bonded, uint amount, address recipient1, address recipient2);\n\n  modifier onlyBeneficiary() {\n    require(msg.sender == beneficiary);\n    _;\n  }\n\n  modifier onlyBonded() {\n    require(isBonded(msg.sender));\n    _;\n  }\n\n  modifier onlyWithNoBonds() {\n    require(bondCount == 0);\n    _;\n  }\n\n  function BondHolder(address _registry, address _beneficiary) public {\n    registry = BondHolderRegistry(_registry);\n    beneficiary = _beneficiary;\n  }\n\n  function withdraw(uint _amount) public {\n\n    require(withdrawals[msg.sender] >= _amount);\n\n    withdrawals[msg.sender] -= _amount;\n\n    assert(msg.sender.send(_amount));\n\n    BondWithdrawn(msg.sender, _amount);\n\n    if (withdrawals[msg.sender] == 0)\n      delete withdrawals[msg.sender];\n  }\n\n  function depositBond() public payable {\n    require(msg.value > 0);\n\n    if (bonds[msg.sender].balance == 0)\n      bondCount += 1;\n\n    bonds[msg.sender].balance += msg.value;\n\n    BondDeposited(msg.sender, msg.value);\n  }\n\n  function releaseBond(uint _amount) public onlyBonded {\n\n    var lockedAmount = bonds[msg.sender].lockedAmount;\n    var balance = bonds[msg.sender].balance;\n    uint available = 0;\n    if (lockedAmount < balance) {\n      available = balance - lockedAmount;\n    }\n\n    require(_amount <= available);\n\n    bonds[msg.sender].balance -= _amount;\n    withdrawals[msg.sender] += _amount;\n\n    BondReleased(msg.sender, _amount);\n\n    if (bonds[msg.sender].balance == 0) {\n      delete bonds[msg.sender];\n      bondCount -= 1;\n    }\n  }\n\n  function lockBond(address _bonded, uint _amount) public onlyBeneficiary {\n\n    // cannot lock more than bonded has on deposit\n    require((bonds[_bonded].lockedAmount + _amount) <= bonds[_bonded].balance);\n\n    bonds[_bonded].lockedAmount += _amount;\n\n    BondLocked(_bonded, _amount);\n  }\n\n  function unlockBond(address _bonded, uint _amount) public onlyBeneficiary {\n\n    if (_amount > bonds[_bonded].lockedAmount) {\n      bonds[_bonded].lockedAmount = 0;\n    } else {\n      bonds[_bonded].lockedAmount -= _amount;\n    }\n\n    BondUnlocked(_bonded, _amount);\n  }\n\n  /// Distributes an amount from a bondee account to 2 recipients, split evenly\n  //\n  // Only callable by the beneficiary.\n  function distributeBond(address _from, uint _amount, address _recipient1, address _recipient2) public onlyBeneficiary {\n\n    // cannot distribute funds that don't exist\n    require(_amount <= bonds[_from].balance);\n\n    // sanity check on locked amount\n    require(_amount <= bonds[_from].lockedAmount);\n\n    // remove bond from bondee\n    bonds[_from].balance -= _amount;\n    bonds[_from].lockedAmount -= _amount;\n\n    // distribute bond\n    uint amountToDistribute = _amount / 2;\n    withdrawals[_recipient1] += amountToDistribute;\n    withdrawals[_recipient2] += amountToDistribute;\n\n    BondDistributed(_from, _amount, _recipient1, _recipient2);\n  }\n\n  function availableBond(address _bonded) public view returns (uint) {\n    return bonds[_bonded].balance - bonds[_bonded].lockedAmount;\n  }\n\n  function isBonded(address _bonded) public view returns (bool) {\n    return bonds[_bonded].balance != 0;\n  }\n\n  function dissolve() public onlyOwner onlyWithNoBonds {\n    selfdestruct(owner);\n  }\n}\n",
  "sourcePath": "/home/cleduc/src/proven-eth/contracts/BondHolder.sol",
  "compiler": {
    "name": "solc",
    "version": "0.4.18+commit.9cf6e910.Emscripten.clang"
  },
  "schemaVersion": "1.0.1",
  "updatedAt": "2017-12-14T19:35:36.230Z"
}