{
  "contractName": "BondHolderRegistry",
  "abi": [
    {
      "constant": true,
      "inputs": [],
      "name": "bondHolder",
      "outputs": [
        {
          "name": "",
          "type": "address"
        }
      ],
      "payable": false,
      "stateMutability": "view",
      "type": "function"
    },
    {
      "constant": true,
      "inputs": [],
      "name": "db",
      "outputs": [
        {
          "name": "",
          "type": "address"
        }
      ],
      "payable": false,
      "stateMutability": "view",
      "type": "function"
    },
    {
      "constant": false,
      "inputs": [
        {
          "name": "_db",
          "type": "address"
        }
      ],
      "name": "setDB",
      "outputs": [],
      "payable": false,
      "stateMutability": "nonpayable",
      "type": "function"
    },
    {
      "constant": true,
      "inputs": [],
      "name": "owner",
      "outputs": [
        {
          "name": "",
          "type": "address"
        }
      ],
      "payable": false,
      "stateMutability": "view",
      "type": "function"
    },
    {
      "constant": false,
      "inputs": [
        {
          "name": "_bondHolder",
          "type": "address"
        }
      ],
      "name": "setBondHolder",
      "outputs": [],
      "payable": false,
      "stateMutability": "nonpayable",
      "type": "function"
    },
    {
      "constant": false,
      "inputs": [
        {
          "name": "newOwner",
          "type": "address"
        }
      ],
      "name": "transferOwnership",
      "outputs": [],
      "payable": false,
      "stateMutability": "nonpayable",
      "type": "function"
    },
    {
      "anonymous": false,
      "inputs": [
        {
          "indexed": true,
          "name": "previousOwner",
          "type": "address"
        },
        {
          "indexed": true,
          "name": "newOwner",
          "type": "address"
        }
      ],
      "name": "OwnershipTransferred",
      "type": "event"
    }
  ],
  "bytecode": "0x606060405260008054600160a060020a033316600160a060020a03199091161790556102b8806100306000396000f3006060604052600436106100775763ffffffff7c010000000000000000000000000000000000000000000000000000000060003504166322ed80e8811461007c5780634d655aff146100ab57806365401882146100be5780638da5cb5b146100df578063b60e7877146100f2578063f2fde38b14610111575b600080fd5b341561008757600080fd5b61008f610130565b604051600160a060020a03909116815260200160405180910390f35b34156100b657600080fd5b61008f61013f565b34156100c957600080fd5b6100dd600160a060020a036004351661014e565b005b34156100ea57600080fd5b61008f610198565b34156100fd57600080fd5b6100dd600160a060020a03600435166101a7565b341561011c57600080fd5b6100dd600160a060020a03600435166101f1565b600154600160a060020a031681565b600254600160a060020a031681565b60005433600160a060020a0390811691161461016957600080fd5b6002805473ffffffffffffffffffffffffffffffffffffffff1916600160a060020a0392909216919091179055565b600054600160a060020a031681565b60005433600160a060020a039081169116146101c257600080fd5b6001805473ffffffffffffffffffffffffffffffffffffffff1916600160a060020a0392909216919091179055565b60005433600160a060020a0390811691161461020c57600080fd5b600160a060020a038116151561022157600080fd5b600054600160a060020a0380831691167f8be0079c531659141344cd1fd0a4f28419497f9722a3daafe3b4186f6b6457e060405160405180910390a36000805473ffffffffffffffffffffffffffffffffffffffff1916600160a060020a03929092169190911790555600a165627a7a72305820d1bfa314fed4b837ed2e21867a814c19152cab54ef570d8ab807c971785f33080029",
  "source": "// Part of the Proven suite of software\n// Copyright © 2017 \"The Partnership\" (Ethereum 0x12B0621D90c69867957A836d677C64c46EC4291D)\n\npragma solidity ^0.4.18;\n\nimport \"zeppelin-solidity/contracts/ownership/Ownable.sol\";\n\n\ncontract BondHolderRegistry is Ownable {\n\n  address public bondHolder;\n  address public db;\n\n  function setBondHolder(address _bondHolder) public onlyOwner {\n    bondHolder = _bondHolder;\n  }\n\n  function setDB(address _db) public onlyOwner {\n    db = _db;\n  }\n}\n",
  "sourcePath": "/home/cleduc/src/proven-eth/contracts/BondHolderRegistry.sol",
  "compiler": {
    "name": "solc",
    "version": "0.4.18+commit.9cf6e910.Emscripten.clang"
  },
  "schemaVersion": "1.0.1",
  "updatedAt": "2017-12-19T10:52:41.422Z"
}