{
  "contractName": "ProvenRegistry",
  "abi": [
    {
      "constant": true,
      "inputs": [],
      "name": "db",
      "outputs": [
        {
          "name": "",
          "type": "address"
        }
      ],
      "payable": false,
      "stateMutability": "view",
      "type": "function"
    },
    {
      "constant": true,
      "inputs": [],
      "name": "proven",
      "outputs": [
        {
          "name": "",
          "type": "address"
        }
      ],
      "payable": false,
      "stateMutability": "view",
      "type": "function"
    },
    {
      "constant": false,
      "inputs": [
        {
          "name": "_proven",
          "type": "address"
        }
      ],
      "name": "setProven",
      "outputs": [],
      "payable": false,
      "stateMutability": "nonpayable",
      "type": "function"
    },
    {
      "constant": false,
      "inputs": [
        {
          "name": "_db",
          "type": "address"
        }
      ],
      "name": "setDB",
      "outputs": [],
      "payable": false,
      "stateMutability": "nonpayable",
      "type": "function"
    },
    {
      "constant": true,
      "inputs": [],
      "name": "owner",
      "outputs": [
        {
          "name": "",
          "type": "address"
        }
      ],
      "payable": false,
      "stateMutability": "view",
      "type": "function"
    },
    {
      "constant": false,
      "inputs": [
        {
          "name": "newOwner",
          "type": "address"
        }
      ],
      "name": "transferOwnership",
      "outputs": [],
      "payable": false,
      "stateMutability": "nonpayable",
      "type": "function"
    },
    {
      "anonymous": false,
      "inputs": [
        {
          "indexed": true,
          "name": "previousOwner",
          "type": "address"
        },
        {
          "indexed": true,
          "name": "newOwner",
          "type": "address"
        }
      ],
      "name": "OwnershipTransferred",
      "type": "event"
    }
  ],
  "bytecode": "0x606060405260008054600160a060020a033316600160a060020a03199091161790556102b8806100306000396000f3006060604052600436106100775763ffffffff7c01000000000000000000000000000000000000000000000000000000006000350416634d655aff811461007c5780634d94e7f3146100ab5780635cb6c412146100be57806365401882146100df5780638da5cb5b146100fe578063f2fde38b14610111575b600080fd5b341561008757600080fd5b61008f610130565b604051600160a060020a03909116815260200160405180910390f35b34156100b657600080fd5b61008f61013f565b34156100c957600080fd5b6100dd600160a060020a036004351661014e565b005b34156100ea57600080fd5b6100dd600160a060020a0360043516610198565b341561010957600080fd5b61008f6101e2565b341561011c57600080fd5b6100dd600160a060020a03600435166101f1565b600254600160a060020a031681565b600154600160a060020a031681565b60005433600160a060020a0390811691161461016957600080fd5b6001805473ffffffffffffffffffffffffffffffffffffffff1916600160a060020a0392909216919091179055565b60005433600160a060020a039081169116146101b357600080fd5b6002805473ffffffffffffffffffffffffffffffffffffffff1916600160a060020a0392909216919091179055565b600054600160a060020a031681565b60005433600160a060020a0390811691161461020c57600080fd5b600160a060020a038116151561022157600080fd5b600054600160a060020a0380831691167f8be0079c531659141344cd1fd0a4f28419497f9722a3daafe3b4186f6b6457e060405160405180910390a36000805473ffffffffffffffffffffffffffffffffffffffff1916600160a060020a03929092169190911790555600a165627a7a7230582002a5b65ff47fce1a0f3fe12fe3226566e4b59f7f89c393974d6445b0d9689a5a0029",
  "source": "// Part of the Proven suite of software\n// Copyright © 2017 \"The Partnership\" (Ethereum 0x12B0621D90c69867957A836d677C64c46EC4291D)\n\npragma solidity ^0.4.18;\n\nimport \"zeppelin-solidity/contracts/ownership/Ownable.sol\";\n\n\n/// Registry\n/// Allows separation of the contract implementation from the interface so\n/// things like mobile clients only need a single access point, and internal\n/// contracts don't need to store dependents.\ncontract ProvenRegistry is Ownable {\n\n  address public proven;\n  address public db;\n\n  function setProven(address _proven) public onlyOwner {\n    proven = _proven;\n  }\n\n  function setDB(address _db) public onlyOwner {\n    db = _db;\n  }\n}\n",
  "sourcePath": "/home/cleduc/src/proven-eth/contracts/ProvenRegistry.sol",
  "compiler": {
    "name": "solc",
    "version": "0.4.18+commit.9cf6e910.Emscripten.clang"
  },
  "schemaVersion": "1.0.1",
  "updatedAt": "2017-12-18T14:21:44.090Z"
}