{
  "contractName": "ProvenDB",
  "abi": [
    {
      "constant": true,
      "inputs": [
        {
          "name": "",
          "type": "bytes32"
        }
      ],
      "name": "depositions",
      "outputs": [
        {
          "name": "deponent",
          "type": "address"
        },
        {
          "name": "ipfsHash",
          "type": "bytes"
        }
      ],
      "payable": false,
      "stateMutability": "view",
      "type": "function"
    },
    {
      "constant": true,
      "inputs": [
        {
          "name": "_id",
          "type": "bytes32"
        }
      ],
      "name": "getIPFSHash",
      "outputs": [
        {
          "name": "",
          "type": "bytes"
        }
      ],
      "payable": false,
      "stateMutability": "view",
      "type": "function"
    },
    {
      "constant": true,
      "inputs": [
        {
          "name": "_id",
          "type": "bytes32"
        }
      ],
      "name": "getDeponent",
      "outputs": [
        {
          "name": "",
          "type": "address"
        }
      ],
      "payable": false,
      "stateMutability": "view",
      "type": "function"
    },
    {
      "constant": false,
      "inputs": [
        {
          "name": "_deponent",
          "type": "address"
        },
        {
          "name": "_ipfsHash",
          "type": "bytes"
        }
      ],
      "name": "storeDeposition",
      "outputs": [
        {
          "name": "",
          "type": "bytes32"
        }
      ],
      "payable": false,
      "stateMutability": "nonpayable",
      "type": "function"
    },
    {
      "constant": true,
      "inputs": [],
      "name": "registry",
      "outputs": [
        {
          "name": "",
          "type": "address"
        }
      ],
      "payable": false,
      "stateMutability": "view",
      "type": "function"
    },
    {
      "constant": true,
      "inputs": [],
      "name": "owner",
      "outputs": [
        {
          "name": "",
          "type": "address"
        }
      ],
      "payable": false,
      "stateMutability": "view",
      "type": "function"
    },
    {
      "constant": false,
      "inputs": [
        {
          "name": "newOwner",
          "type": "address"
        }
      ],
      "name": "transferOwnership",
      "outputs": [],
      "payable": false,
      "stateMutability": "nonpayable",
      "type": "function"
    },
    {
      "inputs": [
        {
          "name": "_registry",
          "type": "address"
        }
      ],
      "payable": false,
      "stateMutability": "nonpayable",
      "type": "constructor"
    },
    {
      "anonymous": false,
      "inputs": [
        {
          "indexed": false,
          "name": "_deposition",
          "type": "bytes32"
        },
        {
          "indexed": false,
          "name": "_deponent",
          "type": "address"
        },
        {
          "indexed": false,
          "name": "_ipfsHash",
          "type": "bytes"
        }
      ],
      "name": "DepositionStored",
      "type": "event"
    },
    {
      "anonymous": false,
      "inputs": [
        {
          "indexed": true,
          "name": "previousOwner",
          "type": "address"
        },
        {
          "indexed": true,
          "name": "newOwner",
          "type": "address"
        }
      ],
      "name": "OwnershipTransferred",
      "type": "event"
    }
  ],
  "bytecode": "0x6060604052341561000f57600080fd5b60405160208061079e8339810160405280805160008054600160a060020a03338116600160a060020a03199283161790925560018054929093169116179055505061073f8061005f6000396000f3006060604052600436106100825763ffffffff7c01000000000000000000000000000000000000000000000000000000006000350416631de5411681146100875780632ed5ef141461013557806339d9a3ff146101c25780634dbfced9146101f45780637b103999146102655780638da5cb5b14610278578063f2fde38b1461028b575b600080fd5b341561009257600080fd5b61009d6004356102ac565b604051600160a060020a0383168152604060208201818152835460026000196101006001841615020190911604918301829052906060830190849080156101255780601f106100fa57610100808354040283529160200191610125565b820191906000526020600020905b81548152906001019060200180831161010857829003601f168201915b5050935050505060405180910390f35b341561014057600080fd5b61014b6004356102cc565b60405160208082528190810183818151815260200191508051906020019080838360005b8381101561018757808201518382015260200161016f565b50505050905090810190601f1680156101b45780820380516001836020036101000a031916815260200191505b509250505060405180910390f35b34156101cd57600080fd5b6101d8600435610392565b604051600160a060020a03909116815260200160405180910390f35b34156101ff57600080fd5b61025360048035600160a060020a03169060446024803590810190830135806020601f820181900481020160405190810160405281815292919060208401838380828437509496506103ad95505050505050565b60405190815260200160405180910390f35b341561027057600080fd5b6101d8610485565b341561028357600080fd5b6101d8610494565b341561029657600080fd5b6102aa600160a060020a03600435166104a3565b005b60026020526000908152604090208054600160a060020a03169060010182565b6102d4610666565b6002600083600019166000191681526020019081526020016000206001018054600181600116156101000203166002900480601f0160208091040260200160405190810160405280929190818152602001828054600181600116156101000203166002900480156103865780601f1061035b57610100808354040283529160200191610386565b820191906000526020600020905b81548152906001019060200180831161036957829003601f168201915b50505050509050919050565b600090815260026020526040902054600160a060020a031690565b6001546000908190600160a060020a0316634d94e7f382604051602001526040518163ffffffff167c0100000000000000000000000000000000000000000000000000000000028152600401602060405180830381600087803b151561041257600080fd5b6102c65a03f1151561042357600080fd5b50505060405180519050600160a060020a031633600160a060020a031614151561044c57600080fd5b60003643604051808484808284379091019283525050602001915060409050518091039020905061047e81858561053e565b9392505050565b600154600160a060020a031681565b600054600160a060020a031681565b60005433600160a060020a039081169116146104be57600080fd5b600160a060020a03811615156104d357600080fd5b600054600160a060020a0380831691167f8be0079c531659141344cd1fd0a4f28419497f9722a3daafe3b4186f6b6457e060405160405180910390a36000805473ffffffffffffffffffffffffffffffffffffffff1916600160a060020a0392909216919091179055565b6000838152600260205260408120548490600160a060020a03161561056257600080fd5b6000858152600260205260409020805473ffffffffffffffffffffffffffffffffffffffff1916600160a060020a0386161781559150600182018380516105ad929160200190610678565b507fe98bae5e0db7ed47fcfe7ada8aa60fdc2f7f40b1816d20ebc6476daa38f0644b858585604051838152600160a060020a038316602082015260606040820181815290820183818151815260200191508051906020019080838360005b8381101561062357808201518382015260200161060b565b50505050905090810190601f1680156106505780820380516001836020036101000a031916815260200191505b5094505050505060405180910390a15050505050565b60206040519081016040526000815290565b828054600181600116156101000203166002900490600052602060002090601f016020900481019282601f106106b957805160ff19168380011785556106e6565b828001600101855582156106e6579182015b828111156106e65782518255916020019190600101906106cb565b506106f29291506106f6565b5090565b61071091905b808211156106f257600081556001016106fc565b905600a165627a7a72305820f9fd75a9ccf0cd4b55714a1d4b20002154f92cff80d80db0a05e481e51d7e4650029",
  "source": "// Part of the Proven suite of software\n// Copyright © 2017 \"The Partnership\" (Ethereum 0x12B0621D90c69867957A836d677C64c46EC4291D)\n\npragma solidity ^0.4.18;\n\nimport \"zeppelin-solidity/contracts/ownership/Ownable.sol\";\nimport \"./ProvenRegistry.sol\";\n\n\n/// ProvenDB\n/// Back-end storage contract for the Proven app.\n\ncontract ProvenDB is Ownable {\n\n  event DepositionStored(bytes32 _deposition, address _deponent, bytes _ipfsHash);\n\n  ProvenRegistry public registry;\n\n  /// Collection of all depositions\n  mapping(bytes32 => Deposition) public depositions;\n\n  struct Deposition {\n    address deponent;\n    bytes ipfsHash;\n  }\n\n  modifier onlyProven() {\n    require(msg.sender == registry.proven());\n    _;\n  }\n\n  modifier onlyNewReceipt(bytes32 _id) {\n    require(depositions[_id].deponent == 0);\n    _;\n  }\n\n  /// Constructor\n  function ProvenDB(address _registry) public {\n    registry = ProvenRegistry(_registry);\n  }\n\n  function getDeponent(bytes32 _id) public view returns (address) {\n    return depositions[_id].deponent;\n  }\n\n  function getIPFSHash(bytes32 _id) public view returns (bytes) {\n    return depositions[_id].ipfsHash;\n  }\n\n  function storeDeposition(address _deponent, bytes _ipfsHash) public onlyProven returns (bytes32) {\n\n    // generate hash to send back to caller\n    bytes32 id = keccak256(msg.data, block.number);\n\n    store(id, _deponent, _ipfsHash);\n\n    return id;\n  }\n\n  function store(bytes32 _id, address _deponent, bytes _ipfsHash) internal onlyNewReceipt(_id) {\n\n    var deposition = depositions[_id];\n\n    deposition.deponent = _deponent;\n    deposition.ipfsHash = _ipfsHash;\n\n    DepositionStored(_id, _deponent, _ipfsHash);\n  }\n}\n",
  "sourcePath": "/home/cleduc/src/proven-eth/contracts/ProvenDB.sol",
  "compiler": {
    "name": "solc",
    "version": "0.4.18+commit.9cf6e910.Emscripten.clang"
  },
  "schemaVersion": "1.0.1",
  "updatedAt": "2017-12-18T14:21:44.098Z"
}