{
  "contractName": "Proven",
  "abi": [
    {
      "constant": false,
      "inputs": [
        {
          "name": "_ipfsHash",
          "type": "bytes"
        }
      ],
      "name": "publishDeposition",
      "outputs": [
        {
          "name": "",
          "type": "bytes32"
        }
      ],
      "payable": false,
      "stateMutability": "nonpayable",
      "type": "function"
    },
    {
      "constant": true,
      "inputs": [],
      "name": "registry",
      "outputs": [
        {
          "name": "",
          "type": "address"
        }
      ],
      "payable": false,
      "stateMutability": "view",
      "type": "function"
    },
    {
      "constant": true,
      "inputs": [],
      "name": "owner",
      "outputs": [
        {
          "name": "",
          "type": "address"
        }
      ],
      "payable": false,
      "stateMutability": "view",
      "type": "function"
    },
    {
      "constant": false,
      "inputs": [
        {
          "name": "_owner",
          "type": "address"
        },
        {
          "name": "_ipfsHash",
          "type": "bytes"
        }
      ],
      "name": "publishDeposition",
      "outputs": [
        {
          "name": "",
          "type": "bytes32"
        }
      ],
      "payable": false,
      "stateMutability": "nonpayable",
      "type": "function"
    },
    {
      "constant": false,
      "inputs": [
        {
          "name": "newOwner",
          "type": "address"
        }
      ],
      "name": "transferOwnership",
      "outputs": [],
      "payable": false,
      "stateMutability": "nonpayable",
      "type": "function"
    },
    {
      "inputs": [
        {
          "name": "_registry",
          "type": "address"
        }
      ],
      "payable": false,
      "stateMutability": "nonpayable",
      "type": "constructor"
    },
    {
      "anonymous": false,
      "inputs": [
        {
          "indexed": false,
          "name": "_deposition",
          "type": "bytes32"
        },
        {
          "indexed": false,
          "name": "_deponent",
          "type": "address"
        },
        {
          "indexed": false,
          "name": "_ipfsHash",
          "type": "bytes"
        }
      ],
      "name": "DepositionPublished",
      "type": "event"
    },
    {
      "anonymous": false,
      "inputs": [
        {
          "indexed": true,
          "name": "previousOwner",
          "type": "address"
        },
        {
          "indexed": true,
          "name": "newOwner",
          "type": "address"
        }
      ],
      "name": "OwnershipTransferred",
      "type": "event"
    }
  ],
  "bytecode": "0x6060604052341561000f57600080fd5b6040516020806104e08339810160405280805160008054600160a060020a03338116600160a060020a0319928316179092556001805492909316911617905550506104818061005f6000396000f3006060604052600436106100535763ffffffff60e060020a6000350416631b504a4f81146100585780637b103999146100bb5780638da5cb5b146100ea578063c36a440a146100fd578063f2fde38b1461015c575b600080fd5b341561006357600080fd5b6100a960046024813581810190830135806020601f8201819004810201604051908101604052818152929190602084018383808284375094965061017d95505050505050565b60405190815260200160405180910390f35b34156100c657600080fd5b6100ce61018f565b604051600160a060020a03909116815260200160405180910390f35b34156100f557600080fd5b6100ce61019e565b341561010857600080fd5b6100a960048035600160a060020a03169060446024803590810190830135806020601f820181900481020160405190810160405281815292919060208401838380828437509496506101ad95505050505050565b341561016757600080fd5b61017b600160a060020a03600435166103ba565b005b600061018933836101ad565b92915050565b600154600160a060020a031681565b600054600160a060020a031681565b60015460009081908190600160a060020a0316634d655aff82604051602001526040518163ffffffff1660e060020a028152600401602060405180830381600087803b15156101fb57600080fd5b6102c65a03f1151561020c57600080fd5b5050506040518051925050600160a060020a038216634dbfced986866000604051602001526040518363ffffffff1660e060020a0281526004018083600160a060020a0316600160a060020a0316815260200180602001828103825283818151815260200191508051906020019080838360005b83811015610298578082015183820152602001610280565b50505050905090810190601f1680156102c55780820380516001836020036101000a031916815260200191505b509350505050602060405180830381600087803b15156102e457600080fd5b6102c65a03f115156102f557600080fd5b5050506040518051905090507fb93df28da3008cdac44b3e0552c7e6f6399917170f3371c54b782059b308bd3e818686604051838152600160a060020a038316602082015260606040820181815290820183818151815260200191508051906020019080838360005b8381101561037657808201518382015260200161035e565b50505050905090810190601f1680156103a35780820380516001836020036101000a031916815260200191505b5094505050505060405180910390a1949350505050565b60005433600160a060020a039081169116146103d557600080fd5b600160a060020a03811615156103ea57600080fd5b600054600160a060020a0380831691167f8be0079c531659141344cd1fd0a4f28419497f9722a3daafe3b4186f6b6457e060405160405180910390a36000805473ffffffffffffffffffffffffffffffffffffffff1916600160a060020a03929092169190911790555600a165627a7a72305820550291c133a9d617c4afdcb5f17beed0ae0b6d04cbfdd905a41ac01e778f74c40029",
  "source": "// Part of the Proven suite of software\n// Copyright © 2017 \"The Partnership\" (Ethereum 0x12B0621D90c69867957A836d677C64c46EC4291D)\n\npragma solidity ^0.4.18;\n\nimport \"zeppelin-solidity/contracts/ownership/Ownable.sol\";\nimport \"./ProvenRegistry.sol\";\nimport \"./ProvenDB.sol\";\n\n\n/// Proven\n/// Allows callers to prove the provenance of a chain of hashed files stored in IPFS.\ncontract Proven is Ownable {\n\n  ProvenRegistry public registry;\n\n  /// Logged when this occurs\n  event DepositionPublished(bytes32 _deposition, address _deponent, bytes _ipfsHash);\n\n  /// Constructor must be passed a backend\n  function Proven(address _registry) public {\n    registry = ProvenRegistry(_registry);\n  }\n\n  /// Publish a deposition\n  function publishDeposition(bytes _ipfsHash) public returns (bytes32) {\n    return publishDeposition(msg.sender, _ipfsHash);\n  }\n\n  function publishDeposition(address _owner, bytes _ipfsHash) public returns (bytes32) {\n\n    ProvenDB db = ProvenDB(registry.db());\n    bytes32 id = db.storeDeposition(_owner, _ipfsHash);\n\n    DepositionPublished(id, _owner, _ipfsHash);\n\n    return id;\n  }\n}\n",
  "sourcePath": "/home/cleduc/src/proven-eth/contracts/Proven.sol",
  "compiler": {
    "name": "solc",
    "version": "0.4.18+commit.9cf6e910.Emscripten.clang"
  },
  "schemaVersion": "1.0.1",
  "updatedAt": "2017-12-18T14:21:44.088Z"
}