{
  "contractName": "ProvenDB",
  "abi": [
    {
      "constant": true,
      "inputs": [
        {
          "name": "",
          "type": "bytes32"
        }
      ],
      "name": "depositions",
      "outputs": [
        {
          "name": "deponent",
          "type": "address"
        },
        {
          "name": "ipfsHash",
          "type": "bytes"
        }
      ],
      "payable": false,
      "stateMutability": "view",
      "type": "function"
    },
    {
      "constant": true,
      "inputs": [
        {
          "name": "_id",
          "type": "bytes32"
        }
      ],
      "name": "getIPFSHash",
      "outputs": [
        {
          "name": "",
          "type": "bytes"
        }
      ],
      "payable": false,
      "stateMutability": "view",
      "type": "function"
    },
    {
      "constant": true,
      "inputs": [
        {
          "name": "_id",
          "type": "bytes32"
        }
      ],
      "name": "getDeponent",
      "outputs": [
        {
          "name": "",
          "type": "address"
        }
      ],
      "payable": false,
      "stateMutability": "view",
      "type": "function"
    },
    {
      "constant": false,
      "inputs": [
        {
          "name": "_deponent",
          "type": "address"
        },
        {
          "name": "_ipfsHash",
          "type": "bytes"
        }
      ],
      "name": "storeDeposition",
      "outputs": [
        {
          "name": "",
          "type": "bytes32"
        }
      ],
      "payable": false,
      "stateMutability": "nonpayable",
      "type": "function"
    },
    {
      "constant": true,
      "inputs": [],
      "name": "registry",
      "outputs": [
        {
          "name": "",
          "type": "address"
        }
      ],
      "payable": false,
      "stateMutability": "view",
      "type": "function"
    },
    {
      "constant": true,
      "inputs": [],
      "name": "owner",
      "outputs": [
        {
          "name": "",
          "type": "address"
        }
      ],
      "payable": false,
      "stateMutability": "view",
      "type": "function"
    },
    {
      "constant": false,
      "inputs": [
        {
          "name": "newOwner",
          "type": "address"
        }
      ],
      "name": "transferOwnership",
      "outputs": [],
      "payable": false,
      "stateMutability": "nonpayable",
      "type": "function"
    },
    {
      "inputs": [
        {
          "name": "_registry",
          "type": "address"
        }
      ],
      "payable": false,
      "stateMutability": "nonpayable",
      "type": "constructor"
    },
    {
      "anonymous": false,
      "inputs": [
        {
          "indexed": false,
          "name": "_deposition",
          "type": "bytes32"
        },
        {
          "indexed": false,
          "name": "_deponent",
          "type": "address"
        },
        {
          "indexed": false,
          "name": "_ipfsHash",
          "type": "bytes"
        }
      ],
      "name": "DepositionStored",
      "type": "event"
    },
    {
      "anonymous": false,
      "inputs": [
        {
          "indexed": true,
          "name": "previousOwner",
          "type": "address"
        },
        {
          "indexed": true,
          "name": "newOwner",
          "type": "address"
        }
      ],
      "name": "OwnershipTransferred",
      "type": "event"
    }
  ],
  "bytecode": "0x6060604052341561000f57600080fd5b604051602080610b7483398101604052808051906020019091905050336000806101000a81548173ffffffffffffffffffffffffffffffffffffffff021916908373ffffffffffffffffffffffffffffffffffffffff16021790555080600160006101000a81548173ffffffffffffffffffffffffffffffffffffffff021916908373ffffffffffffffffffffffffffffffffffffffff16021790555050610ab8806100bc6000396000f300606060405260043610610083576000357c0100000000000000000000000000000000000000000000000000000000900463ffffffff1680631de54116146100885780632ed5ef141461017857806339d9a3ff146102185780634dbfced91461027f5780637b103999146103175780638da5cb5b1461036c578063f2fde38b146103c1575b600080fd5b341561009357600080fd5b6100ad6004808035600019169060200190919050506103fa565b604051808373ffffffffffffffffffffffffffffffffffffffff1673ffffffffffffffffffffffffffffffffffffffff168152602001806020018281038252838181546001816001161561010002031660029004815260200191508054600181600116156101000203166002900480156101685780601f1061013d57610100808354040283529160200191610168565b820191906000526020600020905b81548152906001019060200180831161014b57829003601f168201915b5050935050505060405180910390f35b341561018357600080fd5b61019d60048080356000191690602001909190505061043d565b6040518080602001828103825283818151815260200191508051906020019080838360005b838110156101dd5780820151818401526020810190506101c2565b50505050905090810190601f16801561020a5780820380516001836020036101000a031916815260200191505b509250505060405180910390f35b341561022357600080fd5b61023d600480803560001916906020019091905050610503565b604051808273ffffffffffffffffffffffffffffffffffffffff1673ffffffffffffffffffffffffffffffffffffffff16815260200191505060405180910390f35b341561028a57600080fd5b6102f9600480803573ffffffffffffffffffffffffffffffffffffffff1690602001909190803590602001908201803590602001908080601f0160208091040260200160405190810160405280939291908181526020018383808284378201915050505050509190505061054b565b60405180826000191660001916815260200191505060405180910390f35b341561032257600080fd5b61032a61066d565b604051808273ffffffffffffffffffffffffffffffffffffffff1673ffffffffffffffffffffffffffffffffffffffff16815260200191505060405180910390f35b341561037757600080fd5b61037f610693565b604051808273ffffffffffffffffffffffffffffffffffffffff1673ffffffffffffffffffffffffffffffffffffffff16815260200191505060405180910390f35b34156103cc57600080fd5b6103f8600480803573ffffffffffffffffffffffffffffffffffffffff169060200190919050506106b8565b005b60026020528060005260406000206000915090508060000160009054906101000a900473ffffffffffffffffffffffffffffffffffffffff169080600101905082565b6104456109d3565b6002600083600019166000191681526020019081526020016000206001018054600181600116156101000203166002900480601f0160208091040260200160405190810160405280929190818152602001828054600181600116156101000203166002900480156104f75780601f106104cc576101008083540402835291602001916104f7565b820191906000526020600020905b8154815290600101906020018083116104da57829003601f168201915b50505050509050919050565b600060026000836000191660001916815260200190815260200160002060000160009054906101000a900473ffffffffffffffffffffffffffffffffffffffff169050919050565b600080600160009054906101000a900473ffffffffffffffffffffffffffffffffffffffff1673ffffffffffffffffffffffffffffffffffffffff16634d94e7f36000604051602001526040518163ffffffff167c0100000000000000000000000000000000000000000000000000000000028152600401602060405180830381600087803b15156105dc57600080fd5b6102c65a03f115156105ed57600080fd5b5050506040518051905073ffffffffffffffffffffffffffffffffffffffff163373ffffffffffffffffffffffffffffffffffffffff1614151561063057600080fd5b6000364360405180848480828437820191505082815260200193505050506040518091039020905061066381858561080d565b8091505092915050565b600160009054906101000a900473ffffffffffffffffffffffffffffffffffffffff1681565b6000809054906101000a900473ffffffffffffffffffffffffffffffffffffffff1681565b6000809054906101000a900473ffffffffffffffffffffffffffffffffffffffff1673ffffffffffffffffffffffffffffffffffffffff163373ffffffffffffffffffffffffffffffffffffffff1614151561071357600080fd5b600073ffffffffffffffffffffffffffffffffffffffff168173ffffffffffffffffffffffffffffffffffffffff161415151561074f57600080fd5b8073ffffffffffffffffffffffffffffffffffffffff166000809054906101000a900473ffffffffffffffffffffffffffffffffffffffff1673ffffffffffffffffffffffffffffffffffffffff167f8be0079c531659141344cd1fd0a4f28419497f9722a3daafe3b4186f6b6457e060405160405180910390a3806000806101000a81548173ffffffffffffffffffffffffffffffffffffffff021916908373ffffffffffffffffffffffffffffffffffffffff16021790555050565b600083600060026000836000191660001916815260200190815260200160002060000160009054906101000a900473ffffffffffffffffffffffffffffffffffffffff1673ffffffffffffffffffffffffffffffffffffffff1614151561087357600080fd5b6002600086600019166000191681526020019081526020016000209150838260000160006101000a81548173ffffffffffffffffffffffffffffffffffffffff021916908373ffffffffffffffffffffffffffffffffffffffff160217905550828260010190805190602001906108eb9291906109e7565b507fe98bae5e0db7ed47fcfe7ada8aa60fdc2f7f40b1816d20ebc6476daa38f0644b8585856040518084600019166000191681526020018373ffffffffffffffffffffffffffffffffffffffff1673ffffffffffffffffffffffffffffffffffffffff16815260200180602001828103825283818151815260200191508051906020019080838360005b83811015610990578082015181840152602081019050610975565b50505050905090810190601f1680156109bd5780820380516001836020036101000a031916815260200191505b5094505050505060405180910390a15050505050565b602060405190810160405280600081525090565b828054600181600116156101000203166002900490600052602060002090601f016020900481019282601f10610a2857805160ff1916838001178555610a56565b82800160010185558215610a56579182015b82811115610a55578251825591602001919060010190610a3a565b5b509050610a639190610a67565b5090565b610a8991905b80821115610a85576000816000905550600101610a6d565b5090565b905600a165627a7a7230582039f961d6e92881abe73d2d1664509ab5f97c12ccaa66a633f147fdd2b2920c040029",
  "source": "// Part of the Proven suite of software\n// Copyright © 2017 \"The Partnership\" (Ethereum 0x12B0621D90c69867957A836d677C64c46EC4291D)\n\npragma solidity ^0.4.18;\n\nimport \"zeppelin-solidity/contracts/ownership/Ownable.sol\";\nimport \"./ProvenRegistry.sol\";\n\n\n/// ProvenDB\n/// Back-end storage contract for the Proven app.\n\ncontract ProvenDB is Ownable {\n\n  event DepositionStored(bytes32 _deposition, address _deponent, bytes _ipfsHash);\n\n  ProvenRegistry public registry;\n\n  /// Collection of all depositions\n  mapping(bytes32 => Deposition) public depositions;\n\n  struct Deposition {\n    address deponent;\n    bytes ipfsHash;\n  }\n\n  modifier onlyProven() {\n    require(msg.sender == registry.proven());\n    _;\n  }\n\n  modifier onlyNewReceipt(bytes32 _id) {\n    require(depositions[_id].deponent == 0);\n    _;\n  }\n\n  /// Constructor\n  function ProvenDB(address _registry) public {\n    registry = ProvenRegistry(_registry);\n  }\n\n  function getDeponent(bytes32 _id) public view returns (address) {\n    return depositions[_id].deponent;\n  }\n\n  function getIPFSHash(bytes32 _id) public view returns (bytes) {\n    return depositions[_id].ipfsHash;\n  }\n\n  function storeDeposition(address _deponent, bytes _ipfsHash) public onlyProven returns (bytes32) {\n\n    // generate hash to send back to caller\n    bytes32 id = keccak256(msg.data, block.number);\n\n    store(id, _deponent, _ipfsHash);\n\n    return id;\n  }\n\n  function store(bytes32 _id, address _deponent, bytes _ipfsHash) internal onlyNewReceipt(_id) {\n\n    var deposition = depositions[_id];\n\n    deposition.deponent = _deponent;\n    deposition.ipfsHash = _ipfsHash;\n\n    DepositionStored(_id, _deponent, _ipfsHash);\n  }\n}\n",
  "sourcePath": "/home/cleduc/src/proven-eth/contracts/ProvenDB.sol",
  "compiler": {
    "name": "solc",
    "version": "0.4.18+commit.9cf6e910.Emscripten.clang"
  },
  "schemaVersion": "1.0.1",
  "updatedAt": "2017-12-14T19:35:36.146Z"
}