{
  "contractName": "Verifier",
  "abi": [
    {
      "constant": false,
      "inputs": [
        {
          "name": "_deposition",
          "type": "bytes32"
        }
      ],
      "name": "claimVerificationReward",
      "outputs": [],
      "payable": false,
      "stateMutability": "nonpayable",
      "type": "function"
    },
    {
      "constant": false,
      "inputs": [
        {
          "name": "_ipfsHash",
          "type": "bytes"
        }
      ],
      "name": "publishDeposition",
      "outputs": [
        {
          "name": "",
          "type": "bytes32"
        }
      ],
      "payable": true,
      "stateMutability": "payable",
      "type": "function"
    },
    {
      "constant": true,
      "inputs": [
        {
          "name": "_ipfsHash",
          "type": "bytes"
        }
      ],
      "name": "getDepositionFromIPFSHash",
      "outputs": [
        {
          "name": "",
          "type": "bytes32"
        }
      ],
      "payable": false,
      "stateMutability": "view",
      "type": "function"
    },
    {
      "constant": false,
      "inputs": [
        {
          "name": "_timeoutBlockCount",
          "type": "uint256"
        }
      ],
      "name": "setTimeoutBlockCount",
      "outputs": [],
      "payable": false,
      "stateMutability": "nonpayable",
      "type": "function"
    },
    {
      "constant": false,
      "inputs": [
        {
          "name": "_deposition",
          "type": "bytes32"
        }
      ],
      "name": "contestChallenge",
      "outputs": [],
      "payable": false,
      "stateMutability": "nonpayable",
      "type": "function"
    },
    {
      "constant": false,
      "inputs": [
        {
          "name": "_amount",
          "type": "uint256"
        }
      ],
      "name": "withdraw",
      "outputs": [],
      "payable": false,
      "stateMutability": "nonpayable",
      "type": "function"
    },
    {
      "constant": false,
      "inputs": [
        {
          "name": "_deposition",
          "type": "bytes32"
        }
      ],
      "name": "contestVerification",
      "outputs": [],
      "payable": false,
      "stateMutability": "nonpayable",
      "type": "function"
    },
    {
      "constant": false,
      "inputs": [
        {
          "name": "_deposition",
          "type": "bytes32"
        }
      ],
      "name": "claimChallengeReward",
      "outputs": [],
      "payable": false,
      "stateMutability": "nonpayable",
      "type": "function"
    },
    {
      "constant": false,
      "inputs": [
        {
          "name": "_deposition",
          "type": "bytes32"
        },
        {
          "name": "_ipfsHash",
          "type": "bytes"
        },
        {
          "name": "_deposedInBlock",
          "type": "uint256"
        }
      ],
      "name": "initializeDeposition",
      "outputs": [],
      "payable": true,
      "stateMutability": "payable",
      "type": "function"
    },
    {
      "constant": false,
      "inputs": [
        {
          "name": "_fee",
          "type": "uint256"
        }
      ],
      "name": "setFee",
      "outputs": [],
      "payable": false,
      "stateMutability": "nonpayable",
      "type": "function"
    },
    {
      "constant": true,
      "inputs": [],
      "name": "registry",
      "outputs": [
        {
          "name": "",
          "type": "address"
        }
      ],
      "payable": false,
      "stateMutability": "view",
      "type": "function"
    },
    {
      "constant": false,
      "inputs": [
        {
          "name": "_deposition",
          "type": "bytes32"
        }
      ],
      "name": "challengeDeposition",
      "outputs": [],
      "payable": false,
      "stateMutability": "nonpayable",
      "type": "function"
    },
    {
      "constant": true,
      "inputs": [],
      "name": "owner",
      "outputs": [
        {
          "name": "",
          "type": "address"
        }
      ],
      "payable": false,
      "stateMutability": "view",
      "type": "function"
    },
    {
      "constant": false,
      "inputs": [
        {
          "name": "_registry",
          "type": "address"
        }
      ],
      "name": "setRegistry",
      "outputs": [],
      "payable": false,
      "stateMutability": "nonpayable",
      "type": "function"
    },
    {
      "constant": false,
      "inputs": [
        {
          "name": "_deposition",
          "type": "bytes32"
        },
        {
          "name": "_proven",
          "type": "bool"
        }
      ],
      "name": "decideChallenge",
      "outputs": [],
      "payable": false,
      "stateMutability": "nonpayable",
      "type": "function"
    },
    {
      "constant": false,
      "inputs": [
        {
          "name": "_requiredBondAmount",
          "type": "uint256"
        }
      ],
      "name": "setRequiredBondAmount",
      "outputs": [],
      "payable": false,
      "stateMutability": "nonpayable",
      "type": "function"
    },
    {
      "constant": true,
      "inputs": [],
      "name": "requiredBondAmount",
      "outputs": [
        {
          "name": "",
          "type": "uint256"
        }
      ],
      "payable": false,
      "stateMutability": "view",
      "type": "function"
    },
    {
      "constant": false,
      "inputs": [
        {
          "name": "_deposition",
          "type": "bytes32"
        }
      ],
      "name": "verifyDeposition",
      "outputs": [],
      "payable": false,
      "stateMutability": "nonpayable",
      "type": "function"
    },
    {
      "constant": false,
      "inputs": [
        {
          "name": "_deposition",
          "type": "bytes32"
        },
        {
          "name": "_ipfsHash",
          "type": "bytes"
        }
      ],
      "name": "verifyDeposition",
      "outputs": [],
      "payable": false,
      "stateMutability": "nonpayable",
      "type": "function"
    },
    {
      "constant": true,
      "inputs": [],
      "name": "fee",
      "outputs": [
        {
          "name": "",
          "type": "uint256"
        }
      ],
      "payable": false,
      "stateMutability": "view",
      "type": "function"
    },
    {
      "constant": false,
      "inputs": [
        {
          "name": "newOwner",
          "type": "address"
        }
      ],
      "name": "transferOwnership",
      "outputs": [],
      "payable": false,
      "stateMutability": "nonpayable",
      "type": "function"
    },
    {
      "constant": true,
      "inputs": [],
      "name": "timeoutBlockCount",
      "outputs": [
        {
          "name": "",
          "type": "uint256"
        }
      ],
      "payable": false,
      "stateMutability": "view",
      "type": "function"
    },
    {
      "inputs": [
        {
          "name": "_registry",
          "type": "address"
        },
        {
          "name": "_fee",
          "type": "uint256"
        },
        {
          "name": "_timeoutBlockCount",
          "type": "uint256"
        },
        {
          "name": "_requiredBondAmount",
          "type": "uint256"
        }
      ],
      "payable": false,
      "stateMutability": "nonpayable",
      "type": "constructor"
    },
    {
      "anonymous": false,
      "inputs": [
        {
          "indexed": false,
          "name": "deposition",
          "type": "bytes32"
        },
        {
          "indexed": false,
          "name": "deponent",
          "type": "address"
        },
        {
          "indexed": false,
          "name": "ipfsHash",
          "type": "bytes"
        },
        {
          "indexed": false,
          "name": "bounty",
          "type": "uint256"
        }
      ],
      "name": "DepositionPublished",
      "type": "event"
    },
    {
      "anonymous": false,
      "inputs": [
        {
          "indexed": false,
          "name": "deposition",
          "type": "bytes32"
        },
        {
          "indexed": false,
          "name": "verifier",
          "type": "address"
        }
      ],
      "name": "DepositionVerified",
      "type": "event"
    },
    {
      "anonymous": false,
      "inputs": [
        {
          "indexed": false,
          "name": "deposition",
          "type": "bytes32"
        },
        {
          "indexed": false,
          "name": "verifier",
          "type": "address"
        }
      ],
      "name": "DepositionProven",
      "type": "event"
    },
    {
      "anonymous": false,
      "inputs": [
        {
          "indexed": false,
          "name": "deposition",
          "type": "bytes32"
        },
        {
          "indexed": false,
          "name": "challenger",
          "type": "address"
        }
      ],
      "name": "DepositionChallenged",
      "type": "event"
    },
    {
      "anonymous": false,
      "inputs": [
        {
          "indexed": false,
          "name": "deposition",
          "type": "bytes32"
        },
        {
          "indexed": false,
          "name": "challenger",
          "type": "address"
        }
      ],
      "name": "DepositionDisproven",
      "type": "event"
    },
    {
      "anonymous": false,
      "inputs": [
        {
          "indexed": false,
          "name": "deposition",
          "type": "bytes32"
        },
        {
          "indexed": false,
          "name": "contestor",
          "type": "address"
        }
      ],
      "name": "DepositionContested",
      "type": "event"
    },
    {
      "anonymous": false,
      "inputs": [
        {
          "indexed": true,
          "name": "previousOwner",
          "type": "address"
        },
        {
          "indexed": true,
          "name": "newOwner",
          "type": "address"
        }
      ],
      "name": "OwnershipTransferred",
      "type": "event"
    }
  ],
  "bytecode": "0x6060604052341561000f57600080fd5b6040516080806135ac83398101604052808051906020019091908051906020019091908051906020019091908051906020019091905050336000806101000a81548173ffffffffffffffffffffffffffffffffffffffff021916908373ffffffffffffffffffffffffffffffffffffffff16021790555083600160006101000a81548173ffffffffffffffffffffffffffffffffffffffff021916908373ffffffffffffffffffffffffffffffffffffffff160217905550826002819055508160038190555080600481905550505050506134bd806100ef6000396000f300606060405260043610610127576000357c0100000000000000000000000000000000000000000000000000000000900463ffffffff1680622f44ae1461012c5780631b504a4f146101535780632166b148146101c157806325802b2e1461023a5780632a0dd9d91461025d5780632e1a7d4d146102845780635868ddab146102a75780635fdbde9a146102ce57806360a7744d146102f557806369fe0e2d1461035d5780637b1039991461038057806387685552146103d55780638da5cb5b146103fc578063a91ee0dc14610451578063bb4f21ba1461048a578063bdc9dde4146104bc578063c3726ecf146104df578063c970679a14610508578063d7b3f9371461052f578063ddca3f4314610599578063f2fde38b146105c2578063ff703178146105fb575b600080fd5b341561013757600080fd5b610151600480803560001916906020019091905050610624565b005b6101a3600480803590602001908201803590602001908080601f01602080910402602001604051908101604052809392919081815260200183838082843782019150505050505091905050610acb565b60405180826000191660001916815260200191505060405180910390f35b34156101cc57600080fd5b61021c600480803590602001908201803590602001908080601f01602080910402602001604051908101604052809392919081815260200183838082843782019150505050505091905050610cce565b60405180826000191660001916815260200191505060405180910390f35b341561024557600080fd5b61025b6004808035906020019091905050610e7b565b005b341561026857600080fd5b610282600480803560001916906020019091905050610ee0565b005b341561028f57600080fd5b6102a56004808035906020019091905050611218565b005b34156102b257600080fd5b6102cc6004808035600019169060200190919050506112d9565b005b34156102d957600080fd5b6102f3600480803560001916906020019091905050611611565b005b61035b60048080356000191690602001909190803590602001908201803590602001908080601f01602080910402602001604051908101604052809392919081815260200183838082843782019150505050505091908035906020019091905050611ab8565b005b341561036857600080fd5b61037e6004808035906020019091905050611d6b565b005b341561038b57600080fd5b610393611dd0565b604051808273ffffffffffffffffffffffffffffffffffffffff1673ffffffffffffffffffffffffffffffffffffffff16815260200191505060405180910390f35b34156103e057600080fd5b6103fa600480803560001916906020019091905050611df6565b005b341561040757600080fd5b61040f61230e565b604051808273ffffffffffffffffffffffffffffffffffffffff1673ffffffffffffffffffffffffffffffffffffffff16815260200191505060405180910390f35b341561045c57600080fd5b610488600480803573ffffffffffffffffffffffffffffffffffffffff16906020019091905050612333565b005b341561049557600080fd5b6104ba60048080356000191690602001909190803515159060200190919050506123d2565b005b34156104c757600080fd5b6104dd6004808035906020019091905050612891565b005b34156104ea57600080fd5b6104f26128f6565b6040518082815260200191505060405180910390f35b341561051357600080fd5b61052d6004808035600019169060200190919050506128fc565b005b341561053a57600080fd5b61059760048080356000191690602001909190803590602001908201803590602001908080601f01602080910402602001604051908101604052809392919081815260200183838082843782019150505050505091905050612919565b005b34156105a457600080fd5b6105ac612f70565b6040518082815260200191505060405180910390f35b34156105cd57600080fd5b6105f9600480803573ffffffffffffffffffffffffffffffffffffffff16906020019091905050612f76565b005b341561060657600080fd5b61060e6130cb565b6040518082815260200191505060405180910390f35b6000806000806000806000600160009054906101000a900473ffffffffffffffffffffffffffffffffffffffff1673ffffffffffffffffffffffffffffffffffffffff16634d655aff6000604051602001526040518163ffffffff167c0100000000000000000000000000000000000000000000000000000000028152600401602060405180830381600087803b15156106bd57600080fd5b6102c65a03f115156106ce57600080fd5b5050506040518051905096508673ffffffffffffffffffffffffffffffffffffffff1663984bc70089600060405161012001526040518263ffffffff167c010000000000000000000000000000000000000000000000000000000002815260040180826000191660001916815260200191505061012060405180830381600087803b151561075b57600080fd5b6102c65a03f1151561076c57600080fd5b505050604051805190602001805190602001805190602001805190602001805190602001805190602001805190602001805190602001805190505098505050965096505095509550600260068111156107c157fe5b8660068111156107cd57fe5b1415156107d957600080fd5b600354830143101515156107ec57600080fd5b3373ffffffffffffffffffffffffffffffffffffffff168473ffffffffffffffffffffffffffffffffffffffff1614151561082657600080fd5b8673ffffffffffffffffffffffffffffffffffffffff16639baa11be896040518263ffffffff167c0100000000000000000000000000000000000000000000000000000000028152600401808260001916600019168152602001915050600060405180830381600087803b151561089c57600080fd5b6102c65a03f115156108ad57600080fd5b505050600160009054906101000a900473ffffffffffffffffffffffffffffffffffffffff1673ffffffffffffffffffffffffffffffffffffffff166322ed80e86000604051602001526040518163ffffffff167c0100000000000000000000000000000000000000000000000000000000028152600401602060405180830381600087803b151561093e57600080fd5b6102c65a03f1151561094f57600080fd5b5050506040518051905090508073ffffffffffffffffffffffffffffffffffffffff1663595d335033846040518363ffffffff167c0100000000000000000000000000000000000000000000000000000000028152600401808373ffffffffffffffffffffffffffffffffffffffff1673ffffffffffffffffffffffffffffffffffffffff16815260200182815260200192505050600060405180830381600087803b15156109fd57600080fd5b6102c65a03f11515610a0e57600080fd5b5050503373ffffffffffffffffffffffffffffffffffffffff166108fc869081150290604051600060405180830381858888f193505050501515610a4e57fe5b7fc2e4f34f07b1fb2f445412f04539a1baefc37704ecb91d746f6acda83c6e738888336040518083600019166000191681526020018273ffffffffffffffffffffffffffffffffffffffff1673ffffffffffffffffffffffffffffffffffffffff1681526020019250505060405180910390a15050505050505050565b60008060006002543410151515610ae157600080fd5b600160009054906101000a900473ffffffffffffffffffffffffffffffffffffffff1673ffffffffffffffffffffffffffffffffffffffff16634d94e7f36000604051602001526040518163ffffffff167c0100000000000000000000000000000000000000000000000000000000028152600401602060405180830381600087803b1515610b6f57600080fd5b6102c65a03f11515610b8057600080fd5b5050506040518051905091508173ffffffffffffffffffffffffffffffffffffffff1663c36a440a33866000604051602001526040518363ffffffff167c0100000000000000000000000000000000000000000000000000000000028152600401808373ffffffffffffffffffffffffffffffffffffffff1673ffffffffffffffffffffffffffffffffffffffff16815260200180602001828103825283818151815260200191508051906020019080838360005b83811015610c50578082015181840152602081019050610c35565b50505050905090810190601f168015610c7d5780820380516001836020036101000a031916815260200191505b509350505050602060405180830381600087803b1515610c9c57600080fd5b6102c65a03f11515610cad57600080fd5b505050604051805190509050610cc4818543611ab8565b8092505050919050565b600080600160009054906101000a900473ffffffffffffffffffffffffffffffffffffffff1673ffffffffffffffffffffffffffffffffffffffff16634d655aff6000604051602001526040518163ffffffff167c0100000000000000000000000000000000000000000000000000000000028152600401602060405180830381600087803b1515610d5f57600080fd5b6102c65a03f11515610d7057600080fd5b5050506040518051905090508073ffffffffffffffffffffffffffffffffffffffff16632166b148846000604051602001526040518263ffffffff167c01000000000000000000000000000000000000000000000000000000000281526004018080602001828103825283818151815260200191508051906020019080838360005b83811015610e0d578082015181840152602081019050610df2565b50505050905090810190601f168015610e3a5780820380516001836020036101000a031916815260200191505b5092505050602060405180830381600087803b1515610e5857600080fd5b6102c65a03f11515610e6957600080fd5b50505060405180519050915050919050565b6000809054906101000a900473ffffffffffffffffffffffffffffffffffffffff1673ffffffffffffffffffffffffffffffffffffffff163373ffffffffffffffffffffffffffffffffffffffff16141515610ed657600080fd5b8060038190555050565b600080600080600160009054906101000a900473ffffffffffffffffffffffffffffffffffffffff1673ffffffffffffffffffffffffffffffffffffffff16634d655aff6000604051602001526040518163ffffffff167c0100000000000000000000000000000000000000000000000000000000028152600401602060405180830381600087803b1515610f7457600080fd5b6102c65a03f11515610f8557600080fd5b5050506040518051905093508373ffffffffffffffffffffffffffffffffffffffff1663984bc70086600060405161012001526040518263ffffffff167c010000000000000000000000000000000000000000000000000000000002815260040180826000191660001916815260200191505061012060405180830381600087803b151561101257600080fd5b6102c65a03f1151561102357600080fd5b5050506040518051906020018051906020018051906020018051906020018051906020018051906020018051906020018051906020018051905050985050505050505092506003600681111561107557fe5b83600681111561108157fe5b14151561108d57600080fd5b600160009054906101000a900473ffffffffffffffffffffffffffffffffffffffff1673ffffffffffffffffffffffffffffffffffffffff166322ed80e86000604051602001526040518163ffffffff167c0100000000000000000000000000000000000000000000000000000000028152600401602060405180830381600087803b151561111b57600080fd5b6102c65a03f1151561112c57600080fd5b505050604051805190509050818173ffffffffffffffffffffffffffffffffffffffff16633cfe6cd2336000604051602001526040518263ffffffff167c0100000000000000000000000000000000000000000000000000000000028152600401808273ffffffffffffffffffffffffffffffffffffffff1673ffffffffffffffffffffffffffffffffffffffff168152602001915050602060405180830381600087803b15156111dc57600080fd5b6102c65a03f115156111ed57600080fd5b505050604051805190501015151561120457600080fd5b61121184828488336130d1565b5050505050565b6000809054906101000a900473ffffffffffffffffffffffffffffffffffffffff1673ffffffffffffffffffffffffffffffffffffffff163373ffffffffffffffffffffffffffffffffffffffff1614151561127357600080fd5b3073ffffffffffffffffffffffffffffffffffffffff1631811115151561129957600080fd5b3373ffffffffffffffffffffffffffffffffffffffff166108fc829081150290604051600060405180830381858888f1935050505015156112d657fe5b50565b600080600080600160009054906101000a900473ffffffffffffffffffffffffffffffffffffffff1673ffffffffffffffffffffffffffffffffffffffff16634d655aff6000604051602001526040518163ffffffff167c0100000000000000000000000000000000000000000000000000000000028152600401602060405180830381600087803b151561136d57600080fd5b6102c65a03f1151561137e57600080fd5b5050506040518051905093508373ffffffffffffffffffffffffffffffffffffffff1663984bc70086600060405161012001526040518263ffffffff167c010000000000000000000000000000000000000000000000000000000002815260040180826000191660001916815260200191505061012060405180830381600087803b151561140b57600080fd5b6102c65a03f1151561141c57600080fd5b5050506040518051906020018051906020018051906020018051906020018051906020018051906020018051906020018051906020018051905050985050505050505092506002600681111561146e57fe5b83600681111561147a57fe5b14151561148657600080fd5b600160009054906101000a900473ffffffffffffffffffffffffffffffffffffffff1673ffffffffffffffffffffffffffffffffffffffff166322ed80e86000604051602001526040518163ffffffff167c0100000000000000000000000000000000000000000000000000000000028152600401602060405180830381600087803b151561151457600080fd5b6102c65a03f1151561152557600080fd5b505050604051805190509050818173ffffffffffffffffffffffffffffffffffffffff16633cfe6cd2336000604051602001526040518263ffffffff167c0100000000000000000000000000000000000000000000000000000000028152600401808273ffffffffffffffffffffffffffffffffffffffff1673ffffffffffffffffffffffffffffffffffffffff168152602001915050602060405180830381600087803b15156115d557600080fd5b6102c65a03f115156115e657600080fd5b50505060405180519050101515156115fd57600080fd5b61160a84828488336130d1565b5050505050565b6000806000806000806000600160009054906101000a900473ffffffffffffffffffffffffffffffffffffffff1673ffffffffffffffffffffffffffffffffffffffff16634d655aff6000604051602001526040518163ffffffff167c0100000000000000000000000000000000000000000000000000000000028152600401602060405180830381600087803b15156116aa57600080fd5b6102c65a03f115156116bb57600080fd5b5050506040518051905096508673ffffffffffffffffffffffffffffffffffffffff1663984bc70089600060405161012001526040518263ffffffff167c010000000000000000000000000000000000000000000000000000000002815260040180826000191660001916815260200191505061012060405180830381600087803b151561174857600080fd5b6102c65a03f1151561175957600080fd5b505050604051805190602001805190602001805190602001805190602001805190602001805190602001805190602001805190602001805190505098509850985050505095509550600360068111156117ae57fe5b8660068111156117ba57fe5b1415156117c657600080fd5b600354830143101515156117d957600080fd5b3373ffffffffffffffffffffffffffffffffffffffff168473ffffffffffffffffffffffffffffffffffffffff1614151561181357600080fd5b8673ffffffffffffffffffffffffffffffffffffffff1663c17e8e8f896040518263ffffffff167c0100000000000000000000000000000000000000000000000000000000028152600401808260001916600019168152602001915050600060405180830381600087803b151561188957600080fd5b6102c65a03f1151561189a57600080fd5b505050600160009054906101000a900473ffffffffffffffffffffffffffffffffffffffff1673ffffffffffffffffffffffffffffffffffffffff166322ed80e86000604051602001526040518163ffffffff167c0100000000000000000000000000000000000000000000000000000000028152600401602060405180830381600087803b151561192b57600080fd5b6102c65a03f1151561193c57600080fd5b5050506040518051905090508073ffffffffffffffffffffffffffffffffffffffff1663595d335033846040518363ffffffff167c0100000000000000000000000000000000000000000000000000000000028152600401808373ffffffffffffffffffffffffffffffffffffffff1673ffffffffffffffffffffffffffffffffffffffff16815260200182815260200192505050600060405180830381600087803b15156119ea57600080fd5b6102c65a03f115156119fb57600080fd5b5050503373ffffffffffffffffffffffffffffffffffffffff166108fc869081150290604051600060405180830381858888f193505050501515611a3b57fe5b7f86c16314f66c826f30f1615dff5d463030181d7d327f586e2f350f136575773b88336040518083600019166000191681526020018273ffffffffffffffffffffffffffffffffffffffff1673ffffffffffffffffffffffffffffffffffffffff1681526020019250505060405180910390a15050505050505050565b60006002543410151515611acb57600080fd5b600160009054906101000a900473ffffffffffffffffffffffffffffffffffffffff1673ffffffffffffffffffffffffffffffffffffffff16634d655aff6000604051602001526040518163ffffffff167c0100000000000000000000000000000000000000000000000000000000028152600401602060405180830381600087803b1515611b5957600080fd5b6102c65a03f11515611b6a57600080fd5b5050506040518051905090508073ffffffffffffffffffffffffffffffffffffffff16632208c54e858534866040518563ffffffff167c010000000000000000000000000000000000000000000000000000000002815260040180856000191660001916815260200180602001848152602001838152602001828103825285818151815260200191508051906020019080838360005b83811015611c1b578082015181840152602081019050611c00565b50505050905090810190601f168015611c485780820380516001836020036101000a031916815260200191505b5095505050505050600060405180830381600087803b1515611c6957600080fd5b6102c65a03f11515611c7a57600080fd5b5050507fdf1bf7d6be82c9b65119a6e84da2e706f161aa34d2f9cda311756f775717a0ab843385346040518085600019166000191681526020018473ffffffffffffffffffffffffffffffffffffffff1673ffffffffffffffffffffffffffffffffffffffff16815260200180602001838152602001828103825284818151815260200191508051906020019080838360005b83811015611d28578082015181840152602081019050611d0d565b50505050905090810190601f168015611d555780820380516001836020036101000a031916815260200191505b509550505050505060405180910390a150505050565b6000809054906101000a900473ffffffffffffffffffffffffffffffffffffffff1673ffffffffffffffffffffffffffffffffffffffff163373ffffffffffffffffffffffffffffffffffffffff16141515611dc657600080fd5b8060028190555050565b600160009054906101000a900473ffffffffffffffffffffffffffffffffffffffff1681565b6000806000600160009054906101000a900473ffffffffffffffffffffffffffffffffffffffff1673ffffffffffffffffffffffffffffffffffffffff166322ed80e86000604051602001526040518163ffffffff167c0100000000000000000000000000000000000000000000000000000000028152600401602060405180830381600087803b1515611e8957600080fd5b6102c65a03f11515611e9a57600080fd5b5050506040518051905092508273ffffffffffffffffffffffffffffffffffffffff16634aa5e885336000604051602001526040518263ffffffff167c0100000000000000000000000000000000000000000000000000000000028152600401808273ffffffffffffffffffffffffffffffffffffffff1673ffffffffffffffffffffffffffffffffffffffff168152602001915050602060405180830381600087803b1515611f4957600080fd5b6102c65a03f11515611f5a57600080fd5b505050604051805190501515611f6f57600080fd5b600160009054906101000a900473ffffffffffffffffffffffffffffffffffffffff1673ffffffffffffffffffffffffffffffffffffffff16634d655aff6000604051602001526040518163ffffffff167c0100000000000000000000000000000000000000000000000000000000028152600401602060405180830381600087803b1515611ffd57600080fd5b6102c65a03f1151561200e57600080fd5b5050506040518051905091508173ffffffffffffffffffffffffffffffffffffffff1663984bc70085600060405161012001526040518263ffffffff167c010000000000000000000000000000000000000000000000000000000002815260040180826000191660001916815260200191505061012060405180830381600087803b151561209b57600080fd5b6102c65a03f115156120ac57600080fd5b5050506040518051906020018051906020018051906020018051906020018051906020018051906020018051906020018051906020018051905050505050505050509050600160068111156120fd57fe5b81600681111561210957fe5b14151561211557600080fd5b8173ffffffffffffffffffffffffffffffffffffffff166343e7b14985336004546040518463ffffffff167c01000000000000000000000000000000000000000000000000000000000281526004018084600019166000191681526020018373ffffffffffffffffffffffffffffffffffffffff1673ffffffffffffffffffffffffffffffffffffffff1681526020018281526020019350505050600060405180830381600087803b15156121c957600080fd5b6102c65a03f115156121da57600080fd5b5050508273ffffffffffffffffffffffffffffffffffffffff1663ca7a285f336004546040518363ffffffff167c0100000000000000000000000000000000000000000000000000000000028152600401808373ffffffffffffffffffffffffffffffffffffffff1673ffffffffffffffffffffffffffffffffffffffff16815260200182815260200192505050600060405180830381600087803b151561228157600080fd5b6102c65a03f1151561229257600080fd5b5050507f9406ac2e711bfea9ead0fec13923bcff79265b3f2ef9400ba64e9dd89d7a4f7984336040518083600019166000191681526020018273ffffffffffffffffffffffffffffffffffffffff1673ffffffffffffffffffffffffffffffffffffffff1681526020019250505060405180910390a150505050565b6000809054906101000a900473ffffffffffffffffffffffffffffffffffffffff1681565b6000809054906101000a900473ffffffffffffffffffffffffffffffffffffffff1673ffffffffffffffffffffffffffffffffffffffff163373ffffffffffffffffffffffffffffffffffffffff1614151561238e57600080fd5b80600160006101000a81548173ffffffffffffffffffffffffffffffffffffffff021916908373ffffffffffffffffffffffffffffffffffffffff16021790555050565b600080600080600080600160009054906101000a900473ffffffffffffffffffffffffffffffffffffffff1673ffffffffffffffffffffffffffffffffffffffff16637dc0d1d06000604051602001526040518163ffffffff167c0100000000000000000000000000000000000000000000000000000000028152600401602060405180830381600087803b151561246957600080fd5b6102c65a03f1151561247a57600080fd5b5050506040518051905095508573ffffffffffffffffffffffffffffffffffffffff163373ffffffffffffffffffffffffffffffffffffffff161415156124c057600080fd5b600160009054906101000a900473ffffffffffffffffffffffffffffffffffffffff1673ffffffffffffffffffffffffffffffffffffffff16634d655aff6000604051602001526040518163ffffffff167c0100000000000000000000000000000000000000000000000000000000028152600401602060405180830381600087803b151561254e57600080fd5b6102c65a03f1151561255f57600080fd5b5050506040518051905094508473ffffffffffffffffffffffffffffffffffffffff1663984bc70089600060405161012001526040518263ffffffff167c010000000000000000000000000000000000000000000000000000000002815260040180826000191660001916815260200191505061012060405180830381600087803b15156125ec57600080fd5b6102c65a03f115156125fd57600080fd5b50505060405180519060200180519060200180519060200180519060200180519060200180519060200180519060200180519060200180519050985098505050509550505093506004600681111561265157fe5b84600681111561265d57fe5b14151561266957600080fd5b861561277d578473ffffffffffffffffffffffffffffffffffffffff16639baa11be896040518263ffffffff167c0100000000000000000000000000000000000000000000000000000000028152600401808260001916600019168152602001915050600060405180830381600087803b15156126e557600080fd5b6102c65a03f115156126f657600080fd5b505050612705838383896132bf565b7fc2e4f34f07b1fb2f445412f04539a1baefc37704ecb91d746f6acda83c6e738888846040518083600019166000191681526020018273ffffffffffffffffffffffffffffffffffffffff1673ffffffffffffffffffffffffffffffffffffffff1681526020019250505060405180910390a1612887565b8473ffffffffffffffffffffffffffffffffffffffff1663c17e8e8f896040518263ffffffff167c0100000000000000000000000000000000000000000000000000000000028152600401808260001916600019168152602001915050600060405180830381600087803b15156127f357600080fd5b6102c65a03f1151561280457600080fd5b505050612813818385896132bf565b7f86c16314f66c826f30f1615dff5d463030181d7d327f586e2f350f136575773b88826040518083600019166000191681526020018273ffffffffffffffffffffffffffffffffffffffff1673ffffffffffffffffffffffffffffffffffffffff1681526020019250505060405180910390a15b5050505050505050565b6000809054906101000a900473ffffffffffffffffffffffffffffffffffffffff1673ffffffffffffffffffffffffffffffffffffffff163373ffffffffffffffffffffffffffffffffffffffff161415156128ec57600080fd5b8060048190555050565b60045481565b612916816020604051908101604052806000815250612919565b50565b6000806000600160009054906101000a900473ffffffffffffffffffffffffffffffffffffffff1673ffffffffffffffffffffffffffffffffffffffff166322ed80e86000604051602001526040518163ffffffff167c0100000000000000000000000000000000000000000000000000000000028152600401602060405180830381600087803b15156129ac57600080fd5b6102c65a03f115156129bd57600080fd5b5050506040518051905092508273ffffffffffffffffffffffffffffffffffffffff16634aa5e885336000604051602001526040518263ffffffff167c0100000000000000000000000000000000000000000000000000000000028152600401808273ffffffffffffffffffffffffffffffffffffffff1673ffffffffffffffffffffffffffffffffffffffff168152602001915050602060405180830381600087803b1515612a6c57600080fd5b6102c65a03f11515612a7d57600080fd5b505050604051805190501515612a9257600080fd5b60006004548473ffffffffffffffffffffffffffffffffffffffff16633cfe6cd2336000604051602001526040518263ffffffff167c0100000000000000000000000000000000000000000000000000000000028152600401808273ffffffffffffffffffffffffffffffffffffffff1673ffffffffffffffffffffffffffffffffffffffff168152602001915050602060405180830381600087803b1515612b3a57600080fd5b6102c65a03f11515612b4b57600080fd5b505050604051805190500310151515612b6357600080fd5b600160009054906101000a900473ffffffffffffffffffffffffffffffffffffffff1673ffffffffffffffffffffffffffffffffffffffff16634d655aff6000604051602001526040518163ffffffff167c0100000000000000000000000000000000000000000000000000000000028152600401602060405180830381600087803b1515612bf157600080fd5b6102c65a03f11515612c0257600080fd5b5050506040518051905091508173ffffffffffffffffffffffffffffffffffffffff1663984bc70086600060405161012001526040518263ffffffff167c010000000000000000000000000000000000000000000000000000000002815260040180826000191660001916815260200191505061012060405180830381600087803b1515612c8f57600080fd5b6102c65a03f11515612ca057600080fd5b505050604051805190602001805190602001805190602001805190602001805190602001805190602001805190602001805190602001805190505050505050505050905060016006811115612cf157fe5b816006811115612cfd57fe5b141515612d0957600080fd5b8173ffffffffffffffffffffffffffffffffffffffff16631bc0e9818686336004546040518563ffffffff167c0100000000000000000000000000000000000000000000000000000000028152600401808560001916600019168152602001806020018473ffffffffffffffffffffffffffffffffffffffff1673ffffffffffffffffffffffffffffffffffffffff168152602001838152602001828103825285818151815260200191508051906020019080838360005b83811015612ddc578082015181840152602081019050612dc1565b50505050905090810190601f168015612e095780820380516001836020036101000a031916815260200191505b5095505050505050600060405180830381600087803b1515612e2a57600080fd5b6102c65a03f11515612e3b57600080fd5b5050508273ffffffffffffffffffffffffffffffffffffffff1663ca7a285f336004546040518363ffffffff167c0100000000000000000000000000000000000000000000000000000000028152600401808373ffffffffffffffffffffffffffffffffffffffff1673ffffffffffffffffffffffffffffffffffffffff16815260200182815260200192505050600060405180830381600087803b1515612ee257600080fd5b6102c65a03f11515612ef357600080fd5b5050507f9ddaf814de84455713e6f8f6cb743e6428c2213d26ecfa0fff9d21050cb5854685336040518083600019166000191681526020018273ffffffffffffffffffffffffffffffffffffffff1673ffffffffffffffffffffffffffffffffffffffff1681526020019250505060405180910390a15050505050565b60025481565b6000809054906101000a900473ffffffffffffffffffffffffffffffffffffffff1673ffffffffffffffffffffffffffffffffffffffff163373ffffffffffffffffffffffffffffffffffffffff16141515612fd157600080fd5b600073ffffffffffffffffffffffffffffffffffffffff168173ffffffffffffffffffffffffffffffffffffffff161415151561300d57600080fd5b8073ffffffffffffffffffffffffffffffffffffffff166000809054906101000a900473ffffffffffffffffffffffffffffffffffffffff1673ffffffffffffffffffffffffffffffffffffffff167f8be0079c531659141344cd1fd0a4f28419497f9722a3daafe3b4186f6b6457e060405160405180910390a3806000806101000a81548173ffffffffffffffffffffffffffffffffffffffff021916908373ffffffffffffffffffffffffffffffffffffffff16021790555050565b60035481565b8473ffffffffffffffffffffffffffffffffffffffff1663f66f2dd283836040518363ffffffff167c01000000000000000000000000000000000000000000000000000000000281526004018083600019166000191681526020018273ffffffffffffffffffffffffffffffffffffffff1673ffffffffffffffffffffffffffffffffffffffff16815260200192505050600060405180830381600087803b151561317b57600080fd5b6102c65a03f1151561318c57600080fd5b5050508373ffffffffffffffffffffffffffffffffffffffff1663ca7a285f82856040518363ffffffff167c0100000000000000000000000000000000000000000000000000000000028152600401808373ffffffffffffffffffffffffffffffffffffffff1673ffffffffffffffffffffffffffffffffffffffff16815260200182815260200192505050600060405180830381600087803b151561323157600080fd5b6102c65a03f1151561324257600080fd5b5050507f63e71dfd2b2fb6c6d2099cb21167861d3fbe560f219421128544c6d77fe404dd82826040518083600019166000191681526020018273ffffffffffffffffffffffffffffffffffffffff1673ffffffffffffffffffffffffffffffffffffffff1681526020019250505060405180910390a15050505050565b6000600160009054906101000a900473ffffffffffffffffffffffffffffffffffffffff1673ffffffffffffffffffffffffffffffffffffffff166322ed80e86000604051602001526040518163ffffffff167c0100000000000000000000000000000000000000000000000000000000028152600401602060405180830381600087803b151561334f57600080fd5b6102c65a03f1151561336057600080fd5b5050506040518051905090508073ffffffffffffffffffffffffffffffffffffffff166378d7f904848688866040518563ffffffff167c0100000000000000000000000000000000000000000000000000000000028152600401808573ffffffffffffffffffffffffffffffffffffffff1673ffffffffffffffffffffffffffffffffffffffff1681526020018481526020018373ffffffffffffffffffffffffffffffffffffffff1673ffffffffffffffffffffffffffffffffffffffff1681526020018273ffffffffffffffffffffffffffffffffffffffff1673ffffffffffffffffffffffffffffffffffffffff168152602001945050505050600060405180830381600087803b151561347657600080fd5b6102c65a03f1151561348757600080fd5b50505050505050505600a165627a7a723058201e168bd4c8ca33048847ba7b484ceda633121eef9def2218455fac3a7530ab920029",
  "source": "// Part of the Proven suite of software\n// Copyright  2017 \"The Partnership\" (Ethereum 0x12B0621D90c69867957A836d677C64c46EC4291D)\n\npragma solidity ^0.4.18;\n\nimport \"zeppelin-solidity/contracts/ownership/Ownable.sol\";\nimport \"./VerifierRegistry.sol\";\nimport \"./VerifierDB.sol\";\nimport \"./Proven.sol\";\nimport \"./BondHolder.sol\";\n\n\ncontract Verifier is Ownable {\n\n  VerifierRegistry public registry;\n  uint public fee;\n  uint public timeoutBlockCount;\n  uint public requiredBondAmount;\n\n  event DepositionPublished(bytes32 deposition, address deponent, bytes ipfsHash, uint bounty);\n  event DepositionVerified(bytes32 deposition, address verifier);\n  event DepositionProven(bytes32 deposition, address verifier);\n  event DepositionChallenged(bytes32 deposition, address challenger);\n  event DepositionDisproven(bytes32 deposition, address challenger);\n  event DepositionContested(bytes32 deposition, address contestor);\n\n  modifier onlyWithFee() {\n    require(msg.value >= fee);\n    _;\n  }\n\n  function Verifier(address _registry, uint _fee, uint _timeoutBlockCount, uint _requiredBondAmount) public {\n    registry = VerifierRegistry(_registry);\n    fee = _fee;\n    timeoutBlockCount = _timeoutBlockCount;\n    requiredBondAmount = _requiredBondAmount;\n  }\n\n  function setRegistry(address _registry) public onlyOwner {\n    registry = VerifierRegistry(_registry);\n  }\n\n  function setFee(uint _fee) public onlyOwner {\n    fee = _fee;\n  }\n\n  function setTimeoutBlockCount(uint _timeoutBlockCount) public onlyOwner {\n    timeoutBlockCount = _timeoutBlockCount;\n  }\n\n  function setRequiredBondAmount(uint _requiredBondAmount) public onlyOwner {\n    requiredBondAmount = _requiredBondAmount;\n  }\n\n  function withdraw(uint _amount) public onlyOwner {\n    require(_amount <= this.balance);\n\n    assert(msg.sender.send(_amount));\n  }\n\n  // Called by the verifier when it is directly creating a new deposition,\n  // instead of mining one that's already in the chain's logs\n  // (like those created from Proven.publishDeposition). Requires a fee\n  // which is paid as a bounty to the verifier.\n  function publishDeposition(bytes _ipfsHash) public payable onlyWithFee returns (bytes32) {\n\n    Proven proven = Proven(registry.proven());\n\n    bytes32 id = proven.publishDeposition(msg.sender, _ipfsHash);\n\n    initializeDeposition(id, _ipfsHash, block.number);\n\n    return id;\n  }\n\n  // This starts the verification process for a deposition that the verifier\n  // doesn't yet know about, specifically one made with Proven.publishDeposition()\n  function initializeDeposition(bytes32 _deposition, bytes _ipfsHash, uint _deposedInBlock) public payable onlyWithFee {\n    VerifierDB db = VerifierDB(registry.db());\n\n    db.initialize(_deposition, _ipfsHash, msg.value, _deposedInBlock);\n\n    DepositionPublished(_deposition, msg.sender, _ipfsHash, msg.value);\n  }\n\n  // This is called to verify a published deposition that already exists.\n  // If the IPFS hash is not provided the verification won't be retrievable\n  // by a smart contract or by a user who wants to check its verification without\n  // downloading the full blockchain and scanning the logs, etc. It's not a great\n  // idea but it does save some gas.\n  function verifyDeposition(bytes32 _deposition) public {\n\n    verifyDeposition(_deposition, \"\");\n  }\n\n  // This is called to verify a published deposition that already exists, either\n  // from publishDeposition() above or the combination of\n  // Proven.publishDeposition + initizializeDepositon().\n  function verifyDeposition(bytes32 _deposition, bytes _ipfsHash) public {\n\n    BondHolder bondHolder = BondHolder(registry.bondHolder());\n\n    require(bondHolder.isBonded(msg.sender));\n    require((bondHolder.availableBond(msg.sender) - requiredBondAmount) >= 0);\n\n    VerifierDB db = VerifierDB(registry.db());\n\n    var (state,,,,,,,,) = db.getDetails(_deposition);\n    require(state == VerifierDB.State.Initialized);\n\n    db.verify(_deposition, _ipfsHash, msg.sender, requiredBondAmount);\n\n    bondHolder.lockBond(msg.sender, requiredBondAmount);\n\n    DepositionVerified(_deposition, msg.sender);\n  }\n\n  function getDepositionFromIPFSHash(bytes _ipfsHash) public view returns (bytes32) {\n    VerifierDB db = VerifierDB(registry.db());\n    return db.getDepositionFromIPFSHash(_ipfsHash);\n  }\n\n  function claimVerificationReward(bytes32 _deposition) public {\n\n    VerifierDB db = VerifierDB(registry.db());\n\n    var (state, bounty,, verifier, verifiedInBlock,,, bondAmount,) = db.getDetails(_deposition);\n    require(state == VerifierDB.State.Verified);\n    require(block.number >= verifiedInBlock + timeoutBlockCount);\n    require(verifier == msg.sender);\n\n    db.prove(_deposition);\n\n    BondHolder bondHolder = BondHolder(registry.bondHolder());\n\n    bondHolder.unlockBond(msg.sender, bondAmount);\n\n    assert(msg.sender.send(bounty));\n\n    DepositionProven(_deposition, msg.sender);\n  }\n\n  function challengeDeposition(bytes32 _deposition) public {\n\n    BondHolder bondHolder = BondHolder(registry.bondHolder());\n\n    require(bondHolder.isBonded(msg.sender));\n\n    VerifierDB db = VerifierDB(registry.db());\n\n    var (state,,,,,,,,) = db.getDetails(_deposition);\n    require(state == VerifierDB.State.Initialized);\n\n    db.challenge(_deposition, msg.sender, requiredBondAmount);\n\n    bondHolder.lockBond(msg.sender, requiredBondAmount);\n\n    DepositionChallenged(_deposition, msg.sender);\n  }\n\n  function claimChallengeReward(bytes32 _deposition) public {\n\n    VerifierDB db = VerifierDB(registry.db());\n\n    var (state, bounty,,,, challenger, challengedInBlock, bondAmount,) = db.getDetails(_deposition);\n    require(state == VerifierDB.State.Challenged);\n    require(block.number >= challengedInBlock + timeoutBlockCount);\n    require(challenger == msg.sender);\n\n    db.disprove(_deposition);\n    \n    BondHolder bondHolder = BondHolder(registry.bondHolder());\n\n    bondHolder.unlockBond(msg.sender, bondAmount);\n\n    assert(msg.sender.send(bounty));\n\n    DepositionDisproven(_deposition, msg.sender);\n  }\n\n  function contestVerification(bytes32 _deposition) public {\n\n    VerifierDB db = VerifierDB(registry.db());\n\n    var (state,,,,,,, bondAmount,) = db.getDetails(_deposition);\n    require(state == VerifierDB.State.Verified);\n\n    BondHolder bondHolder = BondHolder(registry.bondHolder());\n\n    // does the caller have enough bond on deposit?\n    require(bondHolder.availableBond(msg.sender) >= bondAmount);\n\n    contest(db, bondHolder, bondAmount, _deposition, msg.sender);\n  }\n\n  function contestChallenge(bytes32 _deposition) public {\n\n    VerifierDB db = VerifierDB(registry.db());\n\n    var (state,,,,,,, bondAmount,) = db.getDetails(_deposition);\n    require(state == VerifierDB.State.Challenged);\n\n    BondHolder bondHolder = BondHolder(registry.bondHolder());\n\n    // does the caller have enough bond on deposit?\n    require(bondHolder.availableBond(msg.sender) >= bondAmount);\n\n    contest(db, bondHolder, bondAmount, _deposition, msg.sender);\n  }\n\n  function decideChallenge(bytes32 _deposition, bool _proven) public {\n\n    address oracle = registry.oracle();\n    require(msg.sender == oracle);\n\n    VerifierDB db = VerifierDB(registry.db());\n    var (state,,, verifier,,,, bondAmount, contestor) = db.getDetails(_deposition);\n    require(state == VerifierDB.State.Contested);\n\n    if (_proven) {\n      db.prove(_deposition);\n      distributeContestReward(verifier, bondAmount, contestor, oracle);\n      DepositionProven(_deposition, verifier);\n    } else {\n      db.disprove(_deposition);\n      distributeContestReward(contestor, bondAmount, verifier, oracle);\n      DepositionDisproven(_deposition, contestor);\n    }\n  }\n\n  function contest(VerifierDB _db, BondHolder _bondHolder, uint bondAmount, bytes32 _deposition, address _contestor) internal {\n\n    _db.contest(_deposition, _contestor);\n\n    _bondHolder.lockBond(_contestor, bondAmount);\n\n    DepositionContested(_deposition, _contestor);\n  }\n\n  function distributeContestReward(address _winner, uint _bondAmount, address _loser, address _oracle) internal {\n\n    BondHolder bondHolder = BondHolder(registry.bondHolder());\n\n    bondHolder.distributeBond(_loser, _bondAmount, _winner, _oracle);\n  }\n}\n",
  "sourcePath": "/home/cleduc/src/proven-eth/contracts/Verifier.sol",
  "compiler": {
    "name": "solc",
    "version": "0.4.18+commit.9cf6e910.Emscripten.clang"
  },
  "schemaVersion": "1.0.1",
  "updatedAt": "2017-12-14T19:35:36.199Z"
}