{
  "contractName": "VerifierRegistry",
  "abi": [
    {
      "constant": true,
      "inputs": [],
      "name": "bondHolder",
      "outputs": [
        {
          "name": "",
          "type": "address"
        }
      ],
      "payable": false,
      "stateMutability": "view",
      "type": "function"
    },
    {
      "constant": true,
      "inputs": [],
      "name": "verifier",
      "outputs": [
        {
          "name": "",
          "type": "address"
        }
      ],
      "payable": false,
      "stateMutability": "view",
      "type": "function"
    },
    {
      "constant": true,
      "inputs": [],
      "name": "db",
      "outputs": [
        {
          "name": "",
          "type": "address"
        }
      ],
      "payable": false,
      "stateMutability": "view",
      "type": "function"
    },
    {
      "constant": true,
      "inputs": [],
      "name": "proven",
      "outputs": [
        {
          "name": "",
          "type": "address"
        }
      ],
      "payable": false,
      "stateMutability": "view",
      "type": "function"
    },
    {
      "constant": false,
      "inputs": [
        {
          "name": "_verifier",
          "type": "address"
        }
      ],
      "name": "setVerifier",
      "outputs": [],
      "payable": false,
      "stateMutability": "nonpayable",
      "type": "function"
    },
    {
      "constant": false,
      "inputs": [
        {
          "name": "_proven",
          "type": "address"
        }
      ],
      "name": "setProven",
      "outputs": [],
      "payable": false,
      "stateMutability": "nonpayable",
      "type": "function"
    },
    {
      "constant": false,
      "inputs": [
        {
          "name": "_db",
          "type": "address"
        }
      ],
      "name": "setDB",
      "outputs": [],
      "payable": false,
      "stateMutability": "nonpayable",
      "type": "function"
    },
    {
      "constant": false,
      "inputs": [
        {
          "name": "_oracle",
          "type": "address"
        }
      ],
      "name": "setOracle",
      "outputs": [],
      "payable": false,
      "stateMutability": "nonpayable",
      "type": "function"
    },
    {
      "constant": true,
      "inputs": [],
      "name": "oracle",
      "outputs": [
        {
          "name": "",
          "type": "address"
        }
      ],
      "payable": false,
      "stateMutability": "view",
      "type": "function"
    },
    {
      "constant": true,
      "inputs": [],
      "name": "owner",
      "outputs": [
        {
          "name": "",
          "type": "address"
        }
      ],
      "payable": false,
      "stateMutability": "view",
      "type": "function"
    },
    {
      "constant": false,
      "inputs": [
        {
          "name": "_bondHolder",
          "type": "address"
        }
      ],
      "name": "setBondHolder",
      "outputs": [],
      "payable": false,
      "stateMutability": "nonpayable",
      "type": "function"
    },
    {
      "constant": false,
      "inputs": [
        {
          "name": "newOwner",
          "type": "address"
        }
      ],
      "name": "transferOwnership",
      "outputs": [],
      "payable": false,
      "stateMutability": "nonpayable",
      "type": "function"
    },
    {
      "anonymous": false,
      "inputs": [
        {
          "indexed": true,
          "name": "previousOwner",
          "type": "address"
        },
        {
          "indexed": true,
          "name": "newOwner",
          "type": "address"
        }
      ],
      "name": "OwnershipTransferred",
      "type": "event"
    }
  ],
  "bytecode": "0x606060405260008054600160a060020a033316600160a060020a031990911617905561044d806100306000396000f3006060604052600436106100b95763ffffffff7c010000000000000000000000000000000000000000000000000000000060003504166322ed80e881146100be5780632b7ac3f3146100ed5780634d655aff146101005780634d94e7f3146101135780635437988d146101265780635cb6c4121461014757806365401882146101665780637adbf973146101855780637dc0d1d0146101a45780638da5cb5b146101b7578063b60e7877146101ca578063f2fde38b146101e9575b600080fd5b34156100c957600080fd5b6100d1610208565b604051600160a060020a03909116815260200160405180910390f35b34156100f857600080fd5b6100d1610217565b341561010b57600080fd5b6100d1610226565b341561011e57600080fd5b6100d1610235565b341561013157600080fd5b610145600160a060020a0360043516610244565b005b341561015257600080fd5b610145600160a060020a0360043516610281565b341561017157600080fd5b610145600160a060020a03600435166102be565b341561019057600080fd5b610145600160a060020a03600435166102fb565b34156101af57600080fd5b6100d1610338565b34156101c257600080fd5b6100d1610347565b34156101d557600080fd5b610145600160a060020a0360043516610356565b34156101f457600080fd5b610145600160a060020a0360043516610393565b600454600160a060020a031681565b600254600160a060020a031681565b600354600160a060020a031681565b600154600160a060020a031681565b60005433600160a060020a0390811691161461025f57600080fd5b60028054600160a060020a031916600160a060020a0392909216919091179055565b60005433600160a060020a0390811691161461029c57600080fd5b60018054600160a060020a031916600160a060020a0392909216919091179055565b60005433600160a060020a039081169116146102d957600080fd5b60038054600160a060020a031916600160a060020a0392909216919091179055565b60005433600160a060020a0390811691161461031657600080fd5b60058054600160a060020a031916600160a060020a0392909216919091179055565b600554600160a060020a031681565b600054600160a060020a031681565b60005433600160a060020a0390811691161461037157600080fd5b60048054600160a060020a031916600160a060020a0392909216919091179055565b60005433600160a060020a039081169116146103ae57600080fd5b600160a060020a03811615156103c357600080fd5b600054600160a060020a0380831691167f8be0079c531659141344cd1fd0a4f28419497f9722a3daafe3b4186f6b6457e060405160405180910390a360008054600160a060020a031916600160a060020a03929092169190911790555600a165627a7a723058200e7a59e926ac359ea496d93ad296ff513f136832ae724ed91877b011ec46c3ce0029",
  "source": "// Part of the Proven suite of software\n// Copyright © 2017 \"The Partnership\" (Ethereum 0x12B0621D90c69867957A836d677C64c46EC4291D)\n\npragma solidity ^0.4.18;\n\nimport \"zeppelin-solidity/contracts/ownership/Ownable.sol\";\n\n\n/// VerifierRegistry\n/// Allows separation of the contract implementation from the interface so\n/// things like mobile clients only need a single access point, and internal\n/// contracts don't need to store dependents.\ncontract VerifierRegistry is Ownable {\n\n  address public proven;\n  address public verifier;\n  address public db;\n  address public bondHolder;\n  address public oracle;\n\n  function setProven(address _proven) public onlyOwner {\n    proven = _proven;\n  }\n\n  function setVerifier(address _verifier) public onlyOwner {\n    verifier = _verifier;\n  }\n\n  function setDB(address _db) public onlyOwner {\n    db = _db;\n  }\n\n  function setBondHolder(address _bondHolder) public onlyOwner {\n    bondHolder = _bondHolder;\n  }\n\n  function setOracle(address _oracle) public onlyOwner {\n    oracle = _oracle;\n  }\n}\n",
  "sourcePath": "/home/cleduc/src/proven-eth/contracts/VerifierRegistry.sol",
  "compiler": {
    "name": "solc",
    "version": "0.4.18+commit.9cf6e910.Emscripten.clang"
  },
  "schemaVersion": "1.0.1",
  "updatedAt": "2017-12-18T13:13:55.862Z"
}