{
  "contractName": "VerifierDB",
  "abi": [
    {
      "constant": true,
      "inputs": [
        {
          "name": "",
          "type": "bytes32"
        }
      ],
      "name": "verifications",
      "outputs": [
        {
          "name": "state",
          "type": "uint8"
        },
        {
          "name": "bounty",
          "type": "uint256"
        },
        {
          "name": "deposedInBlock",
          "type": "uint256"
        },
        {
          "name": "verifier",
          "type": "address"
        },
        {
          "name": "verifiedInBlock",
          "type": "uint256"
        },
        {
          "name": "challenger",
          "type": "address"
        },
        {
          "name": "challengedInBlock",
          "type": "uint256"
        },
        {
          "name": "bondAmount",
          "type": "uint256"
        },
        {
          "name": "contestor",
          "type": "address"
        }
      ],
      "payable": false,
      "stateMutability": "view",
      "type": "function"
    },
    {
      "constant": false,
      "inputs": [
        {
          "name": "_deposition",
          "type": "bytes32"
        },
        {
          "name": "_ipfsHash",
          "type": "bytes"
        },
        {
          "name": "_verifier",
          "type": "address"
        },
        {
          "name": "_bondAmount",
          "type": "uint256"
        }
      ],
      "name": "verify",
      "outputs": [],
      "payable": false,
      "stateMutability": "nonpayable",
      "type": "function"
    },
    {
      "constant": true,
      "inputs": [
        {
          "name": "_ipfsHash",
          "type": "bytes"
        }
      ],
      "name": "getDepositionFromIPFSHash",
      "outputs": [
        {
          "name": "",
          "type": "bytes32"
        }
      ],
      "payable": false,
      "stateMutability": "view",
      "type": "function"
    },
    {
      "constant": false,
      "inputs": [
        {
          "name": "_deposition",
          "type": "bytes32"
        },
        {
          "name": "_ipfsHash",
          "type": "bytes"
        },
        {
          "name": "_bounty",
          "type": "uint256"
        },
        {
          "name": "_deposedInBlock",
          "type": "uint256"
        }
      ],
      "name": "initialize",
      "outputs": [],
      "payable": false,
      "stateMutability": "nonpayable",
      "type": "function"
    },
    {
      "constant": false,
      "inputs": [
        {
          "name": "_deposition",
          "type": "bytes32"
        },
        {
          "name": "_challenger",
          "type": "address"
        },
        {
          "name": "_bondAmount",
          "type": "uint256"
        }
      ],
      "name": "challenge",
      "outputs": [],
      "payable": false,
      "stateMutability": "nonpayable",
      "type": "function"
    },
    {
      "constant": true,
      "inputs": [],
      "name": "registry",
      "outputs": [
        {
          "name": "",
          "type": "address"
        }
      ],
      "payable": false,
      "stateMutability": "view",
      "type": "function"
    },
    {
      "constant": true,
      "inputs": [],
      "name": "owner",
      "outputs": [
        {
          "name": "",
          "type": "address"
        }
      ],
      "payable": false,
      "stateMutability": "view",
      "type": "function"
    },
    {
      "constant": true,
      "inputs": [
        {
          "name": "_deposition",
          "type": "bytes32"
        }
      ],
      "name": "getDetails",
      "outputs": [
        {
          "name": "state",
          "type": "uint8"
        },
        {
          "name": "bounty",
          "type": "uint256"
        },
        {
          "name": "deposedInBlock",
          "type": "uint256"
        },
        {
          "name": "verifier",
          "type": "address"
        },
        {
          "name": "verifiedInBlock",
          "type": "uint256"
        },
        {
          "name": "challenger",
          "type": "address"
        },
        {
          "name": "challengedInBlock",
          "type": "uint256"
        },
        {
          "name": "bondAmount",
          "type": "uint256"
        },
        {
          "name": "contestor",
          "type": "address"
        }
      ],
      "payable": false,
      "stateMutability": "view",
      "type": "function"
    },
    {
      "constant": false,
      "inputs": [
        {
          "name": "_deposition",
          "type": "bytes32"
        }
      ],
      "name": "prove",
      "outputs": [],
      "payable": false,
      "stateMutability": "nonpayable",
      "type": "function"
    },
    {
      "constant": false,
      "inputs": [
        {
          "name": "_deposition",
          "type": "bytes32"
        }
      ],
      "name": "disprove",
      "outputs": [],
      "payable": false,
      "stateMutability": "nonpayable",
      "type": "function"
    },
    {
      "constant": false,
      "inputs": [
        {
          "name": "newOwner",
          "type": "address"
        }
      ],
      "name": "transferOwnership",
      "outputs": [],
      "payable": false,
      "stateMutability": "nonpayable",
      "type": "function"
    },
    {
      "constant": false,
      "inputs": [
        {
          "name": "_deposition",
          "type": "bytes32"
        },
        {
          "name": "_contestor",
          "type": "address"
        }
      ],
      "name": "contest",
      "outputs": [],
      "payable": false,
      "stateMutability": "nonpayable",
      "type": "function"
    },
    {
      "inputs": [
        {
          "name": "_registry",
          "type": "address"
        }
      ],
      "payable": false,
      "stateMutability": "nonpayable",
      "type": "constructor"
    },
    {
      "anonymous": false,
      "inputs": [
        {
          "indexed": false,
          "name": "deposition",
          "type": "bytes32"
        },
        {
          "indexed": false,
          "name": "bounty",
          "type": "uint256"
        }
      ],
      "name": "Stored",
      "type": "event"
    },
    {
      "anonymous": false,
      "inputs": [
        {
          "indexed": false,
          "name": "deposition",
          "type": "bytes32"
        },
        {
          "indexed": false,
          "name": "verifier",
          "type": "address"
        }
      ],
      "name": "Verified",
      "type": "event"
    },
    {
      "anonymous": false,
      "inputs": [
        {
          "indexed": false,
          "name": "deposition",
          "type": "bytes32"
        }
      ],
      "name": "Proven",
      "type": "event"
    },
    {
      "anonymous": false,
      "inputs": [
        {
          "indexed": false,
          "name": "deposition",
          "type": "bytes32"
        },
        {
          "indexed": false,
          "name": "challenger",
          "type": "address"
        }
      ],
      "name": "Challenged",
      "type": "event"
    },
    {
      "anonymous": false,
      "inputs": [
        {
          "indexed": false,
          "name": "deposition",
          "type": "bytes32"
        }
      ],
      "name": "Disproven",
      "type": "event"
    },
    {
      "anonymous": false,
      "inputs": [
        {
          "indexed": false,
          "name": "deposition",
          "type": "bytes32"
        },
        {
          "indexed": false,
          "name": "contestor",
          "type": "address"
        }
      ],
      "name": "Contested",
      "type": "event"
    },
    {
      "anonymous": false,
      "inputs": [
        {
          "indexed": true,
          "name": "previousOwner",
          "type": "address"
        },
        {
          "indexed": true,
          "name": "newOwner",
          "type": "address"
        }
      ],
      "name": "OwnershipTransferred",
      "type": "event"
    }
  ],
  "bytecode": "0x6060604052341561000f57600080fd5b6040516020806115a38339810160405280805160008054600160a060020a03338116600160a060020a0319928316179092556001805492909316911617905550506115448061005f6000396000f3006060604052600436106100a05763ffffffff60e060020a60003504166310c74e1681146100a55780631bc0e981146101225780632166b1481461018a5780632208c54e146101ed57806343e7b1491461024a5780637b1039991461026f5780638da5cb5b1461029e578063984bc700146102b15780639baa11be146102c7578063c17e8e8f146102dd578063f2fde38b146102f3578063f66f2dd214610312575b600080fd5b34156100b057600080fd5b6100bb600435610334565b604051808a60068111156100cb57fe5b60ff168152602081019990995250604080890197909752600160a060020a039586166060890152608088019490945291841660a087015260c086015260e08501521661010083015261012090910191505180910390f35b341561012d57600080fd5b610188600480359060446024803590810190830135806020601f8201819004810201604051908101604052818152929190602084018383808284375094965050600160a060020a038535169460200135935061039092505050565b005b341561019557600080fd5b6101db60046024813581810190830135806020601f8201819004810201604051908101604052818152929190602084018383808284375094965061067195505050505050565b60405190815260200160405180910390f35b34156101f857600080fd5b610188600480359060446024803590810190830135806020601f82018190048102016040519081016040528181529291906020840183838082843750949650508435946020013593506106e092505050565b341561025557600080fd5b610188600435600160a060020a03602435166044356109af565b341561027a57600080fd5b610282610c1f565b604051600160a060020a03909116815260200160405180910390f35b34156102a957600080fd5b610282610c2e565b34156102bc57600080fd5b6100bb600435610c3d565b34156102d257600080fd5b610188600435610d41565b34156102e857600080fd5b610188600435610f81565b34156102fe57600080fd5b610188600160a060020a03600435166111c1565b341561031d57600080fd5b610188600435600160a060020a036024351661124f565b600260208190526000918252604090912080546001820154928201546003830154600484015460058501546006860154600787015460089097015460ff90961697969495600160a060020a039485169593949283169391921689565b6103986114b0565b600154600160a060020a0316632b7ac3f36000604051602001526040518163ffffffff1660e060020a028152600401602060405180830381600087803b15156103e057600080fd5b6102c65a03f115156103f157600080fd5b50505060405180519050600160a060020a031633600160a060020a031614151561041a57600080fd5b600085815260026020526040908190209061012090519081016040528154909190829060ff16600681111561044b57fe5b600681111561045657fe5b81526001820154602082015260028083015460408301526003830154600160a060020a039081166060840152600484015460808401526005840154811660a0840152600684015460c0840152600784015460e0840152600890930154909216610100909101529091508181905250600160a060020a038316606082015243608082015260e081018290526000858152600260205260409020819081518154829060ff1916600183600681111561050857fe5b021790555060208201518160010155604082015181600201556060820151600382018054600160a060020a031916600160a060020a03929092169190911790556080820151816004015560a0820151600582018054600160a060020a031916600160a060020a039290921691909117905560c0820151816006015560e082015181600701556101008201516008919091018054600160a060020a031916600160a060020a039092169190911790555083511561062757846003856040518082805190602001908083835b602083106105f15780518252601f1990920191602091820191016105d2565b6001836020036101000a038019825116818451168082178552505050505050905001915050908152602001604051908190039020555b7fa9876a484ea4114b13008f98e07c2e907b22d1f73353badc831b48c45c86630d8584604051918252600160a060020a031660208201526040908101905180910390a15050505050565b60006003826040518082805190602001908083835b602083106106a55780518252601f199092019160209182019101610686565b6001836020036101000a0380198251168184511680821785525050505050509050019150509081526020016040518091039020549050919050565b6106e86114b0565b600154600160a060020a0316632b7ac3f36000604051602001526040518163ffffffff1660e060020a028152600401602060405180830381600087803b151561073057600080fd5b6102c65a03f1151561074157600080fd5b50505060405180519050600160a060020a031633600160a060020a031614151561076a57600080fd5b8351151561077757600080fd5b600085815260026020526040908190209061012090519081016040528154909190829060ff1660068111156107a857fe5b60068111156107b357fe5b81526001828101546020830152600283015460408301526003830154600160a060020a039081166060840152600484015460808401526005840154811660a0840152600684015460c0840152600784015460e084015260089093015490921661010090910152909150818190525060208082018490526040808301849052600087815260029092529020819081518154829060ff1916600183600681111561085757fe5b021790555060208201518160010155604082015181600201556060820151600382018054600160a060020a031916600160a060020a03929092169190911790556080820151816004015560a0820151600582018054600160a060020a031916600160a060020a039290921691909117905560c0820151816006015560e082015181600701556101008201516008919091018054600160a060020a031916600160a060020a0390921691909117905550846003856040518082805190602001908083835b602083106109395780518252601f19909201916020918201910161091a565b6001836020036101000a038019825116818451168082178552505050505050905001915050908152602001604051908190039020557fde02b1ac594e3d12f3797b91ed3e93213c5fcb9a6963fe4003c2fc8287e67c31858460405191825260208201526040908101905180910390a15050505050565b6109b76114b0565b600154600160a060020a0316632b7ac3f36000604051602001526040518163ffffffff1660e060020a028152600401602060405180830381600087803b15156109ff57600080fd5b6102c65a03f11515610a1057600080fd5b50505060405180519050600160a060020a031633600160a060020a0316141515610a3957600080fd5b600084815260026020526040908190209061012090519081016040528154909190829060ff166006811115610a6a57fe5b6006811115610a7557fe5b81526001820154602082015260028201546040820152600380830154600160a060020a039081166060840152600484015460808401526005840154811660a0840152600684015460c0840152600784015460e0840152600890930154909216610100909101529091508181905250600160a060020a03831660a08201524360c082015260e081018290526000848152600260205260409020819081518154829060ff19166001836006811115610b2757fe5b021790555060208201518160010155604082015181600201556060820151600382018054600160a060020a031916600160a060020a03929092169190911790556080820151816004015560a0820151600582018054600160a060020a031916600160a060020a039290921691909117905560c0820151816006015560e082015181600701556101008201516008919091018054600160a060020a031916600160a060020a03909216919091179055507fe9479421670c3425a1497ce47a53af8bd96ce5bd0741e96221ba0acace3f7d478484604051918252600160a060020a031660208201526040908101905180910390a150505050565b600154600160a060020a031681565b600054600160a060020a031681565b6000806000806000806000806000610c536114b0565b60008b815260026020526040908190209061012090519081016040528154909190829060ff166006811115610c8457fe5b6006811115610c8f57fe5b815260018201546020820152600282015460408201526003820154600160a060020a039081166060830152600483015460808301526005830154811660a0830152600683015460c0830152600783015460e083015260089092015490911661010090910152905080519950806020015198508060400151975080606001519650806080015195508060a0015194508060c0015193508060e0015192508061010001519150509193959799909294969850565b610d496114b0565b600154600160a060020a0316632b7ac3f36000604051602001526040518163ffffffff1660e060020a028152600401602060405180830381600087803b1515610d9157600080fd5b6102c65a03f11515610da257600080fd5b50505060405180519050600160a060020a031633600160a060020a0316141515610dcb57600080fd5b600082815260026020526040908190209061012090519081016040528154909190829060ff166006811115610dfc57fe5b6006811115610e0757fe5b815260018201546020820152600282015460408201526003820154600160a060020a03908116606083015260048301546080830152600580840154821660a0840152600684015460c0840152600784015460e0840152600890930154166101009091015290915081819052506000828152600260205260409020819081518154829060ff19166001836006811115610e9b57fe5b021790555060208201518160010155604082015181600201556060820151600382018054600160a060020a031916600160a060020a03929092169190911790556080820151816004015560a0820151600582018054600160a060020a031916600160a060020a039290921691909117905560c0820151816006015560e082015181600701556101008201516008919091018054600160a060020a031916600160a060020a03909216919091179055507fbb22471c37e49af6fa727842540808ad1ca4d0cc02db4eb7ecae888ce640d8c68260405190815260200160405180910390a15050565b610f896114b0565b600154600160a060020a0316632b7ac3f36000604051602001526040518163ffffffff1660e060020a028152600401602060405180830381600087803b1515610fd157600080fd5b6102c65a03f11515610fe257600080fd5b50505060405180519050600160a060020a031633600160a060020a031614151561100b57600080fd5b600082815260026020526040908190209061012090519081016040528154909190829060ff16600681111561103c57fe5b600681111561104757fe5b815260018201546020820152600282015460408201526003820154600160a060020a039081166060830152600483015460808301526005830154811660a083015260068084015460c0840152600784015460e0840152600890930154166101009091015290915081819052506000828152600260205260409020819081518154829060ff191660018360068111156110db57fe5b021790555060208201518160010155604082015181600201556060820151600382018054600160a060020a031916600160a060020a03929092169190911790556080820151816004015560a0820151600582018054600160a060020a031916600160a060020a039290921691909117905560c0820151816006015560e082015181600701556101008201516008919091018054600160a060020a031916600160a060020a03909216919091179055507f3932c3071ad59ab6c54ec3000a6c5bacd85a4745893197bdfac736bc3c0025ca8260405190815260200160405180910390a15050565b60005433600160a060020a039081169116146111dc57600080fd5b600160a060020a03811615156111f157600080fd5b600054600160a060020a0380831691167f8be0079c531659141344cd1fd0a4f28419497f9722a3daafe3b4186f6b6457e060405160405180910390a360008054600160a060020a031916600160a060020a0392909216919091179055565b6112576114b0565b600154600160a060020a0316632b7ac3f36000604051602001526040518163ffffffff1660e060020a028152600401602060405180830381600087803b151561129f57600080fd5b6102c65a03f115156112b057600080fd5b50505060405180519050600160a060020a031633600160a060020a03161415156112d957600080fd5b600083815260026020526040908190209061012090519081016040528154909190829060ff16600681111561130a57fe5b600681111561131557fe5b815260018201546020820152600282015460408201526003820154600160a060020a03908116606083015260048084015460808401526005840154821660a0840152600684015460c0840152600784015460e084015260089093015416610100909101529091508181905250600160a060020a0382166101008201526000838152600260205260409020819081518154829060ff191660018360068111156113b957fe5b021790555060208201518160010155604082015181600201556060820151600382018054600160a060020a031916600160a060020a03929092169190911790556080820151816004015560a0820151600582018054600160a060020a031916600160a060020a039290921691909117905560c0820151816006015560e082015181600701556101008201516008919091018054600160a060020a031916600160a060020a03909216919091179055507f9744d538614cfe6e72e73c50011c8a689c0f9b72e795a892c446e1f009afcf1c8383604051918252600160a060020a031660208201526040908101905180910390a1505050565b610120604051908101604052806000815260200160008152602001600081526020016000600160a060020a03168152602001600081526020016000600160a060020a0316815260200160008152602001600081526020016000600160a060020a0316815250905600a165627a7a7230582087ffe923f91d364464483e62583239f9f6a561256c47a68fce5fdbba6b30210d0029",
  "source": "// Part of the Proven suite of software\n// Copyright © 2017 \"The Partnership\" (Ethereum 0x12B0621D90c69867957A836d677C64c46EC4291D)\n\npragma solidity ^0.4.18;\n\nimport \"zeppelin-solidity/contracts/ownership/Ownable.sol\";\nimport \"./VerifierRegistry.sol\";\n\n\ncontract VerifierDB is Ownable {\n\n  VerifierRegistry public registry;\n\n  mapping(bytes32 => Verification) public verifications;\n  // This cannot be public because it produces \"Internal compiler error:\n  // Accessors for mapping with dynamically-sized keys not yet implemented.\"\n  mapping(bytes => bytes32) internal depositionsFromIPFSHash;\n\n  enum State {\n    Unset,\n    Initialized,\n    Verified,\n    Challenged,\n    Contested,\n    Proven,\n    Disproven\n  }\n\n  struct Verification {\n    State state;\n    uint bounty;\n    uint deposedInBlock;\n    address verifier;\n    uint verifiedInBlock;\n    address challenger;\n    uint challengedInBlock;\n    uint bondAmount;\n    address contestor;\n  }\n\n  event Stored(bytes32 deposition, uint bounty);\n  event Verified(bytes32 deposition, address verifier);\n  event Proven(bytes32 deposition);\n  event Challenged(bytes32 deposition, address challenger);\n  event Disproven(bytes32 deposition);\n  event Contested(bytes32 deposition, address contestor);\n\n  modifier onlyVerifier() {\n    require (msg.sender == registry.verifier());\n    _;\n  }\n\n  // Constructor\n  function VerifierDB(address _registry) public {\n    registry = VerifierRegistry(_registry);\n  }\n\n  // Using the IPFS hash, find out the deposition ID. This is important for a\n  // contract or end user who wants to find out if an IPFS image is verified. \n  function getDepositionFromIPFSHash(bytes _ipfsHash) public view returns(bytes32) {\n    return(depositionsFromIPFSHash[_ipfsHash]);\n  }\n\n  function getDetails(bytes32 _deposition) public view returns(State state, uint bounty, uint deposedInBlock, address verifier, uint verifiedInBlock, address challenger, uint challengedInBlock, uint bondAmount, address contestor) {\n\n    Verification memory v = verifications[_deposition];\n\n    state = v.state;\n    bounty = v.bounty;\n    deposedInBlock = v.deposedInBlock;\n    verifier = v.verifier;\n    verifiedInBlock = v.verifiedInBlock;\n    challenger = v.challenger;\n    challengedInBlock = v.challengedInBlock;\n    bondAmount = v.bondAmount;\n    contestor = v.contestor;\n  }\n\n  // Called by the verifier when it is directly creating a new deposition,\n  // instead of mining one that's already in the chain's logs\n  // (like those created from Proven.publishDeposition).\n  // Thus, the IPFS hash must be known at this point.\n  function initialize(bytes32 _deposition, bytes _ipfsHash, uint _bounty, uint _deposedInBlock) public onlyVerifier {\n\n    require(_ipfsHash.length != 0);\n    Verification memory v = verifications[_deposition];\n\n    v.state = State.Initialized;\n    v.bounty = _bounty;\n    v.deposedInBlock = _deposedInBlock;\n\n    verifications[_deposition] = v;\n    depositionsFromIPFSHash[_ipfsHash] = _deposition;\n\n    Stored(_deposition, _bounty);\n  }\n\n  // This is called to verify a published deposition that already exists either\n  // from Verifier.publishDeposition or from Proven.publishDeposition.\n  // If the IPFS hash is not provided the verification won't be retrievable\n  // by a smart contract or by a user who wants to check its verification without\n  // downloading the full blockchain and scanning the logs, etc.\n  function verify(bytes32 _deposition, bytes _ipfsHash, address _verifier, uint _bondAmount) public onlyVerifier {\n\n    Verification memory v = verifications[_deposition];\n\n    v.state = State.Verified;\n    v.verifier = _verifier;\n    v.verifiedInBlock = block.number;\n    v.bondAmount = _bondAmount;\n\n    verifications[_deposition] = v;\n\n    if (_ipfsHash.length != 0) {\n      depositionsFromIPFSHash[_ipfsHash] = _deposition;\n    }\n\n    Verified(_deposition, _verifier);\n  }\n\n  function prove(bytes32 _deposition) public onlyVerifier {\n\n    Verification memory v = verifications[_deposition];\n\n    v.state = State.Proven;\n\n    verifications[_deposition] = v;\n\n    Proven(_deposition);\n  }\n\n  function challenge(bytes32 _deposition, address _challenger, uint _bondAmount) public onlyVerifier {\n\n    Verification memory v = verifications[_deposition];\n\n    v.state = State.Challenged;\n    v.challenger = _challenger;\n    v.challengedInBlock = block.number;\n    v.bondAmount = _bondAmount;\n\n    verifications[_deposition] = v;\n\n    Challenged(_deposition, _challenger);\n  }\n\n  function disprove(bytes32 _deposition) public onlyVerifier {\n\n    Verification memory v = verifications[_deposition];\n\n    v.state = State.Disproven;\n\n    verifications[_deposition] = v;\n\n    Disproven(_deposition);\n  }\n\n  function contest(bytes32 _deposition, address _contestor) public onlyVerifier {\n\n    Verification memory v = verifications[_deposition];\n\n    v.state = State.Contested;\n    v.contestor = _contestor;\n\n    verifications[_deposition] = v;\n\n    Contested(_deposition, _contestor);\n  }\n}\n",
  "sourcePath": "/home/cleduc/src/proven-eth/contracts/VerifierDB.sol",
  "compiler": {
    "name": "solc",
    "version": "0.4.18+commit.9cf6e910.Emscripten.clang"
  },
  "schemaVersion": "1.0.1",
  "updatedAt": "2017-12-19T10:52:41.415Z"
}