{
  "contractName": "VerifierDB",
  "abi": [
    {
      "constant": true,
      "inputs": [
        {
          "name": "",
          "type": "bytes32"
        }
      ],
      "name": "verifications",
      "outputs": [
        {
          "name": "state",
          "type": "uint8"
        },
        {
          "name": "bounty",
          "type": "uint256"
        },
        {
          "name": "deposedInBlock",
          "type": "uint256"
        },
        {
          "name": "verifier",
          "type": "address"
        },
        {
          "name": "verifiedInBlock",
          "type": "uint256"
        },
        {
          "name": "challenger",
          "type": "address"
        },
        {
          "name": "challengedInBlock",
          "type": "uint256"
        },
        {
          "name": "bondAmount",
          "type": "uint256"
        },
        {
          "name": "contestor",
          "type": "address"
        }
      ],
      "payable": false,
      "stateMutability": "view",
      "type": "function"
    },
    {
      "constant": false,
      "inputs": [
        {
          "name": "_deposition",
          "type": "bytes32"
        },
        {
          "name": "_ipfsHash",
          "type": "bytes"
        },
        {
          "name": "_verifier",
          "type": "address"
        },
        {
          "name": "_bondAmount",
          "type": "uint256"
        }
      ],
      "name": "verify",
      "outputs": [],
      "payable": false,
      "stateMutability": "nonpayable",
      "type": "function"
    },
    {
      "constant": true,
      "inputs": [
        {
          "name": "_ipfsHash",
          "type": "bytes"
        }
      ],
      "name": "getDepositionFromIPFSHash",
      "outputs": [
        {
          "name": "",
          "type": "bytes32"
        }
      ],
      "payable": false,
      "stateMutability": "view",
      "type": "function"
    },
    {
      "constant": false,
      "inputs": [
        {
          "name": "_deposition",
          "type": "bytes32"
        },
        {
          "name": "_ipfsHash",
          "type": "bytes"
        },
        {
          "name": "_bounty",
          "type": "uint256"
        },
        {
          "name": "_deposedInBlock",
          "type": "uint256"
        }
      ],
      "name": "initialize",
      "outputs": [],
      "payable": false,
      "stateMutability": "nonpayable",
      "type": "function"
    },
    {
      "constant": false,
      "inputs": [
        {
          "name": "_deposition",
          "type": "bytes32"
        },
        {
          "name": "_challenger",
          "type": "address"
        },
        {
          "name": "_bondAmount",
          "type": "uint256"
        }
      ],
      "name": "challenge",
      "outputs": [],
      "payable": false,
      "stateMutability": "nonpayable",
      "type": "function"
    },
    {
      "constant": true,
      "inputs": [],
      "name": "registry",
      "outputs": [
        {
          "name": "",
          "type": "address"
        }
      ],
      "payable": false,
      "stateMutability": "view",
      "type": "function"
    },
    {
      "constant": true,
      "inputs": [],
      "name": "owner",
      "outputs": [
        {
          "name": "",
          "type": "address"
        }
      ],
      "payable": false,
      "stateMutability": "view",
      "type": "function"
    },
    {
      "constant": true,
      "inputs": [
        {
          "name": "_deposition",
          "type": "bytes32"
        }
      ],
      "name": "getDetails",
      "outputs": [
        {
          "name": "state",
          "type": "uint8"
        },
        {
          "name": "bounty",
          "type": "uint256"
        },
        {
          "name": "deposedInBlock",
          "type": "uint256"
        },
        {
          "name": "verifier",
          "type": "address"
        },
        {
          "name": "verifiedInBlock",
          "type": "uint256"
        },
        {
          "name": "challenger",
          "type": "address"
        },
        {
          "name": "challengedInBlock",
          "type": "uint256"
        },
        {
          "name": "bondAmount",
          "type": "uint256"
        },
        {
          "name": "contestor",
          "type": "address"
        }
      ],
      "payable": false,
      "stateMutability": "view",
      "type": "function"
    },
    {
      "constant": false,
      "inputs": [
        {
          "name": "_deposition",
          "type": "bytes32"
        }
      ],
      "name": "prove",
      "outputs": [],
      "payable": false,
      "stateMutability": "nonpayable",
      "type": "function"
    },
    {
      "constant": false,
      "inputs": [
        {
          "name": "_deposition",
          "type": "bytes32"
        }
      ],
      "name": "disprove",
      "outputs": [],
      "payable": false,
      "stateMutability": "nonpayable",
      "type": "function"
    },
    {
      "constant": false,
      "inputs": [
        {
          "name": "newOwner",
          "type": "address"
        }
      ],
      "name": "transferOwnership",
      "outputs": [],
      "payable": false,
      "stateMutability": "nonpayable",
      "type": "function"
    },
    {
      "constant": false,
      "inputs": [
        {
          "name": "_deposition",
          "type": "bytes32"
        },
        {
          "name": "_contestor",
          "type": "address"
        }
      ],
      "name": "contest",
      "outputs": [],
      "payable": false,
      "stateMutability": "nonpayable",
      "type": "function"
    },
    {
      "inputs": [
        {
          "name": "_registry",
          "type": "address"
        }
      ],
      "payable": false,
      "stateMutability": "nonpayable",
      "type": "constructor"
    },
    {
      "anonymous": false,
      "inputs": [
        {
          "indexed": false,
          "name": "deposition",
          "type": "bytes32"
        },
        {
          "indexed": false,
          "name": "bounty",
          "type": "uint256"
        }
      ],
      "name": "Stored",
      "type": "event"
    },
    {
      "anonymous": false,
      "inputs": [
        {
          "indexed": false,
          "name": "deposition",
          "type": "bytes32"
        },
        {
          "indexed": false,
          "name": "verifier",
          "type": "address"
        }
      ],
      "name": "Verified",
      "type": "event"
    },
    {
      "anonymous": false,
      "inputs": [
        {
          "indexed": false,
          "name": "deposition",
          "type": "bytes32"
        }
      ],
      "name": "Proven",
      "type": "event"
    },
    {
      "anonymous": false,
      "inputs": [
        {
          "indexed": false,
          "name": "deposition",
          "type": "bytes32"
        },
        {
          "indexed": false,
          "name": "challenger",
          "type": "address"
        }
      ],
      "name": "Challenged",
      "type": "event"
    },
    {
      "anonymous": false,
      "inputs": [
        {
          "indexed": false,
          "name": "deposition",
          "type": "bytes32"
        }
      ],
      "name": "Disproven",
      "type": "event"
    },
    {
      "anonymous": false,
      "inputs": [
        {
          "indexed": false,
          "name": "deposition",
          "type": "bytes32"
        },
        {
          "indexed": false,
          "name": "contestor",
          "type": "address"
        }
      ],
      "name": "Contested",
      "type": "event"
    },
    {
      "anonymous": false,
      "inputs": [
        {
          "indexed": true,
          "name": "previousOwner",
          "type": "address"
        },
        {
          "indexed": true,
          "name": "newOwner",
          "type": "address"
        }
      ],
      "name": "OwnershipTransferred",
      "type": "event"
    }
  ],
  "bytecode": "0x6060604052341561000f57600080fd5b6040516020806127f083398101604052808051906020019091905050336000806101000a81548173ffffffffffffffffffffffffffffffffffffffff021916908373ffffffffffffffffffffffffffffffffffffffff16021790555080600160006101000a81548173ffffffffffffffffffffffffffffffffffffffff021916908373ffffffffffffffffffffffffffffffffffffffff16021790555050612734806100bc6000396000f3006060604052600436106100ba576000357c0100000000000000000000000000000000000000000000000000000000900463ffffffff16806310c74e16146100bf5780631bc0e981146101c45780632166b148146102565780632208c54e146102cf57806343e7b1491461034b5780637b1039991461039a5780638da5cb5b146103ef578063984bc700146104445780639baa11be14610549578063c17e8e8f14610570578063f2fde38b14610597578063f66f2dd2146105d0575b600080fd5b34156100ca57600080fd5b6100e4600480803560001916906020019091905050610616565b604051808a60068111156100f457fe5b60ff1681526020018981526020018881526020018773ffffffffffffffffffffffffffffffffffffffff1673ffffffffffffffffffffffffffffffffffffffff1681526020018681526020018573ffffffffffffffffffffffffffffffffffffffff1673ffffffffffffffffffffffffffffffffffffffff1681526020018481526020018381526020018273ffffffffffffffffffffffffffffffffffffffff1673ffffffffffffffffffffffffffffffffffffffff168152602001995050505050505050505060405180910390f35b34156101cf57600080fd5b61025460048080356000191690602001909190803590602001908201803590602001908080601f0160208091040260200160405190810160405280939291908181526020018383808284378201915050505050509190803573ffffffffffffffffffffffffffffffffffffffff169060200190919080359060200190919050506106d1565b005b341561026157600080fd5b6102b1600480803590602001908201803590602001908080601f01602080910402602001604051908101604052809392919081815260200183838082843782019150505050505091905050610bff565b60405180826000191660001916815260200191505060405180910390f35b34156102da57600080fd5b61034960048080356000191690602001909190803590602001908201803590602001908080601f01602080910402602001604051908101604052809392919081815260200183838082843782019150505050505091908035906020019091908035906020019091905050610c74565b005b341561035657600080fd5b61039860048080356000191690602001909190803573ffffffffffffffffffffffffffffffffffffffff16906020019091908035906020019091905050611143565b005b34156103a557600080fd5b6103ad6115f0565b604051808273ffffffffffffffffffffffffffffffffffffffff1673ffffffffffffffffffffffffffffffffffffffff16815260200191505060405180910390f35b34156103fa57600080fd5b610402611616565b604051808273ffffffffffffffffffffffffffffffffffffffff1673ffffffffffffffffffffffffffffffffffffffff16815260200191505060405180910390f35b341561044f57600080fd5b61046960048080356000191690602001909190505061163b565b604051808a600681111561047957fe5b60ff1681526020018981526020018881526020018773ffffffffffffffffffffffffffffffffffffffff1673ffffffffffffffffffffffffffffffffffffffff1681526020018681526020018573ffffffffffffffffffffffffffffffffffffffff1673ffffffffffffffffffffffffffffffffffffffff1681526020018481526020018381526020018273ffffffffffffffffffffffffffffffffffffffff1673ffffffffffffffffffffffffffffffffffffffff168152602001995050505050505050505060405180910390f35b341561055457600080fd5b61056e60048080356000191690602001909190505061182a565b005b341561057b57600080fd5b610595600480803560001916906020019091905050611c55565b005b34156105a257600080fd5b6105ce600480803573ffffffffffffffffffffffffffffffffffffffff16906020019091905050612080565b005b34156105db57600080fd5b61061460048080356000191690602001909190803573ffffffffffffffffffffffffffffffffffffffff169060200190919050506121d5565b005b60026020528060005260406000206000915090508060000160009054906101000a900460ff16908060010154908060020154908060030160009054906101000a900473ffffffffffffffffffffffffffffffffffffffff16908060040154908060050160009054906101000a900473ffffffffffffffffffffffffffffffffffffffff16908060060154908060070154908060080160009054906101000a900473ffffffffffffffffffffffffffffffffffffffff16905089565b6106d961266e565b600160009054906101000a900473ffffffffffffffffffffffffffffffffffffffff1673ffffffffffffffffffffffffffffffffffffffff16632b7ac3f36000604051602001526040518163ffffffff167c0100000000000000000000000000000000000000000000000000000000028152600401602060405180830381600087803b151561076757600080fd5b6102c65a03f1151561077857600080fd5b5050506040518051905073ffffffffffffffffffffffffffffffffffffffff163373ffffffffffffffffffffffffffffffffffffffff161415156107bb57600080fd5b60026000866000191660001916815260200190815260200160002061012060405190810160405290816000820160009054906101000a900460ff16600681111561080157fe5b600681111561080c57fe5b815260200160018201548152602001600282015481526020016003820160009054906101000a900473ffffffffffffffffffffffffffffffffffffffff1673ffffffffffffffffffffffffffffffffffffffff1673ffffffffffffffffffffffffffffffffffffffff168152602001600482015481526020016005820160009054906101000a900473ffffffffffffffffffffffffffffffffffffffff1673ffffffffffffffffffffffffffffffffffffffff1673ffffffffffffffffffffffffffffffffffffffff16815260200160068201548152602001600782015481526020016008820160009054906101000a900473ffffffffffffffffffffffffffffffffffffffff1673ffffffffffffffffffffffffffffffffffffffff1673ffffffffffffffffffffffffffffffffffffffff1681525050905060028160000190600681111561095857fe5b9081600681111561096557fe5b8152505082816060019073ffffffffffffffffffffffffffffffffffffffff16908173ffffffffffffffffffffffffffffffffffffffff168152505043816080018181525050818160e00181815250508060026000876000191660001916815260200190815260200160002060008201518160000160006101000a81548160ff021916908360068111156109f557fe5b0217905550602082015181600101556040820151816002015560608201518160030160006101000a81548173ffffffffffffffffffffffffffffffffffffffff021916908373ffffffffffffffffffffffffffffffffffffffff1602179055506080820151816004015560a08201518160050160006101000a81548173ffffffffffffffffffffffffffffffffffffffff021916908373ffffffffffffffffffffffffffffffffffffffff16021790555060c0820151816006015560e082015181600701556101008201518160080160006101000a81548173ffffffffffffffffffffffffffffffffffffffff021916908373ffffffffffffffffffffffffffffffffffffffff16021790555090505060008451141515610b8557846003856040518082805190602001908083835b602083101515610b495780518252602082019150602081019050602083039250610b24565b6001836020036101000a038019825116818451168082178552505050505050905001915050908152602001604051809103902081600019169055505b7fa9876a484ea4114b13008f98e07c2e907b22d1f73353badc831b48c45c86630d85846040518083600019166000191681526020018273ffffffffffffffffffffffffffffffffffffffff1673ffffffffffffffffffffffffffffffffffffffff1681526020019250505060405180910390a15050505050565b60006003826040518082805190602001908083835b602083101515610c395780518252602082019150602081019050602083039250610c14565b6001836020036101000a0380198251168184511680821785525050505050509050019150509081526020016040518091039020549050919050565b610c7c61266e565b600160009054906101000a900473ffffffffffffffffffffffffffffffffffffffff1673ffffffffffffffffffffffffffffffffffffffff16632b7ac3f36000604051602001526040518163ffffffff167c0100000000000000000000000000000000000000000000000000000000028152600401602060405180830381600087803b1515610d0a57600080fd5b6102c65a03f11515610d1b57600080fd5b5050506040518051905073ffffffffffffffffffffffffffffffffffffffff163373ffffffffffffffffffffffffffffffffffffffff16141515610d5e57600080fd5b6000845114151515610d6f57600080fd5b60026000866000191660001916815260200190815260200160002061012060405190810160405290816000820160009054906101000a900460ff166006811115610db557fe5b6006811115610dc057fe5b815260200160018201548152602001600282015481526020016003820160009054906101000a900473ffffffffffffffffffffffffffffffffffffffff1673ffffffffffffffffffffffffffffffffffffffff1673ffffffffffffffffffffffffffffffffffffffff168152602001600482015481526020016005820160009054906101000a900473ffffffffffffffffffffffffffffffffffffffff1673ffffffffffffffffffffffffffffffffffffffff1673ffffffffffffffffffffffffffffffffffffffff16815260200160068201548152602001600782015481526020016008820160009054906101000a900473ffffffffffffffffffffffffffffffffffffffff1673ffffffffffffffffffffffffffffffffffffffff1673ffffffffffffffffffffffffffffffffffffffff16815250509050600181600001906006811115610f0c57fe5b90816006811115610f1957fe5b8152505082816020018181525050818160400181815250508060026000876000191660001916815260200190815260200160002060008201518160000160006101000a81548160ff02191690836006811115610f7157fe5b0217905550602082015181600101556040820151816002015560608201518160030160006101000a81548173ffffffffffffffffffffffffffffffffffffffff021916908373ffffffffffffffffffffffffffffffffffffffff1602179055506080820151816004015560a08201518160050160006101000a81548173ffffffffffffffffffffffffffffffffffffffff021916908373ffffffffffffffffffffffffffffffffffffffff16021790555060c0820151816006015560e082015181600701556101008201518160080160006101000a81548173ffffffffffffffffffffffffffffffffffffffff021916908373ffffffffffffffffffffffffffffffffffffffff160217905550905050846003856040518082805190602001908083835b6020831015156110ba5780518252602082019150602081019050602083039250611095565b6001836020036101000a038019825116818451168082178552505050505050905001915050908152602001604051809103902081600019169055507fde02b1ac594e3d12f3797b91ed3e93213c5fcb9a6963fe4003c2fc8287e67c3185846040518083600019166000191681526020018281526020019250505060405180910390a15050505050565b61114b61266e565b600160009054906101000a900473ffffffffffffffffffffffffffffffffffffffff1673ffffffffffffffffffffffffffffffffffffffff16632b7ac3f36000604051602001526040518163ffffffff167c0100000000000000000000000000000000000000000000000000000000028152600401602060405180830381600087803b15156111d957600080fd5b6102c65a03f115156111ea57600080fd5b5050506040518051905073ffffffffffffffffffffffffffffffffffffffff163373ffffffffffffffffffffffffffffffffffffffff1614151561122d57600080fd5b60026000856000191660001916815260200190815260200160002061012060405190810160405290816000820160009054906101000a900460ff16600681111561127357fe5b600681111561127e57fe5b815260200160018201548152602001600282015481526020016003820160009054906101000a900473ffffffffffffffffffffffffffffffffffffffff1673ffffffffffffffffffffffffffffffffffffffff1673ffffffffffffffffffffffffffffffffffffffff168152602001600482015481526020016005820160009054906101000a900473ffffffffffffffffffffffffffffffffffffffff1673ffffffffffffffffffffffffffffffffffffffff1673ffffffffffffffffffffffffffffffffffffffff16815260200160068201548152602001600782015481526020016008820160009054906101000a900473ffffffffffffffffffffffffffffffffffffffff1673ffffffffffffffffffffffffffffffffffffffff1673ffffffffffffffffffffffffffffffffffffffff168152505090506003816000019060068111156113ca57fe5b908160068111156113d757fe5b81525050828160a0019073ffffffffffffffffffffffffffffffffffffffff16908173ffffffffffffffffffffffffffffffffffffffff1681525050438160c0018181525050818160e00181815250508060026000866000191660001916815260200190815260200160002060008201518160000160006101000a81548160ff0219169083600681111561146757fe5b0217905550602082015181600101556040820151816002015560608201518160030160006101000a81548173ffffffffffffffffffffffffffffffffffffffff021916908373ffffffffffffffffffffffffffffffffffffffff1602179055506080820151816004015560a08201518160050160006101000a81548173ffffffffffffffffffffffffffffffffffffffff021916908373ffffffffffffffffffffffffffffffffffffffff16021790555060c0820151816006015560e082015181600701556101008201518160080160006101000a81548173ffffffffffffffffffffffffffffffffffffffff021916908373ffffffffffffffffffffffffffffffffffffffff1602179055509050507fe9479421670c3425a1497ce47a53af8bd96ce5bd0741e96221ba0acace3f7d4784846040518083600019166000191681526020018273ffffffffffffffffffffffffffffffffffffffff1673ffffffffffffffffffffffffffffffffffffffff1681526020019250505060405180910390a150505050565b600160009054906101000a900473ffffffffffffffffffffffffffffffffffffffff1681565b6000809054906101000a900473ffffffffffffffffffffffffffffffffffffffff1681565b600080600080600080600080600061165161266e565b600260008c6000191660001916815260200190815260200160002061012060405190810160405290816000820160009054906101000a900460ff16600681111561169757fe5b60068111156116a257fe5b815260200160018201548152602001600282015481526020016003820160009054906101000a900473ffffffffffffffffffffffffffffffffffffffff1673ffffffffffffffffffffffffffffffffffffffff1673ffffffffffffffffffffffffffffffffffffffff168152602001600482015481526020016005820160009054906101000a900473ffffffffffffffffffffffffffffffffffffffff1673ffffffffffffffffffffffffffffffffffffffff1673ffffffffffffffffffffffffffffffffffffffff16815260200160068201548152602001600782015481526020016008820160009054906101000a900473ffffffffffffffffffffffffffffffffffffffff1673ffffffffffffffffffffffffffffffffffffffff1673ffffffffffffffffffffffffffffffffffffffff1681525050905080600001519950806020015198508060400151975080606001519650806080015195508060a0015194508060c0015193508060e0015192508061010001519150509193959799909294969850565b61183261266e565b600160009054906101000a900473ffffffffffffffffffffffffffffffffffffffff1673ffffffffffffffffffffffffffffffffffffffff16632b7ac3f36000604051602001526040518163ffffffff167c0100000000000000000000000000000000000000000000000000000000028152600401602060405180830381600087803b15156118c057600080fd5b6102c65a03f115156118d157600080fd5b5050506040518051905073ffffffffffffffffffffffffffffffffffffffff163373ffffffffffffffffffffffffffffffffffffffff1614151561191457600080fd5b60026000836000191660001916815260200190815260200160002061012060405190810160405290816000820160009054906101000a900460ff16600681111561195a57fe5b600681111561196557fe5b815260200160018201548152602001600282015481526020016003820160009054906101000a900473ffffffffffffffffffffffffffffffffffffffff1673ffffffffffffffffffffffffffffffffffffffff1673ffffffffffffffffffffffffffffffffffffffff168152602001600482015481526020016005820160009054906101000a900473ffffffffffffffffffffffffffffffffffffffff1673ffffffffffffffffffffffffffffffffffffffff1673ffffffffffffffffffffffffffffffffffffffff16815260200160068201548152602001600782015481526020016008820160009054906101000a900473ffffffffffffffffffffffffffffffffffffffff1673ffffffffffffffffffffffffffffffffffffffff1673ffffffffffffffffffffffffffffffffffffffff16815250509050600581600001906006811115611ab157fe5b90816006811115611abe57fe5b815250508060026000846000191660001916815260200190815260200160002060008201518160000160006101000a81548160ff02191690836006811115611b0257fe5b0217905550602082015181600101556040820151816002015560608201518160030160006101000a81548173ffffffffffffffffffffffffffffffffffffffff021916908373ffffffffffffffffffffffffffffffffffffffff1602179055506080820151816004015560a08201518160050160006101000a81548173ffffffffffffffffffffffffffffffffffffffff021916908373ffffffffffffffffffffffffffffffffffffffff16021790555060c0820151816006015560e082015181600701556101008201518160080160006101000a81548173ffffffffffffffffffffffffffffffffffffffff021916908373ffffffffffffffffffffffffffffffffffffffff1602179055509050507fbb22471c37e49af6fa727842540808ad1ca4d0cc02db4eb7ecae888ce640d8c68260405180826000191660001916815260200191505060405180910390a15050565b611c5d61266e565b600160009054906101000a900473ffffffffffffffffffffffffffffffffffffffff1673ffffffffffffffffffffffffffffffffffffffff16632b7ac3f36000604051602001526040518163ffffffff167c0100000000000000000000000000000000000000000000000000000000028152600401602060405180830381600087803b1515611ceb57600080fd5b6102c65a03f11515611cfc57600080fd5b5050506040518051905073ffffffffffffffffffffffffffffffffffffffff163373ffffffffffffffffffffffffffffffffffffffff16141515611d3f57600080fd5b60026000836000191660001916815260200190815260200160002061012060405190810160405290816000820160009054906101000a900460ff166006811115611d8557fe5b6006811115611d9057fe5b815260200160018201548152602001600282015481526020016003820160009054906101000a900473ffffffffffffffffffffffffffffffffffffffff1673ffffffffffffffffffffffffffffffffffffffff1673ffffffffffffffffffffffffffffffffffffffff168152602001600482015481526020016005820160009054906101000a900473ffffffffffffffffffffffffffffffffffffffff1673ffffffffffffffffffffffffffffffffffffffff1673ffffffffffffffffffffffffffffffffffffffff16815260200160068201548152602001600782015481526020016008820160009054906101000a900473ffffffffffffffffffffffffffffffffffffffff1673ffffffffffffffffffffffffffffffffffffffff1673ffffffffffffffffffffffffffffffffffffffff16815250509050600681600001906006811115611edc57fe5b90816006811115611ee957fe5b815250508060026000846000191660001916815260200190815260200160002060008201518160000160006101000a81548160ff02191690836006811115611f2d57fe5b0217905550602082015181600101556040820151816002015560608201518160030160006101000a81548173ffffffffffffffffffffffffffffffffffffffff021916908373ffffffffffffffffffffffffffffffffffffffff1602179055506080820151816004015560a08201518160050160006101000a81548173ffffffffffffffffffffffffffffffffffffffff021916908373ffffffffffffffffffffffffffffffffffffffff16021790555060c0820151816006015560e082015181600701556101008201518160080160006101000a81548173ffffffffffffffffffffffffffffffffffffffff021916908373ffffffffffffffffffffffffffffffffffffffff1602179055509050507f3932c3071ad59ab6c54ec3000a6c5bacd85a4745893197bdfac736bc3c0025ca8260405180826000191660001916815260200191505060405180910390a15050565b6000809054906101000a900473ffffffffffffffffffffffffffffffffffffffff1673ffffffffffffffffffffffffffffffffffffffff163373ffffffffffffffffffffffffffffffffffffffff161415156120db57600080fd5b600073ffffffffffffffffffffffffffffffffffffffff168173ffffffffffffffffffffffffffffffffffffffff161415151561211757600080fd5b8073ffffffffffffffffffffffffffffffffffffffff166000809054906101000a900473ffffffffffffffffffffffffffffffffffffffff1673ffffffffffffffffffffffffffffffffffffffff167f8be0079c531659141344cd1fd0a4f28419497f9722a3daafe3b4186f6b6457e060405160405180910390a3806000806101000a81548173ffffffffffffffffffffffffffffffffffffffff021916908373ffffffffffffffffffffffffffffffffffffffff16021790555050565b6121dd61266e565b600160009054906101000a900473ffffffffffffffffffffffffffffffffffffffff1673ffffffffffffffffffffffffffffffffffffffff16632b7ac3f36000604051602001526040518163ffffffff167c0100000000000000000000000000000000000000000000000000000000028152600401602060405180830381600087803b151561226b57600080fd5b6102c65a03f1151561227c57600080fd5b5050506040518051905073ffffffffffffffffffffffffffffffffffffffff163373ffffffffffffffffffffffffffffffffffffffff161415156122bf57600080fd5b60026000846000191660001916815260200190815260200160002061012060405190810160405290816000820160009054906101000a900460ff16600681111561230557fe5b600681111561231057fe5b815260200160018201548152602001600282015481526020016003820160009054906101000a900473ffffffffffffffffffffffffffffffffffffffff1673ffffffffffffffffffffffffffffffffffffffff1673ffffffffffffffffffffffffffffffffffffffff168152602001600482015481526020016005820160009054906101000a900473ffffffffffffffffffffffffffffffffffffffff1673ffffffffffffffffffffffffffffffffffffffff1673ffffffffffffffffffffffffffffffffffffffff16815260200160068201548152602001600782015481526020016008820160009054906101000a900473ffffffffffffffffffffffffffffffffffffffff1673ffffffffffffffffffffffffffffffffffffffff1673ffffffffffffffffffffffffffffffffffffffff1681525050905060048160000190600681111561245c57fe5b9081600681111561246957fe5b815250508181610100019073ffffffffffffffffffffffffffffffffffffffff16908173ffffffffffffffffffffffffffffffffffffffff16815250508060026000856000191660001916815260200190815260200160002060008201518160000160006101000a81548160ff021916908360068111156124e657fe5b0217905550602082015181600101556040820151816002015560608201518160030160006101000a81548173ffffffffffffffffffffffffffffffffffffffff021916908373ffffffffffffffffffffffffffffffffffffffff1602179055506080820151816004015560a08201518160050160006101000a81548173ffffffffffffffffffffffffffffffffffffffff021916908373ffffffffffffffffffffffffffffffffffffffff16021790555060c0820151816006015560e082015181600701556101008201518160080160006101000a81548173ffffffffffffffffffffffffffffffffffffffff021916908373ffffffffffffffffffffffffffffffffffffffff1602179055509050507f9744d538614cfe6e72e73c50011c8a689c0f9b72e795a892c446e1f009afcf1c83836040518083600019166000191681526020018273ffffffffffffffffffffffffffffffffffffffff1673ffffffffffffffffffffffffffffffffffffffff1681526020019250505060405180910390a1505050565b610120604051908101604052806000600681111561268857fe5b81526020016000815260200160008152602001600073ffffffffffffffffffffffffffffffffffffffff16815260200160008152602001600073ffffffffffffffffffffffffffffffffffffffff1681526020016000815260200160008152602001600073ffffffffffffffffffffffffffffffffffffffff16815250905600a165627a7a7230582056c5fdb692c6832b5d71da31aa1cc70888d45c79b0bd1db8fd0f599e2dea42eb0029",
  "source": "// Part of the Proven suite of software\n// Copyright  2017 \"The Partnership\" (Ethereum 0x12B0621D90c69867957A836d677C64c46EC4291D)\n\npragma solidity ^0.4.18;\n\nimport \"zeppelin-solidity/contracts/ownership/Ownable.sol\";\nimport \"./VerifierRegistry.sol\";\n\n\ncontract VerifierDB is Ownable {\n\n  VerifierRegistry public registry;\n\n  mapping(bytes32 => Verification) public verifications;\n  // This cannot be public because it produces \"Internal compiler error:\n  // Accessors for mapping with dynamically-sized keys not yet implemented.\"\n  mapping(bytes => bytes32) internal depositionsFromIPFSHash;\n\n  enum State {\n    Unset,\n    Initialized,\n    Verified,\n    Challenged,\n    Contested,\n    Proven,\n    Disproven\n  }\n\n  struct Verification {\n    State state;\n    uint bounty;\n    uint deposedInBlock;\n    address verifier;\n    uint verifiedInBlock;\n    address challenger;\n    uint challengedInBlock;\n    uint bondAmount;\n    address contestor;\n  }\n\n  event Stored(bytes32 deposition, uint bounty);\n  event Verified(bytes32 deposition, address verifier);\n  event Proven(bytes32 deposition);\n  event Challenged(bytes32 deposition, address challenger);\n  event Disproven(bytes32 deposition);\n  event Contested(bytes32 deposition, address contestor);\n\n  modifier onlyVerifier() {\n    require (msg.sender == registry.verifier());\n    _;\n  }\n\n  // Constructor\n  function VerifierDB(address _registry) public {\n    registry = VerifierRegistry(_registry);\n  }\n\n  // Using the IPFS hash, find out the deposition ID. This is important for a\n  // contract or end user who wants to find out if an IPFS image is verified. \n  function getDepositionFromIPFSHash(bytes _ipfsHash) public view returns(bytes32) {\n    return(depositionsFromIPFSHash[_ipfsHash]);\n  }\n\n  function getDetails(bytes32 _deposition) public view returns(State state, uint bounty, uint deposedInBlock, address verifier, uint verifiedInBlock, address challenger, uint challengedInBlock, uint bondAmount, address contestor) {\n\n    Verification memory v = verifications[_deposition];\n\n    state = v.state;\n    bounty = v.bounty;\n    deposedInBlock = v.deposedInBlock;\n    verifier = v.verifier;\n    verifiedInBlock = v.verifiedInBlock;\n    challenger = v.challenger;\n    challengedInBlock = v.challengedInBlock;\n    bondAmount = v.bondAmount;\n    contestor = v.contestor;\n  }\n\n  // Called by the verifier when it is directly creating a new deposition,\n  // instead of mining one that's already in the chain's logs\n  // (like those created from Proven.publishDeposition).\n  // Thus, the IPFS hash must be known at this point.\n  function initialize(bytes32 _deposition, bytes _ipfsHash, uint _bounty, uint _deposedInBlock) public onlyVerifier {\n\n    require(_ipfsHash.length != 0);\n    Verification memory v = verifications[_deposition];\n\n    v.state = State.Initialized;\n    v.bounty = _bounty;\n    v.deposedInBlock = _deposedInBlock;\n\n    verifications[_deposition] = v;\n    depositionsFromIPFSHash[_ipfsHash] = _deposition;\n\n    Stored(_deposition, _bounty);\n  }\n\n  // This is called to verify a published deposition that already exists either\n  // from Verifier.publishDeposition or from Proven.publishDeposition.\n  // If the IPFS hash is not provided the verification won't be retrievable\n  // by a smart contract or by a user who wants to check its verification without\n  // downloading the full blockchain and scanning the logs, etc.\n  function verify(bytes32 _deposition, bytes _ipfsHash, address _verifier, uint _bondAmount) public onlyVerifier {\n\n    Verification memory v = verifications[_deposition];\n\n    v.state = State.Verified;\n    v.verifier = _verifier;\n    v.verifiedInBlock = block.number;\n    v.bondAmount = _bondAmount;\n\n    verifications[_deposition] = v;\n\n    if (_ipfsHash.length != 0) {\n      depositionsFromIPFSHash[_ipfsHash] = _deposition;\n    }\n\n    Verified(_deposition, _verifier);\n  }\n\n  function prove(bytes32 _deposition) public onlyVerifier {\n\n    Verification memory v = verifications[_deposition];\n\n    v.state = State.Proven;\n\n    verifications[_deposition] = v;\n\n    Proven(_deposition);\n  }\n\n  function challenge(bytes32 _deposition, address _challenger, uint _bondAmount) public onlyVerifier {\n\n    Verification memory v = verifications[_deposition];\n\n    v.state = State.Challenged;\n    v.challenger = _challenger;\n    v.challengedInBlock = block.number;\n    v.bondAmount = _bondAmount;\n\n    verifications[_deposition] = v;\n\n    Challenged(_deposition, _challenger);\n  }\n\n  function disprove(bytes32 _deposition) public onlyVerifier {\n\n    Verification memory v = verifications[_deposition];\n\n    v.state = State.Disproven;\n\n    verifications[_deposition] = v;\n\n    Disproven(_deposition);\n  }\n\n  function contest(bytes32 _deposition, address _contestor) public onlyVerifier {\n\n    Verification memory v = verifications[_deposition];\n\n    v.state = State.Contested;\n    v.contestor = _contestor;\n\n    verifications[_deposition] = v;\n\n    Contested(_deposition, _contestor);\n  }\n}\n",
  "sourcePath": "/home/cleduc/src/proven-eth/contracts/VerifierDB.sol",
  "compiler": {
    "name": "solc",
    "version": "0.4.18+commit.9cf6e910.Emscripten.clang"
  },
  "schemaVersion": "1.0.1",
  "updatedAt": "2017-12-14T10:49:15.782Z"
}