{
  "contractName": "Verifier",
  "abi": [
    {
      "constant": false,
      "inputs": [
        {
          "name": "_deposition",
          "type": "bytes32"
        }
      ],
      "name": "claimVerificationReward",
      "outputs": [],
      "payable": false,
      "stateMutability": "nonpayable",
      "type": "function"
    },
    {
      "constant": false,
      "inputs": [
        {
          "name": "_ipfsHash",
          "type": "bytes"
        }
      ],
      "name": "publishDeposition",
      "outputs": [
        {
          "name": "",
          "type": "bytes32"
        }
      ],
      "payable": true,
      "stateMutability": "payable",
      "type": "function"
    },
    {
      "constant": true,
      "inputs": [
        {
          "name": "_ipfsHash",
          "type": "bytes"
        }
      ],
      "name": "getDepositionFromIPFSHash",
      "outputs": [
        {
          "name": "",
          "type": "bytes32"
        }
      ],
      "payable": false,
      "stateMutability": "view",
      "type": "function"
    },
    {
      "constant": false,
      "inputs": [
        {
          "name": "_timeoutBlockCount",
          "type": "uint256"
        }
      ],
      "name": "setTimeoutBlockCount",
      "outputs": [],
      "payable": false,
      "stateMutability": "nonpayable",
      "type": "function"
    },
    {
      "constant": false,
      "inputs": [
        {
          "name": "_deposition",
          "type": "bytes32"
        }
      ],
      "name": "contestChallenge",
      "outputs": [],
      "payable": false,
      "stateMutability": "nonpayable",
      "type": "function"
    },
    {
      "constant": false,
      "inputs": [
        {
          "name": "_amount",
          "type": "uint256"
        }
      ],
      "name": "withdraw",
      "outputs": [],
      "payable": false,
      "stateMutability": "nonpayable",
      "type": "function"
    },
    {
      "constant": false,
      "inputs": [
        {
          "name": "_deposition",
          "type": "bytes32"
        }
      ],
      "name": "contestVerification",
      "outputs": [],
      "payable": false,
      "stateMutability": "nonpayable",
      "type": "function"
    },
    {
      "constant": false,
      "inputs": [
        {
          "name": "_deposition",
          "type": "bytes32"
        }
      ],
      "name": "claimChallengeReward",
      "outputs": [],
      "payable": false,
      "stateMutability": "nonpayable",
      "type": "function"
    },
    {
      "constant": false,
      "inputs": [
        {
          "name": "_deposition",
          "type": "bytes32"
        },
        {
          "name": "_ipfsHash",
          "type": "bytes"
        },
        {
          "name": "_deposedInBlock",
          "type": "uint256"
        }
      ],
      "name": "initializeDeposition",
      "outputs": [],
      "payable": true,
      "stateMutability": "payable",
      "type": "function"
    },
    {
      "constant": false,
      "inputs": [
        {
          "name": "_fee",
          "type": "uint256"
        }
      ],
      "name": "setFee",
      "outputs": [],
      "payable": false,
      "stateMutability": "nonpayable",
      "type": "function"
    },
    {
      "constant": true,
      "inputs": [],
      "name": "registry",
      "outputs": [
        {
          "name": "",
          "type": "address"
        }
      ],
      "payable": false,
      "stateMutability": "view",
      "type": "function"
    },
    {
      "constant": false,
      "inputs": [
        {
          "name": "_deposition",
          "type": "bytes32"
        }
      ],
      "name": "challengeDeposition",
      "outputs": [],
      "payable": false,
      "stateMutability": "nonpayable",
      "type": "function"
    },
    {
      "constant": true,
      "inputs": [],
      "name": "owner",
      "outputs": [
        {
          "name": "",
          "type": "address"
        }
      ],
      "payable": false,
      "stateMutability": "view",
      "type": "function"
    },
    {
      "constant": false,
      "inputs": [
        {
          "name": "_registry",
          "type": "address"
        }
      ],
      "name": "setRegistry",
      "outputs": [],
      "payable": false,
      "stateMutability": "nonpayable",
      "type": "function"
    },
    {
      "constant": false,
      "inputs": [
        {
          "name": "_deposition",
          "type": "bytes32"
        },
        {
          "name": "_proven",
          "type": "bool"
        }
      ],
      "name": "decideChallenge",
      "outputs": [],
      "payable": false,
      "stateMutability": "nonpayable",
      "type": "function"
    },
    {
      "constant": false,
      "inputs": [
        {
          "name": "_requiredBondAmount",
          "type": "uint256"
        }
      ],
      "name": "setRequiredBondAmount",
      "outputs": [],
      "payable": false,
      "stateMutability": "nonpayable",
      "type": "function"
    },
    {
      "constant": true,
      "inputs": [],
      "name": "requiredBondAmount",
      "outputs": [
        {
          "name": "",
          "type": "uint256"
        }
      ],
      "payable": false,
      "stateMutability": "view",
      "type": "function"
    },
    {
      "constant": false,
      "inputs": [
        {
          "name": "_deposition",
          "type": "bytes32"
        }
      ],
      "name": "verifyDeposition",
      "outputs": [],
      "payable": false,
      "stateMutability": "nonpayable",
      "type": "function"
    },
    {
      "constant": false,
      "inputs": [
        {
          "name": "_deposition",
          "type": "bytes32"
        },
        {
          "name": "_ipfsHash",
          "type": "bytes"
        }
      ],
      "name": "verifyDeposition",
      "outputs": [],
      "payable": false,
      "stateMutability": "nonpayable",
      "type": "function"
    },
    {
      "constant": true,
      "inputs": [],
      "name": "fee",
      "outputs": [
        {
          "name": "",
          "type": "uint256"
        }
      ],
      "payable": false,
      "stateMutability": "view",
      "type": "function"
    },
    {
      "constant": false,
      "inputs": [
        {
          "name": "newOwner",
          "type": "address"
        }
      ],
      "name": "transferOwnership",
      "outputs": [],
      "payable": false,
      "stateMutability": "nonpayable",
      "type": "function"
    },
    {
      "constant": true,
      "inputs": [],
      "name": "timeoutBlockCount",
      "outputs": [
        {
          "name": "",
          "type": "uint256"
        }
      ],
      "payable": false,
      "stateMutability": "view",
      "type": "function"
    },
    {
      "inputs": [
        {
          "name": "_registry",
          "type": "address"
        },
        {
          "name": "_fee",
          "type": "uint256"
        },
        {
          "name": "_timeoutBlockCount",
          "type": "uint256"
        },
        {
          "name": "_requiredBondAmount",
          "type": "uint256"
        }
      ],
      "payable": false,
      "stateMutability": "nonpayable",
      "type": "constructor"
    },
    {
      "anonymous": false,
      "inputs": [
        {
          "indexed": false,
          "name": "deposition",
          "type": "bytes32"
        },
        {
          "indexed": false,
          "name": "deponent",
          "type": "address"
        },
        {
          "indexed": false,
          "name": "ipfsHash",
          "type": "bytes"
        },
        {
          "indexed": false,
          "name": "bounty",
          "type": "uint256"
        }
      ],
      "name": "DepositionPublished",
      "type": "event"
    },
    {
      "anonymous": false,
      "inputs": [
        {
          "indexed": false,
          "name": "deposition",
          "type": "bytes32"
        },
        {
          "indexed": false,
          "name": "verifier",
          "type": "address"
        }
      ],
      "name": "DepositionVerified",
      "type": "event"
    },
    {
      "anonymous": false,
      "inputs": [
        {
          "indexed": false,
          "name": "deposition",
          "type": "bytes32"
        },
        {
          "indexed": false,
          "name": "verifier",
          "type": "address"
        }
      ],
      "name": "DepositionProven",
      "type": "event"
    },
    {
      "anonymous": false,
      "inputs": [
        {
          "indexed": false,
          "name": "deposition",
          "type": "bytes32"
        },
        {
          "indexed": false,
          "name": "challenger",
          "type": "address"
        }
      ],
      "name": "DepositionChallenged",
      "type": "event"
    },
    {
      "anonymous": false,
      "inputs": [
        {
          "indexed": false,
          "name": "deposition",
          "type": "bytes32"
        },
        {
          "indexed": false,
          "name": "challenger",
          "type": "address"
        }
      ],
      "name": "DepositionDisproven",
      "type": "event"
    },
    {
      "anonymous": false,
      "inputs": [
        {
          "indexed": false,
          "name": "deposition",
          "type": "bytes32"
        },
        {
          "indexed": false,
          "name": "contestor",
          "type": "address"
        }
      ],
      "name": "DepositionContested",
      "type": "event"
    },
    {
      "anonymous": false,
      "inputs": [
        {
          "indexed": true,
          "name": "previousOwner",
          "type": "address"
        },
        {
          "indexed": true,
          "name": "newOwner",
          "type": "address"
        }
      ],
      "name": "OwnershipTransferred",
      "type": "event"
    }
  ],
  "bytecode": "0x6060604052341561000f57600080fd5b6040516080806120588339810160405280805191906020018051919060200180519190602001805160008054600160a060020a03338116600160a060020a03199283161790925560018054989092169716969096179095555050600291909155600355600455611fd4806100846000396000f30060606040526004361061010d5763ffffffff60e060020a6000350416622f44ae81146101125780631b504a4f1461012a5780632166b1481461018257806325802b2e146101d35780632a0dd9d9146101e95780632e1a7d4d146101ff5780635868ddab146102155780635fdbde9a1461022b57806360a7744d1461024157806369fe0e2d1461028e5780637b103999146102a457806387685552146102d35780638da5cb5b146102e9578063a91ee0dc146102fc578063bb4f21ba1461031b578063bdc9dde414610336578063c3726ecf1461034c578063c970679a1461035f578063d7b3f93714610375578063ddca3f43146103cb578063f2fde38b146103de578063ff703178146103fd575b600080fd5b341561011d57600080fd5b610128600435610410565b005b61017060046024813581810190830135806020601f8201819004810201604051908101604052818152929190602084018383808284375094965061072395505050505050565b60405190815260200160405180910390f35b341561018d57600080fd5b61017060046024813581810190830135806020601f8201819004810201604051908101604052818152929190602084018383808284375094965061089995505050505050565b34156101de57600080fd5b6101286004356109d5565b34156101f457600080fd5b6101286004356109f5565b341561020a57600080fd5b610128600435610a03565b341561022057600080fd5b610128600435610a63565b341561023657600080fd5b610128600435610a6e565b610128600480359060446024803590810190830135806020601f820181900481020160405190810160405281815292919060208401838380828437509496505093359350610d8192505050565b341561029957600080fd5b610128600435610f91565b34156102af57600080fd5b6102b7610fb1565b604051600160a060020a03909116815260200160405180910390f35b34156102de57600080fd5b610128600435610fc0565b34156102f457600080fd5b6102b76112f6565b341561030757600080fd5b610128600160a060020a0360043516611305565b341561032657600080fd5b610128600435602435151561134f565b341561034157600080fd5b610128600435611670565b341561035757600080fd5b610170611690565b341561036a57600080fd5b610128600435611696565b341561038057600080fd5b610128600480359060446024803590810190830135806020601f820181900481020160405190810160405281815292919060208401838380828437509496506116aa95505050505050565b34156103d657600080fd5b610170611ad7565b34156103e957600080fd5b610128600160a060020a0360043516611add565b341561040857600080fd5b610170611b78565b600154600090819081908190819081908190600160a060020a0316634d655aff82604051602001526040518163ffffffff1660e060020a028152600401602060405180830381600087803b151561046657600080fd5b6102c65a03f1151561047757600080fd5b5050506040518051975050600160a060020a03871663984bc700896000604051610120015260405160e060020a63ffffffff8416028152600481019190915260240161012060405180830381600087803b15156104d357600080fd5b6102c65a03f115156104e457600080fd5b5050506040518051906020018051906020018051906020018051906020018051906020018051906020018051906020018051906020018051905050985050509650965050955095506002600681111561053957fe5b86600681111561054557fe5b1461054f57600080fd5b600354830143101561056057600080fd5b33600160a060020a031684600160a060020a031614151561058057600080fd5b86600160a060020a0316639baa11be8960405160e060020a63ffffffff84160281526004810191909152602401600060405180830381600087803b15156105c657600080fd5b6102c65a03f115156105d757600080fd5b5050600154600160a060020a031690506322ed80e86000604051602001526040518163ffffffff1660e060020a028152600401602060405180830381600087803b151561062357600080fd5b6102c65a03f1151561063457600080fd5b5050506040518051915050600160a060020a03811663595d3350338460405160e060020a63ffffffff8516028152600160a060020a0390921660048301526024820152604401600060405180830381600087803b151561069357600080fd5b6102c65a03f115156106a457600080fd5b5050600160a060020a033316905085156108fc0286604051600060405180830381858888f1935050505015156106d657fe5b7fc2e4f34f07b1fb2f445412f04539a1baefc37704ecb91d746f6acda83c6e73888833604051918252600160a060020a031660208201526040908101905180910390a15050505050505050565b6000806000600254341015151561073957600080fd5b600154600160a060020a0316634d94e7f36000604051602001526040518163ffffffff1660e060020a028152600401602060405180830381600087803b151561078157600080fd5b6102c65a03f1151561079257600080fd5b5050506040518051925050600160a060020a03821663c36a440a33866000604051602001526040518363ffffffff1660e060020a0281526004018083600160a060020a0316600160a060020a0316815260200180602001828103825283818151815260200191508051906020019080838360005b8381101561081e578082015183820152602001610806565b50505050905090810190601f16801561084b5780820380516001836020036101000a031916815260200191505b509350505050602060405180830381600087803b151561086a57600080fd5b6102c65a03f1151561087b57600080fd5b505050604051805190509050610892818543610d81565b9392505050565b6001546000908190600160a060020a0316634d655aff82604051602001526040518163ffffffff1660e060020a028152600401602060405180830381600087803b15156108e557600080fd5b6102c65a03f115156108f657600080fd5b5050506040518051915050600160a060020a038116632166b148846000604051602001526040518263ffffffff1660e060020a0281526004018080602001828103825283818151815260200191508051906020019080838360005b83811015610969578082015183820152602001610951565b50505050905090810190601f1680156109965780820380516001836020036101000a031916815260200191505b5092505050602060405180830381600087803b15156109b457600080fd5b6102c65a03f115156109c557600080fd5b5050506040518051949350505050565b60005433600160a060020a039081169116146109f057600080fd5b600355565b610a00816003611b7e565b50565b60005433600160a060020a03908116911614610a1e57600080fd5b600160a060020a03301631811115610a3557600080fd5b600160a060020a03331681156108fc0282604051600060405180830381858888f193505050501515610a0057fe5b610a00816002611b7e565b600154600090819081908190819081908190600160a060020a0316634d655aff82604051602001526040518163ffffffff1660e060020a028152600401602060405180830381600087803b1515610ac457600080fd5b6102c65a03f11515610ad557600080fd5b5050506040518051975050600160a060020a03871663984bc700896000604051610120015260405160e060020a63ffffffff8416028152600481019190915260240161012060405180830381600087803b1515610b3157600080fd5b6102c65a03f11515610b4257600080fd5b50505060405180519060200180519060200180519060200180519060200180519060200180519060200180519060200180519060200180519050509850985098505050509550955060036006811115610b9757fe5b866006811115610ba357fe5b14610bad57600080fd5b6003548301431015610bbe57600080fd5b33600160a060020a031684600160a060020a0316141515610bde57600080fd5b86600160a060020a031663c17e8e8f8960405160e060020a63ffffffff84160281526004810191909152602401600060405180830381600087803b1515610c2457600080fd5b6102c65a03f11515610c3557600080fd5b5050600154600160a060020a031690506322ed80e86000604051602001526040518163ffffffff1660e060020a028152600401602060405180830381600087803b1515610c8157600080fd5b6102c65a03f11515610c9257600080fd5b5050506040518051915050600160a060020a03811663595d3350338460405160e060020a63ffffffff8516028152600160a060020a0390921660048301526024820152604401600060405180830381600087803b1515610cf157600080fd5b6102c65a03f11515610d0257600080fd5b5050600160a060020a033316905085156108fc0286604051600060405180830381858888f193505050501515610d3457fe5b7f86c16314f66c826f30f1615dff5d463030181d7d327f586e2f350f136575773b8833604051918252600160a060020a031660208201526040908101905180910390a15050505050505050565b600254600090341015610d9357600080fd5b600154600160a060020a0316634d655aff6000604051602001526040518163ffffffff1660e060020a028152600401602060405180830381600087803b1515610ddb57600080fd5b6102c65a03f11515610dec57600080fd5b5050506040518051915050600160a060020a038116632208c54e8585348660405160e060020a63ffffffff8716028152600481018581526044820184905260648201839052608060248301908152909160840185818151815260200191508051906020019080838360005b83811015610e6f578082015183820152602001610e57565b50505050905090810190601f168015610e9c5780820380516001836020036101000a031916815260200191505b5095505050505050600060405180830381600087803b1515610ebd57600080fd5b6102c65a03f11515610ece57600080fd5b5050507fdf1bf7d6be82c9b65119a6e84da2e706f161aa34d2f9cda311756f775717a0ab84338534604051848152600160a060020a03841660208201526060810182905260806040820181815290820184818151815260200191508051906020019080838360005b83811015610f4e578082015183820152602001610f36565b50505050905090810190601f168015610f7b5780820380516001836020036101000a031916815260200191505b509550505050505060405180910390a150505050565b60005433600160a060020a03908116911614610fac57600080fd5b600255565b600154600160a060020a031681565b60015460009081908190600160a060020a03166322ed80e882604051602001526040518163ffffffff1660e060020a028152600401602060405180830381600087803b151561100e57600080fd5b6102c65a03f1151561101f57600080fd5b5050506040518051935050600160a060020a038316634aa5e8853360006040516020015260405160e060020a63ffffffff8416028152600160a060020a039091166004820152602401602060405180830381600087803b151561108157600080fd5b6102c65a03f1151561109257600080fd5b5050506040518051905015156110a757600080fd5b600154600160a060020a0316634d655aff6000604051602001526040518163ffffffff1660e060020a028152600401602060405180830381600087803b15156110ef57600080fd5b6102c65a03f1151561110057600080fd5b5050506040518051925050600160a060020a03821663984bc700856000604051610120015260405160e060020a63ffffffff8416028152600481019190915260240161012060405180830381600087803b151561115c57600080fd5b6102c65a03f1151561116d57600080fd5b505050604051805190602001805190602001805190602001805190602001805190602001805190602001805190602001805190602001805150979850600197506111ba9650505050505050565b8160068111156111c657fe5b146111d057600080fd5b81600160a060020a03166343e7b149853360045460405160e060020a63ffffffff86160281526004810193909352600160a060020a0390911660248301526044820152606401600060405180830381600087803b151561122f57600080fd5b6102c65a03f1151561124057600080fd5b50505082600160a060020a031663ca7a285f3360045460405160e060020a63ffffffff8516028152600160a060020a0390921660048301526024820152604401600060405180830381600087803b151561129957600080fd5b6102c65a03f115156112aa57600080fd5b5050507f9406ac2e711bfea9ead0fec13923bcff79265b3f2ef9400ba64e9dd89d7a4f798433604051918252600160a060020a031660208201526040908101905180910390a150505050565b600054600160a060020a031681565b60005433600160a060020a0390811691161461132057600080fd5b6001805473ffffffffffffffffffffffffffffffffffffffff1916600160a060020a0392909216919091179055565b60015460009081908190819081908190600160a060020a0316637dc0d1d082604051602001526040518163ffffffff1660e060020a028152600401602060405180830381600087803b15156113a357600080fd5b6102c65a03f115156113b457600080fd5b505050604051805196505033600160a060020a03908116908716146113d857600080fd5b600154600160a060020a0316634d655aff6000604051602001526040518163ffffffff1660e060020a028152600401602060405180830381600087803b151561142057600080fd5b6102c65a03f1151561143157600080fd5b5050506040518051955050600160a060020a03851663984bc700896000604051610120015260405160e060020a63ffffffff8416028152600481019190915260240161012060405180830381600087803b151561148d57600080fd5b6102c65a03f1151561149e57600080fd5b5050506040518051906020018051906020018051906020018051906020018051906020018051906020018051906020018051906020018051905098509850505050955050509350600460068111156114f257fe5b8460068111156114fe57fe5b1461150857600080fd5b86156115bc5784600160a060020a0316639baa11be8960405160e060020a63ffffffff84160281526004810191909152602401600060405180830381600087803b151561155457600080fd5b6102c65a03f1151561156557600080fd5b50505061157483838389611dad565b7fc2e4f34f07b1fb2f445412f04539a1baefc37704ecb91d746f6acda83c6e73888884604051918252600160a060020a031660208201526040908101905180910390a1611666565b84600160a060020a031663c17e8e8f8960405160e060020a63ffffffff84160281526004810191909152602401600060405180830381600087803b151561160257600080fd5b6102c65a03f1151561161357600080fd5b50505061162281838589611dad565b7f86c16314f66c826f30f1615dff5d463030181d7d327f586e2f350f136575773b8882604051918252600160a060020a031660208201526040908101905180910390a15b5050505050505050565b60005433600160a060020a0390811691161461168b57600080fd5b600455565b60045481565b610a00816020604051908101604052600081525b60015460009081908190600160a060020a03166322ed80e882604051602001526040518163ffffffff1660e060020a028152600401602060405180830381600087803b15156116f857600080fd5b6102c65a03f1151561170957600080fd5b5050506040518051935050600160a060020a038316634aa5e8853360006040516020015260405160e060020a63ffffffff8416028152600160a060020a039091166004820152602401602060405180830381600087803b151561176b57600080fd5b6102c65a03f1151561177c57600080fd5b50505060405180519050151561179157600080fd5b600060045484600160a060020a0316633cfe6cd23360006040516020015260405160e060020a63ffffffff8416028152600160a060020a039091166004820152602401602060405180830381600087803b15156117ed57600080fd5b6102c65a03f115156117fe57600080fd5b50505060405180519050031015151561181657600080fd5b600154600160a060020a0316634d655aff6000604051602001526040518163ffffffff1660e060020a028152600401602060405180830381600087803b151561185e57600080fd5b6102c65a03f1151561186f57600080fd5b5050506040518051925050600160a060020a03821663984bc700866000604051610120015260405160e060020a63ffffffff8416028152600481019190915260240161012060405180830381600087803b15156118cb57600080fd5b6102c65a03f115156118dc57600080fd5b505050604051805190602001805190602001805190602001805190602001805190602001805190602001805190602001805190602001805150979850600197506119299650505050505050565b81600681111561193557fe5b1461193f57600080fd5b81600160a060020a0316631bc0e98186863360045460405160e060020a63ffffffff871602815260048101858152600160a060020a038416604483015260648201839052608060248301908152909160840185818151815260200191508051906020019080838360005b838110156119c15780820151838201526020016119a9565b50505050905090810190601f1680156119ee5780820380516001836020036101000a031916815260200191505b5095505050505050600060405180830381600087803b1515611a0f57600080fd5b6102c65a03f11515611a2057600080fd5b50505082600160a060020a031663ca7a285f3360045460405160e060020a63ffffffff8516028152600160a060020a0390921660048301526024820152604401600060405180830381600087803b1515611a7957600080fd5b6102c65a03f11515611a8a57600080fd5b5050507f9ddaf814de84455713e6f8f6cb743e6428c2213d26ecfa0fff9d21050cb585468533604051918252600160a060020a031660208201526040908101905180910390a15050505050565b60025481565b60005433600160a060020a03908116911614611af857600080fd5b600160a060020a0381161515611b0d57600080fd5b600054600160a060020a0380831691167f8be0079c531659141344cd1fd0a4f28419497f9722a3daafe3b4186f6b6457e060405160405180910390a36000805473ffffffffffffffffffffffffffffffffffffffff1916600160a060020a0392909216919091179055565b60035481565b600154600090819081908190600160a060020a0316634d655aff82604051602001526040518163ffffffff1660e060020a028152600401602060405180830381600087803b1515611bce57600080fd5b6102c65a03f11515611bdf57600080fd5b5050506040518051945050600160a060020a03841663984bc700876000604051610120015260405160e060020a63ffffffff8416028152600481019190915260240161012060405180830381600087803b1515611c3b57600080fd5b6102c65a03f11515611c4c57600080fd5b505050604051805190602001805190602001805190602001805190602001805190602001805190602001805190602001805190602001805190505098505050505050509250846006811115611c9d57fe5b836006811115611ca957fe5b14611cb357600080fd5b600154600160a060020a03166322ed80e86000604051602001526040518163ffffffff1660e060020a028152600401602060405180830381600087803b1515611cfb57600080fd5b6102c65a03f11515611d0c57600080fd5b5050506040518051905090508181600160a060020a0316633cfe6cd23360006040516020015260405160e060020a63ffffffff8416028152600160a060020a039091166004820152602401602060405180830381600087803b1515611d7057600080fd5b6102c65a03f11515611d8157600080fd5b5050506040518051905010151515611d9857600080fd5b611da58482848933611e8d565b505050505050565b600154600090600160a060020a03166322ed80e882604051602001526040518163ffffffff1660e060020a028152600401602060405180830381600087803b1515611df757600080fd5b6102c65a03f11515611e0857600080fd5b5050506040518051915050600160a060020a0381166378d7f9048486888660405160e060020a63ffffffff8716028152600160a060020a039485166004820152602481019390935290831660448301529091166064820152608401600060405180830381600087803b1515611e7c57600080fd5b6102c65a03f1151561166657600080fd5b84600160a060020a031663f66f2dd2838360405160e060020a63ffffffff85160281526004810192909252600160a060020a03166024820152604401600060405180830381600087803b1515611ee257600080fd5b6102c65a03f11515611ef357600080fd5b50505083600160a060020a031663ca7a285f828560405160e060020a63ffffffff8516028152600160a060020a0390921660048301526024820152604401600060405180830381600087803b1515611f4a57600080fd5b6102c65a03f11515611f5b57600080fd5b5050507f63e71dfd2b2fb6c6d2099cb21167861d3fbe560f219421128544c6d77fe404dd8282604051918252600160a060020a031660208201526040908101905180910390a150505050505600a165627a7a72305820eb9f6b4cac99ebe975e35ffaaf95008a2959738eb373ba71135b74d90ba0d98f0029",
  "source": "// Part of the Proven suite of software\n// Copyright  2017 \"The Partnership\" (Ethereum 0x12B0621D90c69867957A836d677C64c46EC4291D)\n\npragma solidity ^0.4.18;\n\nimport \"./Ownable.sol\";\nimport \"./VerifierRegistry.sol\";\nimport \"./VerifierDB.sol\";\nimport \"./Proven.sol\";\nimport \"./BondHolder.sol\";\n\n\ncontract Verifier is Ownable {\n\n  VerifierRegistry public registry;\n  uint public fee;\n  uint public timeoutBlockCount;\n  uint public requiredBondAmount;\n\n  event DepositionPublished(bytes32 deposition, address deponent, bytes ipfsHash, uint bounty);\n  event DepositionVerified(bytes32 deposition, address verifier);\n  event DepositionProven(bytes32 deposition, address verifier);\n  event DepositionChallenged(bytes32 deposition, address challenger);\n  event DepositionDisproven(bytes32 deposition, address challenger);\n  event DepositionContested(bytes32 deposition, address contestor);\n\n  modifier onlyWithFee() {\n    require(msg.value >= fee);\n    _;\n  }\n\n  function Verifier(address _registry, uint _fee, uint _timeoutBlockCount, uint _requiredBondAmount) public {\n    registry = VerifierRegistry(_registry);\n    fee = _fee;\n    timeoutBlockCount = _timeoutBlockCount;\n    requiredBondAmount = _requiredBondAmount;\n  }\n\n  function setRegistry(address _registry) public onlyOwner {\n    registry = VerifierRegistry(_registry);\n  }\n\n  function setFee(uint _fee) public onlyOwner {\n    fee = _fee;\n  }\n\n  function setTimeoutBlockCount(uint _timeoutBlockCount) public onlyOwner {\n    timeoutBlockCount = _timeoutBlockCount;\n  }\n\n  function setRequiredBondAmount(uint _requiredBondAmount) public onlyOwner {\n    requiredBondAmount = _requiredBondAmount;\n  }\n\n  function withdraw(uint _amount) public onlyOwner {\n    require(_amount <= this.balance);\n\n    assert(msg.sender.send(_amount));\n  }\n\n  // Called by the verifier when it is directly creating a new deposition,\n  // instead of mining one that's already in the chain's logs\n  // (like those created from Proven.publishDeposition). Requires a fee\n  // which is paid as a bounty to the verifier.\n  function publishDeposition(bytes _ipfsHash) public payable onlyWithFee returns (bytes32) {\n\n    Proven proven = Proven(registry.proven());\n\n    bytes32 id = proven.publishDeposition(msg.sender, _ipfsHash);\n\n    initializeDeposition(id, _ipfsHash, block.number);\n\n    return id;\n  }\n\n  // This starts the verification process for a deposition that the verifier\n  // doesn't yet know about, specifically one made with Proven.publishDeposition()\n  function initializeDeposition(bytes32 _deposition, bytes _ipfsHash, uint _deposedInBlock) public payable onlyWithFee {\n    VerifierDB db = VerifierDB(registry.db());\n\n    db.initialize(_deposition, _ipfsHash, msg.value, _deposedInBlock);\n\n    DepositionPublished(_deposition, msg.sender, _ipfsHash, msg.value);\n  }\n\n  // This is called to verify a published deposition that already exists.\n  // If the IPFS hash is not provided the verification won't be retrievable\n  // by a smart contract or by a user who wants to check its verification without\n  // downloading the full blockchain and scanning the logs, etc. It's not a great\n  // idea but it does save some gas.\n  function verifyDeposition(bytes32 _deposition) public {\n\n    verifyDeposition(_deposition, \"\");\n  }\n\n  // This is called to verify a published deposition that already exists, either\n  // from publishDeposition() above or the combination of\n  // Proven.publishDeposition + initizializeDepositon().\n  function verifyDeposition(bytes32 _deposition, bytes _ipfsHash) public {\n\n    BondHolder bondHolder = BondHolder(registry.bondHolder());\n\n    require(bondHolder.isBonded(msg.sender));\n    require((bondHolder.availableBond(msg.sender) - requiredBondAmount) >= 0);\n\n    VerifierDB db = VerifierDB(registry.db());\n\n    var (state,,,,,,,,) = db.getDetails(_deposition);\n    require(state == VerifierDB.State.Initialized);\n\n    db.verify(_deposition, _ipfsHash, msg.sender, requiredBondAmount);\n\n    bondHolder.lockBond(msg.sender, requiredBondAmount);\n\n    DepositionVerified(_deposition, msg.sender);\n  }\n\n  function getDepositionFromIPFSHash(bytes _ipfsHash) public view returns (bytes32) {\n    VerifierDB db = VerifierDB(registry.db());\n    return db.getDepositionFromIPFSHash(_ipfsHash);\n  }\n\n  function claimVerificationReward(bytes32 _deposition) public {\n\n    VerifierDB db = VerifierDB(registry.db());\n\n    var (state, bounty,, verifier, verifiedInBlock,,, bondAmount,) = db.getDetails(_deposition);\n    require(state == VerifierDB.State.Verified);\n    require(block.number >= verifiedInBlock + timeoutBlockCount);\n    require(verifier == msg.sender);\n\n    db.prove(_deposition);\n\n    BondHolder bondHolder = BondHolder(registry.bondHolder());\n\n    bondHolder.unlockBond(msg.sender, bondAmount);\n\n    assert(msg.sender.send(bounty));\n\n    DepositionProven(_deposition, msg.sender);\n  }\n\n  function challengeDeposition(bytes32 _deposition) public {\n\n    BondHolder bondHolder = BondHolder(registry.bondHolder());\n\n    require(bondHolder.isBonded(msg.sender));\n\n    VerifierDB db = VerifierDB(registry.db());\n\n    var (state,,,,,,,,) = db.getDetails(_deposition);\n    require(state == VerifierDB.State.Initialized);\n\n    db.challenge(_deposition, msg.sender, requiredBondAmount);\n\n    bondHolder.lockBond(msg.sender, requiredBondAmount);\n\n    DepositionChallenged(_deposition, msg.sender);\n  }\n\n  function claimChallengeReward(bytes32 _deposition) public {\n\n    VerifierDB db = VerifierDB(registry.db());\n\n    var (state, bounty,,,, challenger, challengedInBlock, bondAmount,) = db.getDetails(_deposition);\n    require(state == VerifierDB.State.Challenged);\n    require(block.number >= challengedInBlock + timeoutBlockCount);\n    require(challenger == msg.sender);\n\n    db.disprove(_deposition);\n    \n    BondHolder bondHolder = BondHolder(registry.bondHolder());\n\n    bondHolder.unlockBond(msg.sender, bondAmount);\n\n    assert(msg.sender.send(bounty));\n\n    DepositionDisproven(_deposition, msg.sender);\n  }\n\n  function contestState(bytes32 _deposition, VerifierDB.State _state) internal { \n\n    VerifierDB db = VerifierDB(registry.db());\n\n    var (state,,,,,,, bondAmount,) = db.getDetails(_deposition);\n    require(state == _state);\n\n    BondHolder bondHolder = BondHolder(registry.bondHolder());\n\n    // does the caller have enough bond on deposit?\n    require(bondHolder.availableBond(msg.sender) >= bondAmount);\n\n    contest(db, bondHolder, bondAmount, _deposition, msg.sender);\n  }\n\n  function contestVerification(bytes32 _deposition) public {\n    contestState(_deposition, VerifierDB.State.Verified);\n  }\n\n  function contestChallenge(bytes32 _deposition) public {\n    contestState(_deposition, VerifierDB.State.Challenged);\n  }\n\n  function decideChallenge(bytes32 _deposition, bool _proven) public {\n\n    address oracle = registry.oracle();\n    require(msg.sender == oracle);\n\n    VerifierDB db = VerifierDB(registry.db());\n    var (state,,, verifier,,,, bondAmount, contestor) = db.getDetails(_deposition);\n    require(state == VerifierDB.State.Contested);\n\n    if (_proven) {\n      db.prove(_deposition);\n      distributeContestReward(verifier, bondAmount, contestor, oracle);\n      DepositionProven(_deposition, verifier);\n    } else {\n      db.disprove(_deposition);\n      distributeContestReward(contestor, bondAmount, verifier, oracle);\n      DepositionDisproven(_deposition, contestor);\n    }\n  }\n\n  function contest(VerifierDB _db, BondHolder _bondHolder, uint bondAmount, bytes32 _deposition, address _contestor) internal {\n\n    _db.contest(_deposition, _contestor);\n\n    _bondHolder.lockBond(_contestor, bondAmount);\n\n    DepositionContested(_deposition, _contestor);\n  }\n\n  function distributeContestReward(address _winner, uint _bondAmount, address _loser, address _oracle) internal {\n\n    BondHolder bondHolder = BondHolder(registry.bondHolder());\n\n    bondHolder.distributeBond(_loser, _bondAmount, _winner, _oracle);\n  }\n}\n",
  "sourcePath": "/home/cleduc/src/proven-eth/contracts/Verifier.sol",
  "compiler": {
    "name": "solc",
    "version": "0.4.18+commit.9cf6e910.Emscripten.clang"
  },
  "schemaVersion": "1.0.1",
  "updatedAt": "2017-12-18T19:44:45.122Z"
}